:020000040800F2
:10000000000002201D360008753600087936000809
:100010007D360008813600088536000800000000A3
:100020000000000000000000000000008936000809
:100030008D36000800000000913600089536000853
:1000400071360008713600087136000871360008F4
:100050007136000871360008A5360008D136000850
:1000600071360008713600087136000871360008D4
:1000700071360008713600087136000871360008C4
:1000800051370008553700087136000871360008EE
:1000900071360008713600087136000871360008A4
:1000A0007136000871360008713600087136000894
:1000B0007136000871360008713600087136000884
:1000C0007136000871360008713600087136000874
:1000D000713600087136000859370008713600087B
:1000E000F1360008713600087136000871360008D4
:1000F0007136000871360008713600087136000844
:100100007136000871360008713600087136000833
:100110007136000871360008713600087136000823
:10012000293700087136000871360008713600085A
:100130007136000871360008713600087136000803
:1001400071360008713600087136000871360008F3
:1001500071360008713600087136000871360008E3
:1001600071360008713600087136000871360008D3
:1001700071360008713600087136000871360008C3
:08018000713600087136000819
:1001880010B5054C237833B9044B13B10448AFF3C9
:1001980000800123237010BD14000020000000001F
:1001A800504A000808B5034B1BB103490348AFF395
:1001B800008008BD0000000018000020504A000818
:1001C80081F0004102E000BF83F0004330B54FEA00
:1001D80041044FEA430594EA050F08BF90EA020F6D
:1001E8001FBF54EA000C55EA020C7FEA645C7FEA00
:1001F800655C00F0E2804FEA5454D4EB5555B8BF23
:100208006D420CDD2C4480EA020281EA030382EA93
:10021800000083EA010180EA020281EA0303362D25
:1002280088BF30BD11F0004F4FEA01314FF4801CF8
:100238004CEA113102D0404261EB410113F0004F0A
:100248004FEA03334CEA133302D0524263EB4303C1
:1002580094EA050F00F0A780A4F10104D5F1200E5F
:100268000DDB02FA0EFC22FA05F2801841F10001BA
:1002780003FA0EF2801843FA05F359410EE0A5F18E
:1002880020050EF1200E012A03FA0EFC28BF4CF0BF
:10029800020C43FA05F3C01851EBE37101F0004575
:1002A80007D54FF0000EDCF1000C7EEB00006EEB82
:1002B8000101B1F5801F1BD3B1F5001F0CD349080C
:1002C8005FEA30004FEA3C0C04F101044FEA445263
:1002D80012F5800F80F09A80BCF1004F08BF5FEAEA
:1002E800500C50F1000041EB045141EA050130BDCA
:1002F8005FEA4C0C404141EB010111F4801FA4F16D
:100308000104E9D191F0000F04BF01460020B1FAC1
:1003180081F308BF2033A3F10B03B3F120020CDAF9
:100328000C3208DD02F1140CC2F10C0201FA0CF0D7
:1003380021FA02F10CE002F11402D8BFC2F1200C3C
:1003480001FA02F120FA0CFCDCBF41EA0C019040F2
:10035800E41AA2BF01EB0451294330BD6FEA04043B
:100368001F3C1CDA0C340EDC04F11404C4F1200226
:1003780020FA04F001FA02F340EA030021FA04F338
:1003880045EA030130BDC4F10C04C4F1200220FA8F
:1003980002F001FA04F340EA0300294630BD21FACD
:1003A80004F0294630BD94F0000F83F4801306BF93
:1003B80081F480110134013D4EE77FEA645C18BF87
:1003C8007FEA655C29D094EA050F08BF90EA020F1E
:1003D80005D054EA000C04BF1946104630BD91EA16
:1003E800030F1EBF0021002030BD5FEA545C05D119
:1003F8004000494128BF41F0004130BD14F5800458
:100408003CBF01F5801130BD01F0004545F0FE41CB
:1004180041F470014FF0000030BD7FEA645C1ABF00
:10042800194610467FEA655C1CBF0B46024650EA37
:10043800013406BF52EA033591EA030F41F4002163
:1004480030BD00BF90F0000F04BF0021704730B5E9
:100458004FF4806404F132044FF000054FF00001BE
:1004680050E700BF90F0000F04BF0021704730B57F
:100478004FF4806404F1320410F0004548BF404254
:100488004FF000013EE700BF42004FEAE2014FEAA9
:1004980031014FEA02701FBF12F07F4393F07F4F84
:1004A80081F06051704792F0000F14BF93F07F4FB6
:1004B800704730B54FF4607401F0004521F00041F9
:1004C80020E700BF50EA010208BF704730B54FF07F
:1004D80000050AE050EA010208BF704730B511F084
:1004E800004502D5404261EB41014FF4806404F1BC
:1004F80032045FEA915C3FF4DCAE4FF003025FEA3E
:10050800DC0C18BF03325FEADC0C18BF033202EBC5
:10051800DC02C2F1200300FA03FC20FA02F001FA1F
:1005280003FE40EA0E0021FA02F11444C1E600BFBE
:1005380070B54FF0FF0C4CF4E06C1CEA11541DBF71
:100548001CEA135594EA0C0F95EA0C0F00F0DEF83C
:100558002C4481EA030621EA4C5123EA4C5350EA21
:10056800013518BF52EA033541F4801143F4801372
:1005780038D0A0FB02CE4FF00005E1FB02E506F003
:100588000042E0FB03E54FF00006E1FB03569CF058
:10059800000F18BF4EF0010EA4F1FF04B6F5007F5E
:1005A80064F5407404D25FEA4E0E6D4146EB0606D0
:1005B80042EAC62141EA55514FEAC52040EA5E5059
:1005C8004FEACE2EB4F1FD0C88BFBCF5E06F1ED803
:1005D800BEF1004F08BF5FEA500E50F1000041EB3A
:1005E800045170BD06F0004646EA010140EA0200E7
:1005F80081EA0301B4EB5C04C2BFD4EB0C0541EA09
:10060800045170BD41F480114FF0000E013C00F31D
:10061800AB8014F1360FDEBF002001F0004170BD41
:10062800C4F10004203C35DA0C341BDC04F114045A
:10063800C4F1200500FA05F320FA04F001FA05F2E6
:1006480040EA020001F0004221F0004110EBD370B3
:1006580021FA04F642EB06015EEA430E08BF20EADF
:10066800D37070BDC4F10C04C4F1200500FA04F382
:1006780020FA05F001FA04F240EA020001F0004114
:1006880010EBD37041F100015EEA430E08BF20EA87
:10069800D37070BDC4F1200500FA05F24EEA020ECF
:1006A80020FA04F301FA05F243EA020321FA04F0FE
:1006B80001F0004121FA04F220EA020000EBD370B5
:1006C8005EEA430E08BF20EAD37070BD94F0000FB5
:1006D8000FD101F00046400041EB010111F4801FE9
:1006E80008BF013CF7D041EA060195F0000F18BF9A
:1006F800704703F00046520043EB030313F4801FD6
:1007080008BF013DF7D043EA0603704794EA0C0F8F
:100718000CEA135518BF95EA0C0F0CD050EA4106A5
:1007280018BF52EA4306D1D181EA030101F0004122
:100738004FF0000070BD50EA410606BF104619464A
:1007480052EA430619D094EA0C0F02D150EA013656
:1007580013D195EA0C0F05D152EA03361CBF104697
:1007680019460AD181EA030101F0004141F0FE4136
:1007780041F470014FF0000070BD41F0FE4141F4BA
:10078800780170BD70B54FF0FF0C4CF4E06C1CEABA
:1007980011541DBF1CEA135594EA0C0F95EA0C0F6F
:1007A80000F0A7F8A4EB050481EA030E52EA03352A
:1007B8004FEA013100F088804FEA03334FF080554B
:1007C80045EA131343EA12634FEA022245EA111578
:1007D80045EA10654FEA00260EF000419D4208BF29
:1007E800964244F1FD0404F5407402D25B084FEAD6
:1007F8003202B61A65EB03055B084FEA32024FF482
:1008080080104FF4002CB6EB020E75EB030E22BFDE
:10081800B61A754640EA0C005B084FEA3202B6EB9E
:10082800020E75EB030E22BFB61A754640EA5C004D
:100838005B084FEA3202B6EB020E75EB030E22BFDD
:10084800B61A754640EA9C005B084FEA3202B6EBDE
:10085800020E75EB030E22BFB61A754640EADC009D
:1008680055EA060E18D04FEA051545EA16754FEAFF
:1008780006164FEAC30343EA52734FEAC2025FEA1D
:100888001C1CC0D111F4801F0BD141EA00014FF0AC
:1008980000004FF0004CB6E711F4801F04BF01437D
:1008A8000020B4F1FD0C88BFBCF5E06F3FF6AFAE99
:1008B800B5EB030C04BFB6EB020C5FEA500C50F129
:1008C800000041EB045170BD0EF0004E4EEA1131AC
:1008D80014EB5C04C2BFD4EB0C0541EA045170BDB3
:1008E80041F480114FF0000E013C90E645EA060EF7
:1008F8008DE60CEA135594EA0C0F08BF95EA0C0F25
:100908003FF43BAF94EA0C0F0AD150EA01347FF46C
:1009180034AF95EA0C0F7FF425AF104619462CE743
:1009280095EA0C0F06D152EA03353FF4FDAE1046A6
:10093800194622E750EA410618BF52EA43067FF4F7
:10094800C5AE50EA41047FF40DAF52EA43057FF487
:10095800EBAE12E74FF0FF3C06E000BF4FF0010C92
:1009680002E000BF4FF0010C4DF804CD4FEA410CF6
:100978007FEA6C5C4FEA430C18BF7FEA6C5C1BD0C3
:1009880001B050EA410C0CBF52EA430C91EA030F44
:1009980002BF90EA020F0020704710F1000F91EAA1
:1009A800030F58BF994208BF90422CBFD8176FEA6F
:1009B800E37040F0010070474FEA410C7FEA6C5C3D
:1009C80002D150EA013C07D14FEA430C7FEA6C5C44
:1009D800D6D152EA033CD3D05DF8040B704700BF70
:1009E8008446104662468C461946634600E000BFBE
:1009F80001B5FFF7B7FF002848BF10F1000F01BD90
:100A08004DF808EDFFF7F4FF0CBF012000205DF85A
:100A180008FB00BF4DF808EDFFF7EAFF34BF0120DF
:100A280000205DF808FB00BF4DF808EDFFF7E0FF78
:100A380094BF012000205DF808FB00BF4DF808EDC9
:100A4800FFF7CEFF94BF012000205DF808FB00BF30
:100A58004DF808EDFFF7C4FF34BF012000205DF812
:100A680008FB00BF4FEA410212F5001215D211D55A
:100A78006FF47873B3EB625212D94FEAC12343F093
:100A8800004343EA505311F0004F23FA02F018BF15
:100A9800404270474FF00000704750EA013005D1DE
:100AA80011F0004008BF6FF0004070474FF00000A1
:100AB800704700BF4A0011D212F5001211D20DD5AD
:100AC8006FF47873B3EB62520ED44FEAC12343F04C
:100AD800004343EA505323FA02F070474FF00000F6
:100AE800704750EA013002D14FF0FF3070474FF0A5
:100AF800000070474FEA4102B2F1E04324BFB3F56A
:100B0800001CDCF1FE5C0DD901F0004C4FEAC0027C
:100B18004CEA5070B2F1004F40EB830008BF20F060
:100B28000100704711F0804F21D113F13872BCBF1A
:100B380001F00040704741F480114FEA5252C2F16F
:100B48001802C2F1200C10FA0CF320FA02F018BFB8
:100B580040F001004FEAC1234FEAD32303FA0CFC0B
:100B680040EA0C0023FA02F34FEA4303CCE77FEA9A
:100B7800625307D150EA01331EBF4FF0FE4040F4E4
:100B88004000704701F0004040F0FE4040F4000093
:100B9800704700BF0000000070B55D4D2DED028B61
:100BA80057A1D1E900019FED5B8AA5F5006640F2E7
:100BB800FF1407E0FFF768FC41EC100B02F000FFA0
:100BC80051EC100B013CA4B2FFF794FF07EE904ADA
:100BD800F8EEE77A45F8040D67EE887AB54217EE25
:100BE800900AE7D14C4D9FED4B8AA5F5006646A1CA
:100BF800D1E9000140F2FF1407E0FFF745FC41ECA2
:100C0800100B02F099FE51EC100B013CA4B2FFF757
:100C180071FF07EE904AF8EEE77A45F8040D67EEA3
:100C2800887AAE4217EE900AE7D1DFED3C4A9FED95
:100C38003C4AB0EE646AF0EE645AB0EE645A40F290
:100C4800FF1307EE903AF8EEE77A013B67EE847AF5
:100C58005A1C67EEA76A35EE275A27EEA67A75EE74
:100C6800A65A36EE076AE7EE874AEAD166EE466A82
:100C780024EEC57AE5EEA46ABDEC028BDFED292AE5
:100C8800294BA5EE867A65EEE57A26EEA23AF0EED5
:100C9800673AE5EE063AA7EE053AB7EE002AA5EE62
:100CA800A33A22EEC66A82EE034A25EE453AA5EE3D
:100CB800256AE4EEA27AB0EE435AA5EEA25AF0EE07
:100CC800674A64EE235A66EE047A27EE047A25EE24
:100CD800045A24EE846A66EE846A83ED085AC3EDEA
:100CE800077AC3ED065AC3ED057A83ED046A83EDEE
:100CF800037AC3ED025A83ED017AC3ED006A70BD31
:100D0800408C5131BF2189BF4AC5871762FFEF3F29
:100D180090900120DB0F493C3008002000000000C3
:100D28000AD7233800000044209101202DE9F04320
:100D380007EE901A254A9FED265A264BD2ED045A03
:100D480092ED032A92ED076AD2ED062A224F234C30
:100D5800D2ED056A92ED087A214D9FED224A9FED6A
:100D6800223ADFED223A9FED220ADFED220A9FEDBB
:100D7800221A224ADFED221A2DED0C8BF8EEE77AC3
:100D88001B78DFED208A9FED208A67EE857A03EBDA
:100D98004303A7EEA52A9B0301EB4106E7EE862A4B
:100DA800890007EB010E67EEA77A03EB461621448C
:100DB800DEED004A154F164B91ED005AA7EEA62A14
:100DC8002E4400F1180EE7EE872A9BE020910120BF
:100DD8000AD7233848F101209088012030000020EC
:100DE800A00800202003482AE02E6542610B363B0C
:100DF8002549123E398EE33D8C2EBA3D400800202D
:100E0800D9899D3DABAAAA3ECDCC4C3EE4F2012047
:100E1800A8900120000000000000B4432359C73FF8
:100E28008988883DF1F0703D310C433D3694573D3B
:100E3800DB0FC93FDB0F4940B5EE409AF1EE10FADF
:100E480040F002821FED0D9AF0EE499AB0EE49AAE1
:100E5800F0EE497AB5EE407AF1EE10FA46ED037AF3
:100E680040F04A81F5EE406AF1EE10FA40F0DE817A
:100E78001FED187AF0EE477AB5EEC09AF1EE10FA47
:100E880046ED017A48BF5FED1C7A53ED06BA13EDC3
:100E980004BA53ED02AA53ED016A48BF39EE279A06
:100EA800B5EEC07A53ED057AF1EE10FA37EE899A6D
:100EB80048BF5FED277A03ED059A48BF37EE277ADA
:100EC80053ED037A7BEEA55A3BEE066A3AEE8AAA00
:100ED80076EEA99A37EE877A0430704543ED065AC4
:100EE80003ED046A03ED02AA43ED019A03ED037AC8
:100EF80002F1100207F1040706F1100603F11803C6
:100F080000F0C28104884188B0F8009037F9048C59
:100F1800458837F902CC12ED039A52ED016A52ED79
:100F2800049A12ED027A0FFA89F9A9EB080907EE7B
:100F3800909A2DB2A5EB0C05B8EEE76A07EE905A29
:100F480024B2F8EEE77A09B2A4EB0804A1EB0C018D
:100F5800A4EE869AE4EEA76A06EE104A07EE901A07
:100F6800B8EEC66AF8EEE77AE5EE069AA5EE277AB5
:100F780069EE095A26EEA66AE9EEA95AA7EE076AAB
:100F880065EE845A26EE046AF5EE409AF1EE10FA00
:100F980002ED039A42ED049A46ED045A42ED016AC5
:100FA80006ED026A02ED027A3FF446AFB1EE49AAB5
:100FB800CAEE297AB7EE00AAF0EEE77AF4EECA7A1A
:100FC800F1EE10FA40F36781CAEE277A0324012173
:100FD800B6EE00AAF4EECA7AF1EE10FA0ADD1FEDB9
:100FE80071AAF7EE00AAE7EE8AAA21463AEE67AAA6
:100FF800CAEE2A7A012927EEE7AA27EEA8CA2AEE1E
:1010080008DA2CEE0ACA6AEE00CA2DEE0CDA77EE80
:101018008C7A6CEE8DCA2AEE20CA77EE8D7A2CEE89
:101028002CCA2AEE01DA77EEAC7A2DEE0CDA6AEEEB
:1010380021CA77EE8C7A1FED86CA1FED86BA5FED5E
:1010480085AA5FED87BA6CEE8DCA2AEE0CCA77EED8
:101058008D7A2CEE2CCA2AEE0BBA77EEAC7A2BEEF0
:101068000CBA6AEE2AAA77EE8C7A6AEE8BAA77EE29
:101078008B7A2AEE2BAA77EEAA7AEAEE2A7A05D993
:10108800B7EE00AA02397AEE677AC9B2012908BF19
:101098001FED99AAF5EEC09A08BF7AEE677AF1EECD
:1010A80010FA40F1D380B5EEC09A1FED9E9AF1EE8A
:1010B80010FACCBF77EEC97A79EE677A4FF4B4713B
:1010C80027EE83BAB5EE407A6BEE23AAF1EE10FA5A
:1010D800BDEEEA9A22EE27AA19EE104A01FB04F4A3
:1010E80009EE104AB8EEC99A62EEA79A3BEE499A01
:1010F80046ED037A3FF4B6AEF1EE66AACAEE877AF9
:10110800F7EE00AAF0EEE77AF4EEEA7AF1EE10FADA
:1011180040F3BE80CAEEA77A03240121F6EE00AAA6
:10112800F4EEEA7AF1EE10FA0ADD5FEDC4AAB7EE42
:1011380000BAA7EEAABA21467AEEE7AACAEE8B7AD7
:10114800012967EEE7AA67EEA8CA6AEE88DA6CEEAC
:10115800AACA2AEE80DA6DEEACDA77EEAC7A2DEE1A
:101168002DDA6AEEA0CA77EEAD7A6CEE8DCA6AEE19
:1011780081DA77EE8D7A6DEEACDA2AEEA1DA77EEC7
:10118800AC7A5FEDD9CA5FEDD9BA1FEDD8BA1FEDB9
:10119800DACA2DEE2DDA6AEEACCA77EEAD7A6CEECD
:1011A8008DCA6AEEABBA77EE8D7A6BEEACBA2AEEE0
:1011B8008BBA77EEAC7A2BEE2BBA77EEAB7A6AEE77
:1011C8008CAA77EE8B7AEAEE8B7A05D9F7EE00AA2D
:1011D80002397AEEE77AC9B2012908BF5FEDECAAB5
:1011E800B5EEC07A08BF7AEEE77AF1EE10FA1FD5AD
:1011F8001FEDF07AF5EEC06AF1EE10FACCBF77EE8B
:10120800C77A77EE677A4FF4B47167EE83AA6AEE0D
:10121800A36ABDEEE67A17EE104A01FB04F407EE66
:10122800104AB8EEC77A3AEEC77A25E6DFED1B7AA0
:10123800F5EEC06AF1EE10FAC8BFF1EE677A67EE14
:1012480083AA4FF4B471E2E7DFED147AB5EEC09AE1
:10125800F1EE10FAC8BFF1EE677A67EE83AA4FF491
:10126800B4716AEEA39A22EE27AABDEEE99A62EE5D
:10127800A79A19EE104A01FB04F409EE104AB8EED9
:10128800C99A3AEEC99AE5E5BDEC0C8BBDE8F08346
:101298000224002142E70224002199E6DB0FC93F1E
:1012A80010B4904B9FED907A9FED906A93ED040AED
:1012B800D3ED0A0ADFED8E7ADFED8E6A93ED001A20
:1012C800D3ED021A93ED012AD3ED032AD3ED074A91
:1012D80093ED053AD3ED063A93ED084A93ED095A92
:1012E800D3ED0B5A84492DED028BB0EE478AA0EE60
:1012F800068A0022DA6121EE271AB0EE480AB0EE1B
:10130800478AA0EE868A1A605A6061EEA71A22EE12
:10131800272A62EEA72A23EE263A63EEA73A24EE9E
:10132800274A64EEA74A25EE275A65EEA65A81EDAC
:10133800040A81ED001AC1ED021A81ED012AC1EDFE
:10134800032A81ED053AC1ED063A81ED084AC1ED5F
:10135800074A81ED095AC1ED0B5A81ED0A8A9A6054
:10136800DA601A615A6193ED100A93ED0C1AD3ED05
:101378000E1A93ED0D2AD3ED0F2A93ED113AD3ED02
:10138800123A93ED144AD3ED134A93ED155AD3ED5F
:10139800175AD3ED160A9A61B0EE478AA0EE068A6C
:1013A8001A625A6221EE271A61EEA71A22EE272A3C
:1013B80062EEA72A23EE263A63EEA73A24EE274ADE
:1013C80064EEA74A25EE275A65EEA65AB0EE480AFB
:1013D80081ED0C1AB0EE478AC1ED0E1A81ED0D2A87
:1013E800C1ED0F2A81ED113AC1ED123A81ED144A8F
:1013F800C1ED134A81ED155AC1ED175A9A62DA62A6
:101408001A6381ED100A5A639A63DA631A6493EDDA
:101418001C1AD3ED181A93ED1A2AD3ED192A93ED55
:101428001B3AD3ED215AD3ED1D3A93ED1E4AD3ED65
:10143800204A93ED1F5A5A64A0EE868A9A641A6667
:10144800F0EE470AE1EE060ADA641A6561EEA71AB9
:1014580022EE272A62EEA72A23EE273A63EEA63A5F
:1014680024EE274A64EEA74A25EE275A65EEA77AA6
:1014780081ED168AC1ED217AC1ED181A81ED1A2A7B
:10148800C1ED192A81ED1B3AC1ED1D3AC1ED1C0AC7
:1014980081ED1E4AC1ED204A81ED1F5A5A659A65B1
:1014A800DA655A669A66DA661A67D3ED225AD3ED78
:1014B800237A5A67BDEC028BA5EE867A9A67DA67BB
:1014C80067EEA66A81ED227AC1ED236AC3F880200F
:1014D800C3F88420C3F88820C3F88C205DF8044B37
:1014E800704700BF909001200000484283F9223ED7
:1014F8000000003B83F9A23E50F20120162930D8A3
:1015080070B42A4D8B086C6C9B0003F1804303F583
:101518009C3344F480446C6401F003049E68A40086
:101528006FF00F05A54035409D609D6800FA04F4F2
:101538002C43012A9C6021D02BD3022A12D00122ED
:1015480002FA01F1CC431A4B1868204018605A6817
:1015580022405A601A680A431A6070BC5A681143DC
:1015680059607047124B01209A6800FA01F10A434A
:101578009A60DA680A43DA60CC43E4E70C4B02FA73
:1015880001F19A68CC4322409A60DA680A43DA602B
:10159800D9E7074B012202FA01F1DA68CC4322406D
:1015A800DA609A680A439A60CDE700BF00380240C3
:1015B800003C0140054A5369034005D013681842AE
:1015C80014BF01200020704718467047003C0140B6
:1015D800014B5861704700BF003C0140024A136943
:1015E80018431061704700BF003C014070B5764D4C
:1015F8002B6B43F004032B6300BF744B744C002621
:101608001E60DE602B6B43F010032B63236823F00E
:101618004063236023682360E36823F04063E3604A
:10162800E368E360236823F0405323602368236062
:10163800E36823F04053E360E368E360236823F43E
:101648004003236023682360E36823F44003E360D6
:10165800E368E360236823F0407323602368236012
:10166800E36823F04073E360E368E36001220B2141
:101678000420FFF743FF01220C210420FFF73EFF5F
:101688002368544A544923F440332360236843F4BD
:10169800803323601660A36843F44033A3606B6C07
:1016A80058040BD46B6C4D4A43F480436B64136A43
:1016B80043F001031362136ADB05FCD5444B42482F
:1016C800DA6822F44032DA60DA68DA601A6822F4FA
:1016D80040121A601A680A31890042F48012002404
:1016E8001A600C609A6842F440129A60436C5A047B
:1016F8000BD4436C394A43F480434364136A43F080
:1017080001031362136ADD05FCD5314B2E48DA68F4
:1017180022F44012DA60DA68DA601A6822F040428D
:101728001A601A68002442F080421A604C619A6874
:1017380042F040429A60436C5E040BD4436C274AE3
:1017480043F480434364136A43F001031362136A4A
:10175800D805FCD51E4B1C48DA6822F04042DA60F6
:10176800DA68DA601A6822F440221A601A680024DB
:1017780042F480221A6041F8044C9A6842F44022EC
:101788009A60436C5C040BD4436C144A43F4804362
:101798004364136A43F001031362136ADB05FCD543
:1017A8000B4B0F49DA680F4D0F4C104822F44022BA
:1017B800DA60DA68DA60012300222B600B602360AC
:1017C80003600A6070BD00BF003802400008024094
:1017D80000100240A00042422080901000380140D2
:1017E800BC024242A4024242A0024242A802424231
:1017F8006749684B0A6B684842F0080210B50A63EB
:101808001A6822F040621A601A68002442F0806266
:101818001A6004609A6842F040629A604B6C5C04FB
:101828000BD44B6C5D4A43F480434B64136A43F01A
:1018380001031362136AD905FCD5564B5449DA687B
:10184800574822F04062DA60DA6842F08062DA6073
:101858000A6B42F008020A631A6822F040721A60A2
:101868001A68002442F080721A6004609A6842F094
:1018780040729A604B6C58040BD44B6C474A43F443
:1018880080434B64136A43F001031362136ADC0557
:10189800FCD5404B3E49DA68424822F04072DA6093
:1018A800DA6842F08072DA600A6B42F008020A6372
:1018B8001A6822F040521A601A68002442F08052D6
:1018C8001A6004609A6842F040529A604B6C5B045C
:1018D8000BD44B6C314A43F480434B64136A43F096
:1018E80001031362136AD905FCD52A4B2849DA6823
:1018F8002D4822F04052DA60DA6842F08052DA600D
:101908000A6B42F008020A631A6822F040421A6021
:101918001A68002442F080421A6004609A6842F013
:1019280040429A604B6C58040BD44B6C1B4A43F4EE
:1019380080434B64136A43F001031362136ADB05A7
:10194800FCD5144A1248D168184B21F04041D160A7
:10195800D16841F08041D160026B42F0010202631C
:101968001A6822F003021A601A681A60DA6822F00C
:101978000302DA60DA68DA60002211461046FFF7DF
:10198800BDFD002210460121BDE81040FFF7B6BD9D
:1019980000380240000C0240B48041420038014047
:1019A800B0804142B8804142BC80414200000240C0
:1019B8000C38032805D8DFE800F00B080502064BB1
:1019C80019607047054B19607047054B19607047DF
:1019D800044B1960704700BFBC824142B882414243
:1019E800B4824142B0824142014B1870704700BF37
:1019F8004491012018481949C268194BF0B54FF6AF
:101A0800FF0422401143C1604022102620253024C3
:101A1800E0214FF0500EF02783F828634FF4803010
:101A280083F838534FF4807683F811434FF080756C
:101A380083F810234FF4003483F826E383F8061361
:101A480083F8077380215E605D601C6018605A60CF
:101A58001A601960F0BD00BF00ED00E00003FA0550
:101A680000E100E0FFF798B82DE9F843714D724E98
:101A7800724FDFF8D08101210C20FFF799FF3378EE
:101A8800298832782C886E48DFF8BCC1DFF8BCE1C1
:101A9800A4B282F0010204EB440402EB4209E20022
:101AA80002EB093200243C60C8F8004030F802908C
:101AB800ACF8009089B201EB410103EB4309CB007C
:101AC800DEF8101003EB093309B2C15202440121B8
:101AD800C8F80010B2F80290ACF80290DEF8109046
:101AE80003440FFA89F9A3F8029039603C60C8F8FA
:101AF8000040B2F80490ACF80490DEF810900FFAA9
:101B080089F9A3F80490C8F80010B2F80690ACF868
:101B18000690DEF810900FFA89F9A3F8069039605C
:101B28003C60C8F80040B2F80890ACF80890DEF8BD
:101B380010900FFA89F9A3F80890C8F80010B2F8C5
:101B48000A90ACF80A90DEF810900FFA89F9A3F819
:101B58000A9039603C60C8F80040B2F80C90ACF8C4
:101B68000C90DEF810900FFA89F9A3F80C90C8F8D9
:101B78000010B2F80E90ACF80E90DEF810900FFA44
:101B880089F9A3F80E9039603C60C8F80040B2F8B3
:101B98001090ACF81090DEF810900FFA89F9A3F8BD
:101BA8001090C8F80010B2F81290ACF81290DEF855
:101BB80010900FFA89F9A3F8129039603C60C8F8C0
:101BC8000040B2F81490ACF81490DEF810900FFAB8
:101BD80089F9A3F81490C8F80010D28AACF8162036
:101BE800DEF8102012B2DA82396033782A88298820
:101BF80003EB430392B202EB42021B0303EBC20363
:101C0800184489B2FFF792F82B8801339BB2B3F5D9
:101C1800007F2B8007D32C803378022083F00103C8
:101C28003370FFF7DBFC00210C20BDE8F843FFF719
:101C3800BFBE00BF4AF1012048F10120A002424284
:101C480048910120A8024242E0F201200008024027
:101C58002DE9F04FDFF8D4B3DFF8D493EE4DDFF879
:101C6800D483EE4C83B0FFF71BFBDBF80000FEF7D4
:101C78000BFCE5A3D3E90023FEF7A8FA0022E84B02
:101C8800FEF756FCFEF716FF80B2A9FB0021890972
:101C9800A5FB017CA5FB00234FEADC0CA8FB007226
:101CA80052090CEB8C0CA1EB4C01A5FB027CDB0868
:101CB8004FEADC0C1FFA83FE0CEB8C0CA2EB4C02F7
:101CC800A5FB0E7CD74F03EB83034FEADC0C0CEB30
:101CD8008C0CA0EB4303A7FB0070AEEB4C0E400B43
:101CE8004FF02E0A0EF1300E3032303330303031B2
:101CF80084F804E02070E270DBF8040084F802A0A5
:101D080063716170FEF7C0FBC1A3D3E90023FEF73E
:101D18005DFA0022C44BFEF70BFCFEF7CBFE80B247
:101D2800A5FB0023A9FB0021DB08A8FB0072BD4F1F
:101D380084F809A01FFA83FC890903EB8303A7FB36
:101D4800007EA0EB4300A5FB0173DB08520903EBFF
:101D58008303A1EB4301A5FB0273DB0803EB8303B9
:101D6800A2EB4302A5FB0C73DB0803EB8303ACEB8C
:101D780043034FEA5E3E00F1300C0EF1300E303274
:101D880030333031DBF8180084F806E084F80BC0F3
:101D98002272A372E171FEF777FB9BA3D3E90023BC
:101DA800FEF714FA00229E4BFEF7C2FBFEF782FEF6
:101DB80080B2A5FB0023A9FB0021DB08A8FB007269
:101DC800984F84F80EA01FFA83FC890903EB83035C
:101DD800A7FB007EA0EB4300A5FB0173DB085209BB
:101DE80003EB8303A1EB4301A5FB0273DB0803EBC1
:101DF8008303A2EB4302A5FB0C73DB0803EB83030D
:101E0800ACEB43034FEA5E3E00F1300C0EF1300EAE
:101E1800303230333031DBF81C0084F80CE084F8C1
:101E280011C0E27323746173FEF72EFB78A3D3E924
:101E38000023FEF7CBF900227B4BFEF779FBFEF778
:101E480039FE80B2A5FB0023A9FB0021DB08A8FB13
:101E58000072744F84F815A01FFA83FC890903EBFC
:101E68008303A7FB007EA0EB4300A5FB0173DB08FF
:101E7800520903EB8303A1EB4301A5FB0273DB08C3
:101E880003EB8303A2EB4302A5FB0C73DB0803EB14
:101E98008303ACEB43034FEA5E3E00F1300C0EF1D6
:101EA800300E303230333031DBF8300084F812E055
:101EB80084F817C02275A375E174FEF7E5FA52A3FA
:101EC800D3E90023FEF782F90022554BFEF730FBD9
:101ED800FEF7F0FD80B2A5FB0023A9FB0021DB087B
:101EE800A8FB00724F4F84F81AA01FFA83FC8909D7
:101EF80003EB8303A7FB007EA0EB4300A5FB017364
:101F0800DB08520903EB8303A1EB4301A5FB027332
:101F1800DB0803EB8303A2EB4302A5FB0C73DB088E
:101F280003EB8303ACEB43034FEA5E3E00F1300C56
:101F38000EF1300E303230333031DBF8340084F8B3
:101F480018E084F81DC0E27623776176FEF79CFAE4
:101F58002FA3D3E90023FEF739F90022324BFEF70D
:101F6800E7FAFEF7A7FD80B2A5FB0023A9FB002135
:101F7800DB08A8FB00722B4F84F821A01FFA83FC12
:101F8800890903EB8303A7FB007EA0EB4300A5FBB5
:101F98000173DB08520903EB8303A1EB4301A5FBA3
:101FA8000273DB0803EB8303A2EB4302A5FB0C736C
:101FB800DB0803EB8303ACEB43034FEA5E3E00F11F
:101FC800300C0EF1300E303230333031DBF848004F
:101FD80084F81EE084F823C084F8202084F8223096
:101FE800E177FEF751FA08A3D3E90023FEF7EEF8EC
:101FF80000220B4BFEF79CFAFEF75CFD80B2A5FBB6
:10200800002319E0AFF30080FCA9F1D24D62403FF4
:102018007B14AE47E17A743FCDCCCCCC80F1012063
:1020280000408F405917B7D10000594050F20120A5
:10203800D34D62101F85EB51A9FB0021DB08A8FBDB
:102048000072F14F84F826A01FFA83FC890903EB7C
:102058008303A7FB007EA0EB4300A5FB0173DB080D
:10206800520903EB8303A1EB4301A5FB0273DB08D1
:1020780003EB8303A2EB4302A5FB0C73DB0803EB22
:102088008303ACEB43034FEA5E3E00F1300C0EF1E4
:10209800300E303230333031DBF84C0084F824E035
:1020A80084F829C084F8272084F8283084F825107B
:1020B800FEF7EAF9D0A3D3E90023FEF787F8002258
:1020C800D24BFEF735FAFEF7F5FC80B2A5FB0023EC
:1020D800A9FB0021DB08A8FB0072CB4F84F82DA0D8
:1020E8001FFA83FC890903EB8303A7FB007EA0EB9F
:1020F8004300A5FB0173DB08520903EB8303A1EB43
:102108004301A5FB0273DB0803EB8303A2EB430245
:10211800A5FB0C73DB0803EB8303ACEB43034FEA2B
:102128005E3E00F1300C0EF1300E3032303330317B
:10213800DBF8600084F82AE084F82FC084F82C20AB
:1021480084F82E3084F82B10FEF79EF9ACA3D3E95F
:102158000023FEF73BF80022AD4BFEF7E9F9FEF746
:10216800A9FC80B2A5FB0023A9FB0021DB08A8FB82
:102178000072A54F84F832A01FFA83FC890903EB8B
:102188008303A7FB007EA0EB4300A5FB0173DB08DC
:10219800520903EB8303A1EB4301A5FB0273DB08A0
:1021A80003EB8303A2EB4302A5FB0C73DB0803EBF1
:1021B8008303ACEB43034FEA5E3E00F1300C0EF1B3
:1021C800300E303230333031DBF8640084F830E0E0
:1021D80084F835C084F8332084F8343084F831101A
:1021E800FEF752F984A3D3E90023FDF7EFFF00229D
:1021F800864BFEF79DF9FEF75DFC80B2A5FB002338
:10220800A9FB0021DB08A8FB00727F4F84F839A0E6
:102218001FFA83FC890903EB8303A7FB007EA0EB6D
:102228004300A5FB0173DB08520903EB8303A1EB11
:102238004301A5FB0273DB0803EB8303A2EB430214
:10224800A5FB0C73DB0803EB8303ACEB43034FEAFA
:102258005E3E00F1300C0EF1300E3032303330314A
:10226800DBF8780084F836E084F83BC084F838203E
:1022780084F83A3084F83710FEF706F960A3D3E9FA
:102288000023FDF7A3FF624B0022FEF751F9FEF78A
:1022980011FC80B2A9FB00324FEA921EA8FB001382
:1022A800A5FB0021584A84F83EA0A2FB002CA5FB00
:1022B8000E72D2085B0902EB8202AEEB4202A5FB6A
:1022C800037E4FEADE0EC9080EEB8E0EA3EB4E031B
:1022D8001FFA81FE01EB8101A0EB4100A5FB0E7105
:1022E800C90801EB81013032AEEB410E4FEA5C3C8C
:1022F8000CF1300C0EF1300E303384F83D2000F133
:10230800300284F83CC084F83F30DBF87C0084F865
:1023180040E084F84120FEF7B7F837A3D3E900235B
:10232800FDF754FF0022394BFEF702F9FEF7C2FB16
:1023380080B2A5FB0023A9FB0021DB08A8FB0072E3
:10234800314F84F845A01FFA83FC890903EB830306
:10235800A7FB007EA0EB4300A5FB0173DB08520935
:1023680003EB8303A1EB4301A5FB0273DB0803EB3B
:102378008303A2EB4302A5FB0C73DB0803EB830387
:10238800ACEB43034FEA5E3E00F1300C0EF1300E29
:10239800303230333031DBF8080084F842E084F81A
:1023A80047C084F8442084F8463084F84310FEF788
:1023B8006BF813A3D3E90023FDF708FF0022144BA1
:1023C800FEF7B6F8FEF776FB80B2A5FB0023A9FB63
:1023D8000021DB08A8FB00720B4F84F84AA01FFA03
:1023E80083FC890903EB8303A7FB007EA0EB430072
:1023F800A5FB01730EE000BF7B14AE47E17A743F82
:10240800FCA9F1D24D62403F5917B7D1000059409D
:1024180000408F40DB08520903EB8303A1EB430123
:10242800A5FB0273DB0803EB8303A2EB4302A5FBC6
:102438000C73DB0803EB8303ACEB43034FEA5E3E0C
:1024480000F1300C0EF1300E303230333031DBF821
:102458000C0084F848E084F84DC084F84B2084F8D8
:102468004C3084F84910FEF70FF8EFA3D3E90023A6
:10247800FDF7ACFE0022EE4BFEF75AF8FEF71AFB0A
:1024880080B2A5FB0023A9FB0021DB08A8FB007292
:10249800E84F84F851A01FFA83FC890903EB8303F2
:1024A800A7FB007EA0EB4300A5FB0173DB085209E4
:1024B80003EB8303A1EB4301A5FB0273DB0803EBEA
:1024C8008303A2EB4302A5FB0C73DB0803EB830336
:1024D800ACEB43034FEA5E3E00F1300C0EF1300ED8
:1024E800303230333031DBF8200084F84EE084F8A5
:1024F80053C084F8502084F8523084F84F10FDF708
:10250800C3FFC7A3D3E90023FDF760FE0022CA4B2F
:10251800FEF70EF8FEF7CEFA80B2A5FB0023A9FB62
:102528000021DB08A8FB0072C24F84F856A01FFAEE
:1025380083FC890903EB8303A7FB007EA0EB430020
:10254800A5FB0173DB08520903EB8303A1EB4301ED
:10255800A5FB0273DB0803EB8303A2EB4302A5FB95
:102568000C73DB0803EB8303ACEB43034FEA5E3EDB
:1025780000F1300C0EF1300E303230333031DBF8F0
:10258800240084F854E084F859C084F8572084F86B
:10259800583084F85510FDF777FFA3A3D3E900233B
:1025A800FDF714FE0022A24BFDF7C2FFFEF782FAE8
:1025B80080B2A5FB0023A9FB0021DB08A8FB007261
:1025C8009C4F84F85DA01FFA83FC890903EB830301
:1025D800A7FB007EA0EB4300A5FB0173DB085209B3
:1025E80003EB8303A1EB4301A5FB0273DB0803EBB9
:1025F8008303A2EB4302A5FB0C73DB0803EB830305
:10260800ACEB43034FEA5E3E00F1300C0EF1300EA6
:10261800303230333031DBF8380084F85AE084F84F
:102628005FC084F85C2084F85E3084F85B10FDF7A6
:102638002BFF7BA3D3E90023FDF7C8FD00227E4BC7
:10264800FDF776FFFEF736FA80B2A5FB0023A9FB5B
:102658000021DB08A8FB0072764F84F862A01FFAFD
:1026680083FC890903EB8303A7FB007EA0EB4300EF
:10267800A5FB0173DB08520903EB8303A1EB4301BC
:10268800A5FB0273DB0803EB8303A2EB4302A5FB64
:102698000C73DB0803EB8303ACEB43034FEA5E3EAA
:1026A80000F1300C0EF1300E303230333031DBF8BF
:1026B8003C0084F860E084F865C084F8632084F8FE
:1026C800643084F86110FDF7DFFE57A3D3E90023D7
:1026D800FDF77CFD0022564BFDF72AFFFEF7EAF9CD
:1026E80080B2A5FB0023A9FB0021DB08A8FB007230
:1026F800504F84F869A01FFA83FC890903EB830310
:10270800A7FB007EA0EB4300A5FB0173DB08520981
:1027180003EB8303A1EB4301A5FB0273DB0803EB87
:102728008303A2EB4302A5FB0C73DB0803EB8303D3
:10273800ACEB43034FEA5E3E00F1300C0EF1300E75
:10274800303230333031DBF8500084F866E084F8FA
:102758006BC084F8682084F86A3084F86710FDF745
:1027680093FE2FA3D3E90023FDF730FD324B00225F
:10277800FDF7DEFEFEF79EF982B2A9FB023CA8FB3C
:10278800021EA5FB02132B49CDF804B0DB08A1FB00
:10279800020198B203EB83034FEA5E1E4FEA9C1CCA
:1027A800A2EB43031F46A5FB0C32A5FB0EB3D208D0
:1027B800DB0802EB820203EB8303AEEB4303ACEBD3
:1027C8004202A5FB00EC4FEADC0C0CEB8C0C30321F
:1027D80084F86D20A0EB4C00184A84F86EA0490BD1
:1027E80007F1300E00F1300C3033303184F871E0ED
:1027F80084F870C0506D84F86F3084F86C10FDF761
:1028080043FE09A3D3E90023FDF7E0FC0022084BAF
:10281800084FFDF78DFEFEF74DF982B210E000BFBC
:10282800FCA9F1D24D62403F7B14AE47E17A743F78
:10283800000059405917B7D100408F4050F201208D
:10284800A5FB0213A9FB021EDB08A8FB02014FEA45
:102858009E1E98B203EB8303A7FB02BCA2EB4302C4
:10286800A5FB0EB3DB08490903EB8303AEEB430E6C
:10287800A5FB01B3DB0803EB8303A1EB4301A5FB35
:1028880000B3DB0803EB8303A0EB43034FEA5C3C94
:10289800019884F875A00CF1300C0EF1300E30322E
:1028A8003033303184F872C084F873E084F87720CC
:1028B80084F87630806E84F87410FDF7E5FDF2A395
:1028C800D3E90023FDF782FCF14B0022FDF730FE2F
:1028D800FEF7F0F880B2A5FB0032A9FB0039A8FB8F
:1028E8000038D2082E461FFA82FE4FEA99194FEA9D
:1028F8005818A5FB0913A5FB0815A6FB0EC1DB0894
:10290800ED08C908A7FB00C705EB850503EB8303A2
:1029180002EB820201EB8101AEEB4101A8EB450C11
:10292800A9EB4303A0EB4202DFF8709384F87AA086
:102938007F0B0CF1300C303330323037303184F8C3
:102948007BC084F8787084F8793084F87D20D9F8D1
:102958006C0084F87C10FDF797FDC9A3D3E9002328
:10296800FDF734FC0022CB4BDFF83483DFF834A3C7
:10297800FDF7DEFDFEF79EF8254680B2C64CA8FBA3
:10298800003EA4FB00314FEA9E1BA6FB0B2E4F090D
:10299800A6FB0023A6FB07214FEADE0EAAFB002CAC
:1029A800DB080EEB8E02C908ABEB420E01EB81018E
:1029B8009AB2A7EB4101A6FB02B7FF0807EB87070E
:1029C80003EB8303A0EB4303A2EB47024FEA5C3C13
:1029D8002E270CF1300C0EF1300E303330323031FE
:1029E80085F87EC085F87FE0D9F8800085F88220D8
:1029F80085F8833085F8801085F88170FDF744FDEF
:102A0800A1A3D3E90023FDF7E1FB0022A04BFDF7CA
:102A18008FFDFEF74FF882B2A6FB0213A8FB021047
:102A2800DB08A4FB021B1FFA83FE810903EB830367
:102A3800AAFB020CA2EB4303A6FB0102D2084FEA51
:102A48005B1B02EB8202A1EB4200A6FB0B12D20831
:102A580002EB8202ABEB4201A6FB0EB2D20802EBFC
:102A68008202AEEB42024FEA5C3C00F1300E0CF100
:102A7800300C30333032303185F884C085F885E049
:102A8800D9F8840085F8893085F8882085F886701B
:102A980085F88710FDF7F8FC79A3D3E90023FDF743
:102AA80095FB00227B4BFDF743FDFEF703F880B250
:102AB800A8FB002E4FEA9E11A6FB012EA4FB002BBB
:102AC8004FEADE0E4FEA5B1BA6FB0023AAFB002A97
:102AD8000EEB8E02A1EB420EA6FB0B12DB08D2080E
:102AE8001FFA83FC02EB8202ABEB4201A6FB0CB29D
:102AF800D20803EB830302EB8202ACEB4202A0EBA9
:102B080043034FEA5A3A0EF1300E303330320AF1AD
:102B1800300A303185F88BE0D9F8100085F88AA0A2
:102B280085F88F3085F88E2085F88D7085F88C10A3
:102B3800FDF7AAFC52A3D3E90023FDF747FB0022C7
:102B4800544BFDF7F5FCFDF7B5FF80B2A8FB002E4E
:102B58004FEA9E1CA6FB0023A6FB0C2EA4FB002A12
:102B6800DB084FEADE0E4FEA5A1A99B20EEB8E0EC8
:102B7800A6FB0AB2ACEB4E0EA6FB01BCD2084FEA8C
:102B8800DC0C0CEB8C0C02EB820203EB8303A1EB55
:102B98004C01AAEB4202A0EB43030EF1300E303297
:102BA8003033303185F890E0D9F8140085F8912059
:102BB80085F8943085F8927085F89310FDF764FCD9
:102BC8002FA3D3E90023FDF701FB0022314BFDF7CA
:102BD800AFFCFDF76FFF80B2A8FB002E4FEA9E1CEA
:102BE800A6FB0023A6FB0C2EA4FB002ADB084FEA59
:102BF800DE0E4FEA5A1A99B20EEB8E0EA6FB0AB2F7
:102C0800ACEB4E0EA6FB01BCD2084FEADC0C0CEB79
:102C18008C0C02EB820203EB8303A1EB4C01AAEBC1
:102C28004202A0EB43030EF1300E30323033303124
:102C380085F895E0D9F8280085F8962085F8993028
:102C480085F8977085F89810FDF71EFC0CA3D3E95A
:102C58000023FDF7BBFA00220E4BFDF769FCFDF7D8
:102C680029FF80B2A8FB002E4FEA9E1CA6FB00237A
:102C7800A6FB0C2EA4FB002ADB0815E0AFF30080AE
:102C88007B14AE47E17A743FFCA9F1D24D62403F14
:102C980000408F40000059401F85EB5150F2012041
:102CA800D34D62105917B7D14FEADE0E4FEA5A1AC0
:102CB80099B20EEB8E0EA6FB0AB2ACEB4E0EA6FB3B
:102CC80001BCD2084FEADC0C0CEB8C0C02EB820244
:102CD80003EB8303A1EB4C01AAEB4202A0EB4303F5
:102CE8000EF1300E30323033303185F89AE0D9F8B1
:102CF8002C0085F89C7085F89B2085F89E3085F817
:102D08009D10FDF7C1FBF0A3D3E90023FDF75EFAA0
:102D18000022EF4BFDF70CFCFDF7CCFE80B2A4FBC4
:102D28000031A8FB003C4FEA511E4FEA9C1CA6FB51
:102D38000023A6FB0C2AA6FB0E21DB084FEADA0AC1
:102D4800C9089AB20AEB8A0A01EB8101ACEB4A0C7A
:102D5800AEEB4101A6FB02AE4FEADE0E0EEB8E0E85
:102D680003EB8303A2EB4E02A0EB43030CF1300C00
:102D780030333032303185F89FC0D9F8400085F8BB
:102D8800A33085F8A22085F8A01085F8A170FDF77A
:102D98007BFBCDA3D3E90023FDF718FA0022CC4B27
:102DA800FDF7C6FBFDF786FE80B2A8FB002E4FEAB2
:102DB8009E1CA6FB0023A6FB0C2EA4FB002ADB0806
:102DC8004FEADE0E4FEA5A1A99B20EEB8E0EA6FBA8
:102DD8000AB2ACEB4E0EA6FB01BCD2084FEADC0CE3
:102DE8000CEB8C0C02EB820203EB8303A1EB4C018E
:102DF800AAEB4202A0EB43030EF1300E303230331F
:102E0800303185F8A4E0D9F8440085F8A52085F884
:102E1800A83085F8A67085F8A710FDF735FBAAA39A
:102E2800D3E90023FDF7D2F90022A94BFDF780FB77
:102E3800FDF740FE80B2A8FB002E4FEA9E1CA6FBC1
:102E48000023A6FB0C2EA4FB002ADB084FEADE0EAB
:102E58004FEA5A1A99B20EEB8E0EA6FB0AB2ACEBE9
:102E68004E0EA6FB01BCD2084FEADC0C0CEB8C0C16
:102E780002EB820203EB8303A1EB4C01AAEB4202B3
:102E8800A0EB43030EF1300E30323033303185F889
:102E9800A9E0D9F8580085F8AA2085F8AD3085F85A
:102EA800AB7085F8AC10FDF7EFFA87A3D3E90023E0
:102EB800FDF78CF90022864BFDF73AFBFDF7FAFD8A
:102EC80080B2A8FB002E4FEA9E1CA6FB0023A6FB9F
:102ED8000C2EA4FB002ADB084FEADE0E4FEA5A1A32
:102EE80099B20EEB8E0EA6FB0AB2ACEB4E0EA6FB09
:102EF80001BCD2084FEADC0C0CEB8C0C02EB820212
:102F080003EB8303A1EB4C01AAEB4202A0EB4303C2
:102F18000EF1300E30323033303185F8AEE0D9F86A
:102F28005C0085F8AF2085F8B23085F8B07085F878
:102F3800B110FDF7A9FA64A3D3E90023FDF746F918
:102F48000022634BFDF7F4FAFDF7B4FD80B2A8FB4D
:102F5800002E4FEA9E1CA6FB0023A6FB0C2EA4FB0A
:102F6800002ADB084FEADE0E4FEA5A1A99B20EEB36
:102F78008E0EA6FB0AB2ACEB4E0EA6FB01BCD20825
:102F88004FEADC0C0CEB8C0C02EB820203EB8303A4
:102F9800A1EB4C01AAEB4202A0EB43030EF1300E69
:102FA80030323033303185F8B3E0D9F8700085F825
:102FB800B42085F8B73085F8B57085F8B610FDF7F8
:102FC80063FA41A3D3E90023FDF700F90022404B3F
:102FD800FDF7AEFAFDF76EFD80B2A8FB002E4FEAB2
:102FE8009E1CA6FB0023A6FB0C2EA4FB002ADB08D4
:102FF8004FEADE0E4FEA5A1A99B20EEB8E0EA6FB76
:103008000AB2ACEB4E0EA6FB01BCD2084FEADC0CB0
:103018000CEB8C0C02EB820203EB8303A1EB4C015B
:10302800AAEB4202A0EB43030EF1300E30323033EC
:10303800303185F8B8E0D9F8740085F8BA7085F8A9
:10304800B92085F8BC3085F8BB10FDF71DFA1EA322
:10305800D3E90023FDF7BAF800221D4BFDF768FA03
:10306800FDF728FD80B2A4FB0031A8FB003C4FEA25
:10307800511E4FEA9C1CA6FB0023A6FB0C2AA6FBAC
:103088000E21DB084FEADA0AC9089AB20AEB8A0A63
:1030980001EB8101ACEB4A0CAEEB4101A6FB02AEA1
:1030A8004FEADE0E0EEB8E0E03EB8303A2EB4E020D
:1030B800A0EB43030CF1300C30333032303185F85B
:1030C800BDC085F8C13005E07B14AE47E17A743F96
:1030D8000000594085F8C02085F8BE1085F8BF70FB
:1030E800D9F88800FDF7D0F949A3D3E90023FDF703
:1030F8006DF80022484BFDF71BFAFDF7DBFC80B2A8
:10310800A8FB002E4FEA9E1CA6FB0023A6FB0C2E54
:10311800A4FB002ADB084FEADE0E4FEA5A1A99B2DE
:103128000EEB8E0EA6FB0AB2ACEB4E0EA6FB01BC54
:10313800D2084FEADC0C0CEB8C0C02EB820203EB9E
:103148008303A1EB4C01AAEB4202A0EB43030EF16F
:10315800300E30323033303185F8C2E085F8C32084
:1031680085F8C630D9F88C0085F8C47085F8C51084
:10317800FDF78AF926A3D3E90023FDF727F80022F3
:10318800254BFDF7D5F9FDF795FC80B2A6FB00238A
:10319800A8FB0028A4FB0024DB089AB24FEA981881
:1031A8006409A6FB081EA6FB04C1A6FB02C64FEADB
:1031B800DE0EC908F6080EEB8E0E01EB810103EB5B
:1031C800830306EB8606A8EB4E08A4EB4104A2EBAA
:1031D8004606A0EB430008F1300830343036303072
:1031E8000A210D22002385F8C97085F8C78085F863
:1031F800C84085F8CA6085F8CB0085F8CC1085F8FA
:10320800CD2085F8CE3003B0BDE8F08FAFF3008055
:103218007B14AE47E17A743F00005940CF21014842
:1032280000F0C6B980F1012038B500F01BFB0A4A4E
:103238000A4B12689A4200D0FEE7094B094A00215E
:1032480041F6A115F02407205D6082F823409960BB
:10325800186082F8231038BD10000020007A030A95
:1032680010E000E000ED00E0094B0A4A0021196077
:1032780013680133136013F0010F074B0CBF41F6BD
:10328800A11241F6A2125A60014B01221A6070473E
:10329800A40242424CF1012010E000E0014B186802
:1032A800704700BF4CF101201F49204A0B6B43F4C3
:1032B80000130B631368D90706D5136823F00103BD
:1032C80013601368DB07FCD4184B19491A6822F0FD
:1032D80060621A601A6842F000621A601A6842F462
:1032E80040321A601A6822F0C0021A601A6842F066
:1032F80040021A601A6822F4C0421A601A6822F45E
:10330800C0521A605A6942F004025A615A6942F07E
:1033180003025A611A6842F480621A601A6842F01D
:1033280010021A609960704700380240A06002409D
:10333800044400402149224A0B6B43F4001310B4A3
:103348000B631368D90706D5136823F001031360CC
:103358001368DB07FCD41A4B1A481A681A4922F07A
:1033680060621A601A6842F000621A601A6842F4D1
:1033780040321A601A6822F0C0021A601A6822F4F1
:10338800C0421A601A6822F4C0521A605A6942F0A0
:1033980004025A615A6942F003025A611A6842F4F7
:1033A80080621A601A68142442F010021A60986049
:1033B800D9605C605DF8044B704700BF003802407C
:1033C800886002400444004068F1012029492A4AE3
:1033D800086B38B540F00100284B08631868284C82
:1033E80020F0F00018601868002540F0A000186070
:1033F8002560186A40F4E0601862186A40F4E040FA
:103408001862986820F030009860986840F01000C2
:103418009860D86820F0F000D860D868D8600B6C45
:1034280043F400330B649389C3F30E0393819389A8
:103438009BB243F480539381138A23F440531B04B3
:103448001B0C138293899BB243F480639381938905
:103458009BB243F400739381938A9BB243F4006355
:1034680040F26D1193821181FFF71EFFBDE83840CD
:10347800FFF760BF003802400044004000000240EF
:10348800880040421A4B1B489A891B4992B242F461
:10349800005210B49A819A8992B242F008029A8135
:1034A8009A8992B242F004029A819A8992B242F0C1
:1034B80020029A819A8992B242F480729A819A89FA
:1034C80092B242F010029A819A8A92B242F0800235
:1034D8009A829A8A92B24FF4746442F040029A82B5
:1034E800C4600B685DF8044B43F001030B60704740
:1034F800004400400060024088600240104A13887F
:10350800D8070FD40E4B1A8892060AD50D489B8807
:103518000D4A0E49037001230B70136823F0010351
:103528001360704713889906FCD5084B06499288A2
:1035380002221A700B6823F001030B60E2E700BF58
:103548000044004065F10120886002407DF10120BF
:10355800034B5A68920244BF4FF47412DA60704702
:103568000060024008B50D4B5B681B0515D50C4A79
:103578000C4B5268C2F11402D2B21A701AB10A493D
:103588000A4800F0CBF9054B054A4FF47461D9603D
:10359800136843F00103136008BD08BD00600240D2
:1035A800886002407CF1012068F1012050F101207F
:1035B80068B1074A1368DB07FCD4064BD0604FF4A8
:1035C80074105160D860136843F0010313607047AA
:1035D800A0600240006002400D4A08B5D2F8883069
:1035E80043F47003C2F88830BFF34F8FBFF36F8F77
:1035F800FFF71AFEFEF7FCF8FDF7F8FFFEF7FAF9F9
:10360800FFF7E4FEFEF72EFA62B6FFF73BFFFEE790
:1036180000ED00E0DFF838D072B6002103E00D4B72
:103628005B58435004310C480C4B42189A42F6D36D
:103638000B4A02E0002342F8043B0A4B9A42F9D3B2
:1036480000F088F800F046F9FFF7C6FF7047000061
:1036580000000220484C0008000000201400002050
:1036680014000020F8F20120FEE70000704700BFB8
:10367800FEE700BFFEE700BFFEE700BFFEE700BFB2
:10368800704700BF704700BF704700BF08B5FFF71D
:10369800EBFDBDE80840FFF701BE00BF08B50120FB
:1036A800FDF788FF00B908BD064A13780133DBB27D
:1036B80018461370FEF798F90120BDE80840FDF799
:1036C80087BF00BF7EF1012008B50220FDF772FF19
:1036D80000B908BDFEF7BCFAFFF7A0FD0220BDE85F
:1036E8000840FDF775BF00BF10B54FF40060FDF747
:1036F80061FF04464FF48050FDF75CFF204310F053
:10370800FF0F00D110BDFEF7AFF94FF40060FDF7D1
:103718005FFF4FF48050BDE81040FDF759BF00BF70
:1037280010B5084C23689B0605D401210C20BDE880
:103738001040FEF73DB900210D20FEF739F920238E
:10374800A36010BD00640240FFF70CBFFFF700BF85
:10375800FFF7D4BE3C4B3D481A68002142F00102F5
:103768001A6099601A6822F0847222F480321A6012
:1037780058601A6882B022F480221A60D9600091D9
:1037880001911A6842F480321A601A4603E0009BDD
:10379800B3F5A06F09D0136803F400330193009BBD
:1037A80001330093019B002BF1D0274B1B6813F4C6
:1037B800003318BF01230193019B012B14D0224A27
:1037C8002349936823F400039360C2F884101368B4
:1037D80043F08063136013681B01FCD51D4B4FF049
:1037E80000629A6002B07047174B1B491A6C1B485D
:1037F80042F080521A640A6842F440420A609A68A9
:103808009A609A6842F400429A609A6842F4A05218
:103818009A6058601A6842F080721A601A689201B9
:10382800FCD50F49084A40F205600860996821F004
:1038380003019960996841F002019960936803F067
:103848000C03082BFAD1BAE70038024010300024E4
:103858000030005000ED00E00070004008544007C0
:10386800003C0240164A936803F00C03042B24D052
:10387800082B0AD0134B124A134892681349C2F313
:103888000312825CD3400B607047506851685268DD
:103898004302C2F3881201F03F014CBF0C4B094BA5
:1038A800B3FBF1F303FB02F3054A5268C2F301428A
:1038B80001325200B3FBF2F3DDE7054BDBE700BF53
:1038C800003802400024F40000000020100000200E
:1038D80000127A0070B50D4E0D4CA41BA4100025E3
:1038E800A54209D10B4E0C4C01F0AEF8A41BA41054
:1038F8000025A54205D170BD56F8253098470135F9
:10390800EEE756F8253098470135F2E7404C0008B5
:10391800404C0008404C0008444C000810B5431EB9
:103928000A44914200D110BD11F8014B03F8014F30
:10393800F7E70000000000001FB551EC100B1E4A0D
:1039480021F00043934206DC9FED191B00F074FA46
:1039580051EC100B07E0194A934209DD10EE102ACA
:103968000B46FCF731FC41EC100B05B05DF804FB8D
:10397800684600F06DF800F0030001289DED021B79
:103988009DED000B07D002280ED00028DED00120C4
:1039980000F08AFEDCE700F087FE53EC102B10EEF7
:1039A800100A03F10041DEE700F046FAF5E700BF30
:1039B8000000000000000000FB21E93FFFFFEF7F4F
:1039C8001FB551EC100B204A21F00043934207DC4D
:1039D8009FED1B1B002000F067FE51EC100B07E069
:1039E8001A4A934209DD10EE102A0B46FCF7ECFB4D
:1039F80041EC100B05B05DF804FB684600F028F8B0
:103A080000F0030001289DED021B9DED000B04D082
:103A1800022805D070B90120DDE700F00DFADCE7D7
:103A2800012000F041FE53EC102B10EE100A03F1B8
:103A38000041DDE700F000FAF5E700BFAFF30080D2
:103A48000000000000000000FB21E93FFFFFEF7FBE
:103A58002DE9F04F57EC106BC34B8DB027F00048A1
:103A680098450446049707DC0022002384ED000BE8
:103A7800C0E90223002527E0BC4B984575DC049B70
:103A8800BB4D002B10EE100AA9A3D3E90023394639
:103A980036DDFCF799FBA84506460F4618D0A6A3C5
:103AA800D3E90023FCF790FB02460B46C4E9002348
:103AB80030463946FCF788FB9FA3D3E90023FCF77F
:103AC80083FBC4E90201012528460DB0BDE8F08F4B
:103AD8009BA3D3E90023FCF777FB9BA3D3E900233F
:103AE80006460F46FCF770FB02460B46C4E9002366
:103AF80030463946FCF768FB93A3D3E90023DEE799
:103B0800FCF764FBA84506460F4616D08AA3D3E9FE
:103B18000023FCF75BFB02460B46C4E90023304652
:103B28003946FCF751FB84A3D3E90023FCF74EFB8D
:103B38004FF0FF35C4E90201C6E781A3D3E90023AA
:103B4800FCF744FB80A3D3E9002306460F46FCF7A5
:103B58003DFB02460B46C4E9002330463946FCF7D4
:103B680033FB79A3D3E90023E0E7824B984500F3C0
:103B7800D08000F053FE57EC106B10EE100A74A3BF
:103B8800D3E900233946FCF7D3FC00227A4BFCF733
:103B98001DFBFCF767FF0546FCF764FC64A3D3E94B
:103BA8000023CDE90201FCF7C3FC02460B46304670
:103BB8003946FCF709FB60A3D3E9002382468B460C
:103BC800DDE90201FCF7B4FC1F2D06460F462ADC8E
:103BD8006A1E6A4B53F82230984524D032463B4639
:103BE80050465946FCF7F0FAC4E90001D4E90089C7
:103BF800504642464B465946FCF7E6FA3B463246A3
:103C0800FCF7E2FA049B002BC4E90201BFF65CAFA3
:103C180009F100436360C4F80080A06001F100432B
:103C2800E3606D4250E732463B4650465946FCF742
:103C3800CBFA4FEA2852C1F30A53D31A102BC4E91E
:103C480000010592D2DD3EA3D3E90023DDE902019C
:103C5800FCF76EFC06460F4602460B465046594690
:103C6800FCF7B2FA02460B4680468946504659464A
:103C7800FCF7AAFA32463B46FCF7A6FA32A3D3E988
:103C8800002306460F46DDE90201FCF751FC3246E7
:103C98003B46FCF799FA02460B4606460F46404655
:103CA8004946FCF791FA059AC1F30A53D31A312B06
:103CB800C4E900012ADD28A3D3E90023DDE90201D4
:103CC800FCF736FC06460F4602460B464046494678
:103CD800FCF77AFA02460B4682468B46404649462E
:103CE800FCF772FA32463B46FCF76EFA1CA3D3E99E
:103CF800002306460F46DDE90201FCF719FC3246AF
:103D08003B46FCF761FA06460F4667E7C246CB46D4
:103D18006CE71B4B984535DD10EE102A3B463046C4
:103D28003946FCF751FAC4E90201C4E90001A1E6E9
:103D380000004054FB21F93F3163621A61B4D03D61
:103D48000000601A61B4D03D7370032E8A19A33B3A
:103D580083C8C96D305FE43F0000002E8A19A33B79
:103D6800C14920259A837B39FB21E93F7BD9024051
:103D7800FB21F93FFB2139410000E03F684A000878
:103D8800FFFFEF7F4FEA2855A5F21645A8EB05512E
:103D980030460F46FCF766FEFCF764FB02460B460E
:103DA80030463946CDE90623FCF70EFA00221F4BB0
:103DB800FCF7BEFB0F460646FCF754FEFCF752FB29
:103DC80002460B4630463946CDE90823FCF7FCF994
:103DD8000022164BFCF7ACFBCDE90A010DF13009C6
:103DE8004FF003080026002732463B4679E90201D6
:103DF80008F1FF3AFCF704FEB0B90D4B019302231A
:103E080000932A464346214606A800F0FDF8049B85
:103E1800002B0546BFF658AE636803F100436360A4
:103E2800E36803F10043FBE6D046DDE7000070419C
:103E3800E84A0008000000002DE9F04F59EC108B0B
:103E480029F0004785B0B7F1795F8DED001B07DADF
:103E580010EE100A4946FCF705FE002800F0AA807B
:103E680042464B4640464946FCF762FB59A3D3E914
:103E7800002304460D46FCF75BFB58A3D3E9002357
:103E8800FCF7A4F922462B46FCF752FB55A3D3E9CD
:103E98000023FCF799F922462B46FCF749FB53A36C
:103EA800D3E90023FCF792F922462B46FCF740FBA6
:103EB80050A3D3E90023FCF787F922462B46FCF7E9
:103EC80037FB4EA3D3E90023FCF780F92B462246A3
:103ED800FCF72EFB3A4B9F4282468B462CDC002295
:103EE800384B20462946FCF723FB524606460F4628
:103EF8005B4620462946FCF71BFBDDE90023044608
:103F08000D4640464946FCF713FB02460B46204641
:103F18002946FCF759F902460B4630463946FCF764
:103F280053F90B46284902460020FCF74DF941ECAD
:103F3800100B05B0BDE8F08F244B23499F42D7BF33
:103F4800A7F50013224F00221646D4BF1F460026AD
:103F580032463B460020FCF737F90022CDE9020142
:103F6800184B20462946FCF7E3FA32463B46FCF755
:103F78002BF9524606460F465B4620462946FCF773
:103F8800D7FADDE9002304460D4640464946FCF7CA
:103F9800CFFA02460B4620462946FCF715F9024699
:103FA8000B4630463946FCF70FF902460B46DDE969
:103FB8000201BAE700200449B9E700BFAFF3008067
:103FC8003233D33F0000E03F0000F03F0000E93FFC
:103FD8000000D23FD43888BEE9FAA8BDC4B1B4BD48
:103FE8009EEE213EAD529C804F7E923E9015CB199D
:103FF800A001FA3E7751C1166CC1563F4C55555534
:104008005555A53F000000002DE9F04F2DED028B1E
:10401800ADF5197DD41E06930291C34BA49909905E
:1040280053F821300093069B013B0493182394FB1B
:10403800F3F46FF0170324EAE47404FB033303EB8F
:10404800020A009B049A9FEDB48B03EB0208A59B20
:10405800A71A20AE03EB87090025454513DD9FED20
:10406800AE8B0DF5E07B0026009B9E4232DC099B5F
:104078000393069B9D1920AB03EBC503089359ECEA
:10408800188B00271FE0EF4207D459F82500FCF7EA
:10409800E9F9E6E802010135DFE751EC180BF8E72A
:1040A8000899039D71E902230891F5E80201039537
:1040B800FCF73EFA02460B4640464946FCF786F8AE
:1040C800013780468946049B9F42E9DDEBE8028977
:1040D8000136C9E7009B009F0CAA02EB83030B93F0
:1040E800A59B03EB84030A9398AB07F1005B03EBF2
:1040F800C7030BF1FF3B53E928894FEACB03089329
:10410800089A98AB1344A3F1980B0026BB1B002B0D
:1041180077DC49EC108B504600F00EFC55EC104B48
:1041280000224FF07F5310EE100A2946FCF700FAE0
:1041380041EC100B00F07CFB002251EC100B7B4B88
:10414800FCF7F6F902460B4620462946FCF73CF8F0
:104158000D460446FCF786FC0390FCF783F90246FB
:104168000B4620462946FCF72FF8BAF1000F804687
:1041780089466BDD7A1E0CABCAF1180153F8220090
:10418800039C40FA01F31C448B40C01A0CAB039407
:1041980043F82200CAF1170340FA03FBBBF1000FF2
:1041A80062DD039B00220133039314466FF07F41C5
:1041B800974200F38980BAF1000F07DDBAF1010FC9
:1041C80000F09680BAF1020F00F09C80BBF1020F5C
:1041D8004AD142464B4600205549FBF7F5FF804639
:1041E8008946002C40D050469FED4D0B00F0A4FBB3
:1041F8004046494653EC102BFBF7E6FF80468946BC
:1042080032E000224B4B40464946FCF791F9FCF757
:1042180029FCFCF727F90022474B04460D46FCF71A
:1042280087F902460B4640464946FBF7CDFFFCF7A7
:1042380019FC0CAB294643F826007BE902232046EB
:10424800FBF7C4FF0136804689465FE706D17B1E2F
:104258000CAA52F823004FEAE05B9FE70022374B95
:10426800FCF7ECFB68BB8346002200234046494626
:10427800FCF7C6FB002800F0C1807C1E2346002204
:1042880000998B425CDA002A40F08B8001246FF0A1
:10429800030202FB04F30B99CB58002B56D0089B62
:1042A80098AA1344A3F1900B069BDD1920AB03EBEE
:1042B800C505E3197E1C0393039B9E4248DD1F46F8
:1042C80012E74FF0020B6CE70CAB53F822304CB9F5
:1042D8002BB10CA8C3F1807340F8223001230132BE
:1042E8001C4665E70CA8CB1A40F822302346F6E7AF
:1042F8007A1E0CAB53F82230C3F316030CA941F80D
:10430800223063E77A1E0CAB53F82230C3F315034F
:10431800F4E700BFAFF300800000000000000000D9
:10432800000000000000F03F304C00080000204072
:104338000000F03F0000703E000070410000E03FC8
:104348000CA951F82310013B0A4399E70134A0E76F
:104358000A9B53F82600FCF785F8E5E80201099B5B
:1043680008951C4600274FF000084FF00009049BF1
:104378009F4203DDEBE8028901369DE7089971E960
:1043880002230891F4E80201FCF7D2F802460B4632
:1043980040464946FBF71AFF013780468946E6E75B
:1043A800013C0CABAAF1180A53F82430002BF7D0C3
:1043B80050469FEDB50B00F0BFFAE50098AB03EB54
:1043C800050957EC106BA9F19809A046B8F1000F40
:1043D8004DDA9FEDAF8B0DF5907A00230493574685
:1043E800049BB4EB030976D4AB4B1E4670AB03EBCE
:1043F800C9098DED068B4FF000085EE0CAF1000098
:1044080049EC108B00F098FA55EC104B0022A34BA6
:1044180010EE100A2946FCF711FBF8B10022A04B58
:1044280020462946FCF784F8FCF71CFB0646FCF7F7
:1044380019F80022994BFCF77BF80B4602462946EF
:104448002046FBF7C1FEFCF70DFB7C1C0CAB0AF108
:10445800180A43F8270043F82460A9E720462946AC
:10446800FCF700FB0CAB3C4643F82700A0E70CAB7D
:1044780053F82800FBF7F6FF32463B46FCF758F89E
:10448800002269E90201864B30463946FCF750F8AC
:1044980008F1FF3806460F4698E7F9E80223F6E8E0
:1044A8000201FCF745F802460B46DDE90601FBF779
:1044B8008DFECDE9060108F10108009B984502DC54
:1044C800049B9845E9DD049B9DED067B0133AAEC2E
:1044D800027B049384E7A49B032B5DD8DFE803F0F9
:1044E8004B26260298AB1D44A5F59C752E46A24680
:1044F800BAF1000F6EDC2E46A246BAF1010F00F3A6
:104508008A8000200021012C00F3A680BBF1000F57
:1045180040F0A880DDE94823029CC4E90023DDE9D6
:104528004A23C4E90401C4E9022335E0083548AB4D
:104538001D44264600200021002E3CDABBF1000F66
:104548003FD0024601F10043029DC5E9002302461F
:104558000B46DDE94801FBF737FE4AAE0125AC42C0
:1045680032DABBF1000F02D001F100431946029B79
:10457800C3E9020110E098AB1D44A5F59C75002025
:104588000021002C11DABBF1000F02D001F1004329
:104598001946029BC3E90001039B03F007000DF5D0
:1045A800197DBDEC028BBDE8F08F75E90223FBF79E
:1045B8000DFE013CE5E775E90223FBF707FE013E26
:1045C800BAE702460B46BFE7F6E80223FBF7FEFD13
:1045D8000135C4E716ED027B56E9048953EC172B25
:1045E800404649468DED007BFBF7F0FDCDE904011F
:1045F80002460B4640464946FBF7E6FDDDE9002347
:10460800FBF7E4FD9DED047B66E902010AF1FF3A40
:1046180006ED027B6CE716ED027B56E9048953EC44
:10462800172B404649468DED007BFBF7CFFDCDE9C2
:10463800040102460B4640464946FBF7C5FDDDE945
:104648000023FBF7C3FD9DED047B66E902010AF137
:10465800FF3A06ED027B50E775E90223FBF7B6FD4A
:10466800013C50E7029A3B6813607B68106103F1D4
:1046780000435360BB689360FB6803F10043D36059
:1046880001F10043536187E7000000000000F03F9C
:104698000000000000000000F04B0008000070411E
:1046A8000000703E000000002DE9F04F55EC104B63
:1046B80085B025F00043B3F1795F8DED001B0290C2
:1046C80006DA10EE100A2946FCF7CCF9002851D07A
:1046D80022462B4620462946FBF72AFF82468B4670
:1046E80002460B4620462946FBF722FF41A3D3E9A1
:1046F80000238046894650465946FBF719FF3FA3D9
:10470800D3E90023FBF760FD52465B46FBF710FF39
:104718003CA3D3E90023FBF759FD52465B46FBF760
:1047280007FF3AA3D3E90023FBF74EFD52465B4649
:10473800FBF7FEFE37A3D3E90023FBF747FD029BF7
:1047480006460F46DBB902460B4650465946FBF76C
:10475800EFFE25A3D3E90023FBF736FD42464B467F
:10476800FBF7E6FE02460B4620462946FBF72EFDE0
:1047780004460D4645EC104B05B0BDE8F08F00220D
:104788001B4BDDE90001FBF7D3FE3246CDE9020100
:104798003B4640464946FBF7CBFE02460B46DDE961
:1047A8000201FBF711FD52465B46FBF7C1FEDDE94E
:1047B8000023FBF709FD0CA3D3E9002306460F46A7
:1047C80040464946FBF7B4FE02460B46304639469A
:1047D800FBF7FCFC02460B4620462946FBF7F4FC97
:1047E800C6E700BFAFF30080495555555555C53F3D
:1047F8000000E03F7CD5CF5A3AD9E53DEB9C2B8AA7
:10480800E6E55A3E7DFEB157E31DC73ED561C119A5
:10481800A0012A3FA6F810111111813F53EC102B6B
:1048280023F0004343EC102B704700000000000009
:1048380051EC100B2DE9F041C1F30A57A7F2FF36EE
:10484800132E10EE108A0C4610EE105A35DC002E8E
:1048580017DA35A3D3E90023FBF7B8FC00220023BD
:10486800FCF7F6F850B1002C5ADA24F0004353EA6A
:1048780008032F4B4FF0000518BF1C462146284659
:1048880025E02C4F374101EA070303431FD026A335
:10489800D3E90023FBF79AFC00220023FCF7D8F8A1
:1048A8000028EBD0002CBEBF4FF4801343FA06F665
:1048B800A41924EA07040025E0E7332E0BDDB6F53A
:1048C800806F04D110EE102A0B46FBF77FFC41ECF9
:1048D800100BBDE8F081A7F213474FF0FF3323FA1E
:1048E80007F73842F3D010A3D3E90023FBF76EFC97
:1048F80000220023FCF7ACF80028BFD0002C02DA15
:10490800142E03D1013425EA0705B7E70123C6F1C0
:10491800340603FA06F63544A84588BFE418F2E7DA
:1049280000252C46AAE700BF9C7500883CE4377E2A
:104938000000F0BFFFFF0F0070B555EC104BC5F33A
:104948000A5206462B46B2B925F0004323433CD011
:104958000022334B294610EE100AFBF7E9FD314AD5
:10496800964204460D460B4613DA29A3D3E90023E1
:10497800FBF7DEFD0AE040F2FF718A420CD110EE2F
:10498800102A2B4620462946FBF720FC04460D46F4
:104998001BE0C1F30A52363A324440F2FE718A42B1
:1049A8000BDD45EC114B9FED1C0B00F03FF81AA3F3
:1049B800D3E9002351EC100BDAE7002A08DD23F0D5
:1049C800FF4323F4E00343EA025545EC104B70BD66
:1049D80012F1350F0DDA4CF250339E4245EC114B73
:1049E800E1DC9FED0B0B00F021F809A3D3E90023CC
:1049F800E0E723F0FF43363223F4E00343EA0255AD
:104A0800204629460022084BB2E700BFAFF30080DA
:104A180059F3F8C21F6EA5019C7500883CE4377EE7
:104A280000005043B03CFFFF0000903C53EC102BBB
:104A380011EE900A23F0004100F0004041EA000323
:104A480043EC102B70470000F8B500BFF8BC08BC59
:104A58009E467047F8B500BFF8BC08BC9E46704734
:104A6800FB21F93FFB2109407CD91240FB21194069
:104A78007A6A1F407CD92240BBFD2540FB21294092
:104A88003A462C407A6A2F405C4731407CD9324004
:104A98009C6B3440BBFD3540DB8F3740FB213940F0
:104AA8001BB43A403A463C405AD83D407A6A3F40A7
:104AB8004C7E40405C4741406C1042407CD94240AB
:104AC8008CA243409C6B4440AC344540BBFD454000
:104AD800CBC64640DB8F4740EB584840FB21494056
:104AE80083F9A200444E6E00FC291500D157270017
:104AF800DD34F50062DBC0003C999500419043002D
:104B08006351FE00BBDEAB00B761C5003A6E2400FE
:104B1800D24D42004906E00009EA2E001C92D1005D
:104B2800EB1DFE0029B11C00E83EA700F535820008
:104B380044BB2E009CE98400B4267000417E5F00CF
:104B4800D6913900538339009CF439008B5F840077
:104B580028F9BD00F81F3B00DEFF97000F980500FD
:104B6800112FEF000A5A8B006D1F6D00CF7E3600A3
:104B780009CB2700464FB7009E663F002DEA5F002D
:104B8800BA277500E5EBC7003D7BF100F739070050
:104B980092528A00FB6BEA001FB15F00085D8D002E
:104BA800300356007BFC4600F0AB6B0020BCCF0006
:104BB80036F49A00E3A91D005E619100081BE60027
:104BC80085996500A0145F008D40680080D8FF00BB
:104BD80027734D0006063100CA561500C9A8730090
:104BE8007BE260006B8CC00000000040FB21F93FB5
:104BF800000000002D44743E000000809846F83CF8
:104C08000000006051CC783B00000080831BF03925
:104C18000000004020257A38000000802282E33618
:104C2800000000001DF369350200000003000000C9
:084C380004000000060000006A
:044C4000AD010008BA
:044C440089010008DA
:104C48000000000000000000010203040607080934
:044C5800007A030AD1
:040000050800361D9C
:00000001FF
