:020000040800F2
:1000000000000220353100088D31000891310008D0
:1000100095310008993100089D310008000000006A
:10002000000000000000000000000000A1310008F6
:10003000A531000800000000A9310008AD3100081A
:1000400089310008893100088931000889310008A8
:100050008931000889310008BD310008E931000804
:100060008931000889310008893100088931000888
:100070008931000889310008893100088931000878
:10008000693200086D3200088931000889310008A2
:100090008931000889310008893100088931000858
:1000A0008931000889310008893100088931000848
:1000B0008931000889310008893100088931000838
:1000C0008931000889310008893100088931000828
:1000D000893100088931000871320008893100082F
:1000E0000932000889310008893100088931000887
:1000F00089310008893100088931000889310008F8
:1001000089310008893100088931000889310008E7
:1001100089310008893100088931000889310008D7
:10012000413200088931000889310008893100080E
:1001300089310008893100088931000889310008B7
:1001400089310008893100088931000889310008A7
:100150008931000889310008893100088931000897
:100160008931000889310008893100088931000887
:100170008931000889310008893100088931000877
:080180008931000889310008F3
:1001880010B5054C237833B9044B13B10448AFF3C9
:1001980000800123237010BD14000020000000001F
:1001A8006845000808B5034B1BB103490348AFF382
:1001B800008008BD00000000180000206845000805
:1001C80081F0004102E000BF83F0004330B54FEA00
:1001D80041044FEA430594EA050F08BF90EA020F6D
:1001E8001FBF54EA000C55EA020C7FEA645C7FEA00
:1001F800655C00F0E2804FEA5454D4EB5555B8BF23
:100208006D420CDD2C4480EA020281EA030382EA93
:10021800000083EA010180EA020281EA0303362D25
:1002280088BF30BD11F0004F4FEA01314FF4801CF8
:100238004CEA113102D0404261EB410113F0004F0A
:100248004FEA03334CEA133302D0524263EB4303C1
:1002580094EA050F00F0A780A4F10104D5F1200E5F
:100268000DDB02FA0EFC22FA05F2801841F10001BA
:1002780003FA0EF2801843FA05F359410EE0A5F18E
:1002880020050EF1200E012A03FA0EFC28BF4CF0BF
:10029800020C43FA05F3C01851EBE37101F0004575
:1002A80007D54FF0000EDCF1000C7EEB00006EEB82
:1002B8000101B1F5801F1BD3B1F5001F0CD349080C
:1002C8005FEA30004FEA3C0C04F101044FEA445263
:1002D80012F5800F80F09A80BCF1004F08BF5FEAEA
:1002E800500C50F1000041EB045141EA050130BDCA
:1002F8005FEA4C0C404141EB010111F4801FA4F16D
:100308000104E9D191F0000F04BF01460020B1FAC1
:1003180081F308BF2033A3F10B03B3F120020CDAF9
:100328000C3208DD02F1140CC2F10C0201FA0CF0D7
:1003380021FA02F10CE002F11402D8BFC2F1200C3C
:1003480001FA02F120FA0CFCDCBF41EA0C019040F2
:10035800E41AA2BF01EB0451294330BD6FEA04043B
:100368001F3C1CDA0C340EDC04F11404C4F1200226
:1003780020FA04F001FA02F340EA030021FA04F338
:1003880045EA030130BDC4F10C04C4F1200220FA8F
:1003980002F001FA04F340EA0300294630BD21FACD
:1003A80004F0294630BD94F0000F83F4801306BF93
:1003B80081F480110134013D4EE77FEA645C18BF87
:1003C8007FEA655C29D094EA050F08BF90EA020F1E
:1003D80005D054EA000C04BF1946104630BD91EA16
:1003E800030F1EBF0021002030BD5FEA545C05D119
:1003F8004000494128BF41F0004130BD14F5800458
:100408003CBF01F5801130BD01F0004545F0FE41CB
:1004180041F470014FF0000030BD7FEA645C1ABF00
:10042800194610467FEA655C1CBF0B46024650EA37
:10043800013406BF52EA033591EA030F41F4002163
:1004480030BD00BF90F0000F04BF0021704730B5E9
:100458004FF4806404F132044FF000054FF00001BE
:1004680050E700BF90F0000F04BF0021704730B57F
:100478004FF4806404F1320410F0004548BF404254
:100488004FF000013EE700BF42004FEAE2014FEAA9
:1004980031014FEA02701FBF12F07F4393F07F4F84
:1004A80081F06051704792F0000F14BF93F07F4FB6
:1004B800704730B54FF4607401F0004521F00041F9
:1004C80020E700BF50EA010208BF704730B54FF07F
:1004D80000050AE050EA010208BF704730B511F084
:1004E800004502D5404261EB41014FF4806404F1BC
:1004F80032045FEA915C3FF4DCAE4FF003025FEA3E
:10050800DC0C18BF03325FEADC0C18BF033202EBC5
:10051800DC02C2F1200300FA03FC20FA02F001FA1F
:1005280003FE40EA0E0021FA02F11444C1E600BFBE
:1005380070B54FF0FF0C4CF4E06C1CEA11541DBF71
:100548001CEA135594EA0C0F95EA0C0F00F0DEF83C
:100558002C4481EA030621EA4C5123EA4C5350EA21
:10056800013518BF52EA033541F4801143F4801372
:1005780038D0A0FB02CE4FF00005E1FB02E506F003
:100588000042E0FB03E54FF00006E1FB03569CF058
:10059800000F18BF4EF0010EA4F1FF04B6F5007F5E
:1005A80064F5407404D25FEA4E0E6D4146EB0606D0
:1005B80042EAC62141EA55514FEAC52040EA5E5059
:1005C8004FEACE2EB4F1FD0C88BFBCF5E06F1ED803
:1005D800BEF1004F08BF5FEA500E50F1000041EB3A
:1005E800045170BD06F0004646EA010140EA0200E7
:1005F80081EA0301B4EB5C04C2BFD4EB0C0541EA09
:10060800045170BD41F480114FF0000E013C00F31D
:10061800AB8014F1360FDEBF002001F0004170BD41
:10062800C4F10004203C35DA0C341BDC04F114045A
:10063800C4F1200500FA05F320FA04F001FA05F2E6
:1006480040EA020001F0004221F0004110EBD370B3
:1006580021FA04F642EB06015EEA430E08BF20EADF
:10066800D37070BDC4F10C04C4F1200500FA04F382
:1006780020FA05F001FA04F240EA020001F0004114
:1006880010EBD37041F100015EEA430E08BF20EA87
:10069800D37070BDC4F1200500FA05F24EEA020ECF
:1006A80020FA04F301FA05F243EA020321FA04F0FE
:1006B80001F0004121FA04F220EA020000EBD370B5
:1006C8005EEA430E08BF20EAD37070BD94F0000FB5
:1006D8000FD101F00046400041EB010111F4801FE9
:1006E80008BF013CF7D041EA060195F0000F18BF9A
:1006F800704703F00046520043EB030313F4801FD6
:1007080008BF013DF7D043EA0603704794EA0C0F8F
:100718000CEA135518BF95EA0C0F0CD050EA4106A5
:1007280018BF52EA4306D1D181EA030101F0004122
:100738004FF0000070BD50EA410606BF104619464A
:1007480052EA430619D094EA0C0F02D150EA013656
:1007580013D195EA0C0F05D152EA03361CBF104697
:1007680019460AD181EA030101F0004141F0FE4136
:1007780041F470014FF0000070BD41F0FE4141F4BA
:10078800780170BD70B54FF0FF0C4CF4E06C1CEABA
:1007980011541DBF1CEA135594EA0C0F95EA0C0F6F
:1007A80000F0A7F8A4EB050481EA030E52EA03352A
:1007B8004FEA013100F088804FEA03334FF080554B
:1007C80045EA131343EA12634FEA022245EA111578
:1007D80045EA10654FEA00260EF000419D4208BF29
:1007E800964244F1FD0404F5407402D25B084FEAD6
:1007F8003202B61A65EB03055B084FEA32024FF482
:1008080080104FF4002CB6EB020E75EB030E22BFDE
:10081800B61A754640EA0C005B084FEA3202B6EB9E
:10082800020E75EB030E22BFB61A754640EA5C004D
:100838005B084FEA3202B6EB020E75EB030E22BFDD
:10084800B61A754640EA9C005B084FEA3202B6EBDE
:10085800020E75EB030E22BFB61A754640EADC009D
:1008680055EA060E18D04FEA051545EA16754FEAFF
:1008780006164FEAC30343EA52734FEAC2025FEA1D
:100888001C1CC0D111F4801F0BD141EA00014FF0AC
:1008980000004FF0004CB6E711F4801F04BF01437D
:1008A8000020B4F1FD0C88BFBCF5E06F3FF6AFAE99
:1008B800B5EB030C04BFB6EB020C5FEA500C50F129
:1008C800000041EB045170BD0EF0004E4EEA1131AC
:1008D80014EB5C04C2BFD4EB0C0541EA045170BDB3
:1008E80041F480114FF0000E013C90E645EA060EF7
:1008F8008DE60CEA135594EA0C0F08BF95EA0C0F25
:100908003FF43BAF94EA0C0F0AD150EA01347FF46C
:1009180034AF95EA0C0F7FF425AF104619462CE743
:1009280095EA0C0F06D152EA03353FF4FDAE1046A6
:10093800194622E750EA410618BF52EA43067FF4F7
:10094800C5AE50EA41047FF40DAF52EA43057FF487
:10095800EBAE12E74FF0FF3C06E000BF4FF0010C92
:1009680002E000BF4FF0010C4DF804CD4FEA410CF6
:100978007FEA6C5C4FEA430C18BF7FEA6C5C1BD0C3
:1009880001B050EA410C0CBF52EA430C91EA030F44
:1009980002BF90EA020F0020704710F1000F91EAA1
:1009A800030F58BF994208BF90422CBFD8176FEA6F
:1009B800E37040F0010070474FEA410C7FEA6C5C3D
:1009C80002D150EA013C07D14FEA430C7FEA6C5C44
:1009D800D6D152EA033CD3D05DF8040B704700BF70
:1009E8008446104662468C461946634600E000BFBE
:1009F80001B5FFF7B7FF002848BF10F1000F01BD90
:100A08004DF808EDFFF7F4FF0CBF012000205DF85A
:100A180008FB00BF4DF808EDFFF7EAFF34BF0120DF
:100A280000205DF808FB00BF4DF808EDFFF7E0FF78
:100A380094BF012000205DF808FB00BF4DF808EDC9
:100A4800FFF7CEFF94BF012000205DF808FB00BF30
:100A58004DF808EDFFF7C4FF34BF012000205DF812
:100A680008FB00BF4FEA410212F5001215D211D55A
:100A78006FF47873B3EB625212D94FEAC12343F093
:100A8800004343EA505311F0004F23FA02F018BF15
:100A9800404270474FF00000704750EA013005D1DE
:100AA80011F0004008BF6FF0004070474FF00000A1
:100AB800704700BF4A0011D212F5001211D20DD5AD
:100AC8006FF47873B3EB62520ED44FEAC12343F04C
:100AD800004343EA505323FA02F070474FF00000F6
:100AE800704750EA013002D14FF0FF3070474FF0A5
:100AF800000070474FEA4102B2F1E04324BFB3F56A
:100B0800001CDCF1FE5C0DD901F0004C4FEAC0027C
:100B18004CEA5070B2F1004F40EB830008BF20F060
:100B28000100704711F0804F21D113F13872BCBF1A
:100B380001F00040704741F480114FEA5252C2F16F
:100B48001802C2F1200C10FA0CF320FA02F018BFB8
:100B580040F001004FEAC1234FEAD32303FA0CFC0B
:100B680040EA0C0023FA02F34FEA4303CCE77FEA9A
:100B7800625307D150EA01331EBF4FF0FE4040F4E4
:100B88004000704701F0004040F0FE4040F4000093
:100B9800704700BF0000000070B55D4D2DED028B61
:100BA80057A1D1E900019FED5B8AA5F5006640F2E7
:100BB800FF1407E0FFF768FC41EC100B02F08CFC17
:100BC80051EC100B013CA4B2FFF794FF07EE904ADA
:100BD800F8EEE77A45F8040D67EE887AB54217EE25
:100BE800900AE7D14C4D9FED4B8AA5F5006646A1CA
:100BF800D1E9000140F2FF1407E0FFF745FC41ECA2
:100C0800100B02F025FC51EC100B013CA4B2FFF7CD
:100C180071FF07EE904AF8EEE77A45F8040D67EEA3
:100C2800887AAE4217EE900AE7D1DFED3C4A9FED95
:100C38003C4AB0EE646AF0EE645AB0EE645A40F290
:100C4800FF1307EE903AF8EEE77A013B67EE847AF5
:100C58005A1C67EEA76A35EE275A27EEA67A75EE74
:100C6800A65A36EE076AE7EE874AEAD166EE466A82
:100C780024EEC57AE5EEA46ABDEC028BDFED292AE5
:100C8800294BA5EE867A65EEE57A26EEA23AF0EED5
:100C9800673AE5EE063AA7EE053AB7EE002AA5EE62
:100CA800A33A22EEC66A82EE034A25EE453AA5EE3D
:100CB800256AE4EEA27AB0EE435AA5EEA25AF0EE07
:100CC800674A64EE235A66EE047A27EE047A25EE24
:100CD800045A24EE846A66EE846A83ED085AC3EDEA
:100CE800077AC3ED065AC3ED057A83ED046A83EDEE
:100CF800037AC3ED025A83ED017AC3ED006A70BD31
:100D0800408C5131BF2189BF4AC5871762FFEF3F29
:100D180080500120DB0F493C300800200000000013
:100D28000AD7233800000044D85001202DE9F04F9D
:100D38002DED0A8B174B184D1B78184C184E9FED4C
:100D4800194A9FED193ADFED193A9FED190ADFEDBF
:100D5800190A9FED191ADFED191A9FED192ADFED0F
:100D6800192A194ADFF868C08F0003EB830307EBE1
:100D780001095B0303EB091306EB03093D443C44FB
:100D8800D5ED004A94ED005A104B09F1100E00F110
:100D9800140887E000A101208048012030000020CD
:100DA800800800204DEE312AE02E6542610B363B6B
:100DB800ABAAAA3ECDCC4C3E2549123E398EE33D26
:100DC8008C2EBA3DD9899D3D4008002098500120BD
:100DD8002CA20120000000000000B4432359C73FA3
:100DE8008988883DF1F0703D310C433D3694573D7C
:100DF800DB0F4940DB0FC93FF5EE408AF1EE10FAF0
:100E080040F0DE815FED0D8AB5EE407AF0EE687A4B
:100E1800F1EE10FA4EED037A40F03881F5EE406AB3
:100E2800F1EE10FA40F0DA811FED167AF0EE477A0B
:100E3800F5EEC08AF1EE10FA4EED017A48BF5FED8B
:100E48001A7A13ED048A53ED026A48BF78EEA78A2E
:100E5800B5EEC07A53ED037AF1EE10FA77EEA88A70
:100E680048BF5FED237A43ED038A48BF37EE277A00
:100E780053ED017A78EE255A36EE866A37EE877A90
:100E88000430404543ED045A03ED026A03ED017A4C
:100E980002F110020CF1040C0EF1100E03F1100314
:100EA80000F0AA810788448806883CF904BC458874
:100EB8003CF902AC52ED038A52ED016A12ED049A34
:100EC80012ED027A36B2A6EB0B0607EE906A2DB247
:100ED800A5EB0A05B8EEE78A3FB207EE905A24B2AE
:100EE800A7EB0B05A4EB0A04F8EEE75A06EE105A36
:100EF80007EE904AE4EEA56AE4EE888AB8EEC66A80
:100F0800F8EEE77AA5EE069AA5EE277A68EEA85AD3
:100F180026EEA66AE9EE095AA7EE076A65EE845A34
:100F280026EE046AB5EE409AF1EE10FA42ED038A15
:100F380002ED049A4EED045A42ED016A0EED026A82
:100F480002ED027A3FF458AFB1EE688AC8EE097A2A
:100F5800B7EE008AF0EEE77AF4EEC87AF1EE10FA0E
:100F680040F38381C8EE277A03250124B6EE008A70
:100F7800F4EEC87AF1EE10FA0ADD1FED688AF7EE92
:100F8800009AE7EE889A2C4638EE678AC8EE297AE6
:100F9800012C27EEE78A67EE80AA28EE20CA6AEEBF
:100FA80088AA68EE01BA2CEE2ACA77EEAA7A6BEE06
:100FB8008CBA68EE21AA77EE8C7A6AEEABAA28EE94
:100FC80002CA77EEAB7A2CEE2ACA68EE22BA77EE1E
:100FD800AA7A5FED7DAA1FED7DAA5FED7C9A1FEDD1
:100FE8007EBA6BEE8CBA68EE2AAA77EE8C7A6AEE35
:100FF800ABAA28EE0AAA77EEAB7A2AEE2AAA68EEFE
:10100800299A77EEAA7A69EE8A9A77EE8A7A28EE92
:101018000B8A77EEA97AE8EE297A05D9B7EE008A25
:10102800023C78EE677AE4B2012C08BF1FED8F8A84
:10103800B5EEC09A08BF78EE677AF1EE10FA40F183
:10104800C1801FED958AF5EEC08AF1EE10FACCBF8B
:1010580077EEC87A78EE677A4FF4B47427EE839AFD
:1010680029EE238AB5EE407ABDEEC88AF1EE10FA71
:1010780018EE105A04FB05F508EE905AB8EEE88A07
:101088004EED037A79EE488A3FF4C8AEB1EE668A2F
:10109800C8EE077AB7EE008AF0EEE77AF4EEC87A7F
:1010A800F1EE10FA40F3DE80C8EE277A032501241A
:1010B800B6EE008AF4EEC87AF1EE10FA0ADD1FEDFA
:1010C800B98AB7EE009AA7EE889A2C4638EE678A56
:1010D800C8EE097A012C27EEE78A27EE80AA68EE87
:1010E80020BA2AEE08AA28EE01BA6BEE8ABA77EE81
:1010F8008A7A2BEE2BBA28EE21AA77EEAB7A2AEE63
:101108000BAA68EE02BA77EE8B7A6BEE8ABA28EEF3
:1011180022BA77EE8A7A1FEDCEAA5FEDCE9A1FED3E
:10112800CD9A5FEDCFAA2BEE2BBA28EE0AAA77EE5E
:10113800AB7A2AEE0BAA68EE299A77EE8B7A69EEDB
:101148008A9A28EE099A77EE8A7A29EE299A77EE12
:10115800A97A28EE2A8A77EE897AE8EE097A05D9FB
:10116800B7EE008A023C78EE677AE4B2012C08BF39
:101178001FEDE08AB5EEC07A08BF78EE677AF1EE27
:1011880010FA2DD5F5EEC06A1FEDE77AF1EE10FAE8
:10119800CCBF77EEC77A77EE677A4FF4B47467EE10
:1011A800836A26EEA37ABDEEC77A17EE105A04FBBF
:1011B80005F507EE105AB8EEC77A36EEC77A37E665
:1011C8005FEDF47AF5EEC08AF1EE10FAC8BFF1EEE1
:1011D800677A27EE839A4FF4B47441E7DFED247AF7
:1011E800F5EEC06AF1EE10FAC8BFF1EE677A67EE65
:1011F800836A4FF4B474D4E707EE901A1D4BDFED01
:101208001E2AD3ED043A93ED037A93ED073AD3ED12
:10121800066AD3ED054A93ED084A184A99ED015A32
:10122800D2ED015A92ED006AF8EEE77ABDEC0A8B2E
:1012380067EEA27AA7EEA37AE7EE836A67EEA77A4B
:10124800A7EEA47AE7EE846AF0EE477AB0EE657A04
:10125800A6EE857AA7EE856A82ED017A82ED006AAC
:10126800BDE8F08F0225002422E7022500247DE650
:10127800DB0FC93FD85001200AD7233880500120FE
:10128800554BDFED567A93ED000AD3ED020AD3ED04
:10129800011AD3ED032A93ED067AD3ED053A93EDBF
:1012A800074A93ED043AD3ED084A93ED0A5AD3ED71
:1012B800095A93ED0B6A4A494A489FED4B1ADFEDEC
:1012C8004B6A9FED4B2A61EEA71A62EEA72A23EE1E
:1012D800273A27EE277A63EEA73A24EE274A64EEE8
:1012E800A74A25EE275A65EEA75A26EE276A20EE6A
:1012F800270A60EEA70A0022F0B5C1ED011AC1ED78
:10130800032A81ED043A81ED067AC1ED053A81EDB3
:10131800074AC1ED084A81ED0A5AC1ED095A81ED23
:101328000B6A81ED000AC1ED020A5A619A61DA611D
:101338001A605A609A60DA601A61D0ED001AD3ED2B
:101348000C2A93ED0E3AD3ED0D3A93ED0F4AD3EDF7
:10135800104A93ED125AD3ED115A93ED136A90ED9A
:10136800017ADFF890E01A62E1EE816A00271A63D9
:1013780062EEA72A23EE273A63EEA73A24EE274A1D
:1013880064EEA74A25EE275A65EEA75A27EE027A99
:1013980066EE277AC1ED0C2A81ED0E3AC1ED0D3AC1
:1013A80081ED0F4AC1ED104A1A6481ED125AC1ED60
:1013B800115AC1ED137ACEED006A8EED017A5A62A8
:1013C8009A62DA625A639A63DA635A649A64DA64EC
:1013D80007604760F0BD00BF885001200000003B57
:1013E800D8A101208050012083F9223E0000484204
:1013F80083F9A23E3CA20120162930D870B42A4DA8
:101408008B086C6C9B0003F1804303F59C3344F418
:1014180080446C6401F003049E68A4006FF00F051B
:10142800A54035409D609D6800FA04F42C43012ACC
:101438009C6021D02BD3022A12D0012202FA01F19A
:10144800CC431A4B1868204018605A6822405A60EA
:101458001A680A431A6070BC5A6811435960704789
:10146800124B01209A6800FA01F10A439A60DA687F
:101478000A43DA60CC43E4E70C4B02FA01F19A68BC
:10148800CC4322409A60DA680A43DA60D9E7074B0E
:10149800012202FA01F1DA68CC432240DA609A6844
:1014A8000A439A60CDE700BF00380240003C014083
:1014B800054A5369034005D01368184214BF012038
:1014C8000020704718467047003C0140014B5861A6
:1014D800704700BF003C0140024A1369184310617D
:1014E800704700BF003C014070B5764D2B6B43F050
:1014F80004032B6300BF744B744C00261E60DE602F
:101508002B6B43F010032B63236823F040632360A5
:1015180023682360E36823F04063E360E368E360E3
:10152800236823F04053236023682360E36823F093
:101538004053E360E368E360236823F440032360D7
:1015480023682360E36823F44003E360E368E3600F
:10155800236823F04073236023682360E36823F043
:101568004073E360E368E36001220B210420FFF786
:1015780043FF01220C210420FFF73EFF2368544A51
:10158800544923F440332360236843F480332360B1
:101598001660A36843F44033A3606B6C58040BD403
:1015A8006B6C4D4A43F480436B64136A43F0010348
:1015B8001362136ADB05FCD5444B4248DA6822F40F
:1015C8004032DA60DA68DA601A6822F440121A6087
:1015D8001A680A31890042F4801200241A600C60EB
:1015E8009A6842F440129A60436C5A040BD4436CD4
:1015F800394A43F480434364136A43F00103136296
:10160800136ADD05FCD5314B2E48DA6822F4401206
:10161800DA60DA68DA601A6822F040421A601A68FA
:10162800002442F080421A604C619A6842F04042BD
:101638009A60436C5E040BD4436C274A43F480439E
:101648004364136A43F001031362136AD805FCD597
:101658001E4B1C48DA6822F04042DA60DA68DA6029
:101668001A6822F440221A601A68002442F4802280
:101678001A6041F8044C9A6842F440229A60436C1C
:101688005C040BD4436C144A43F480434364136AE8
:1016980043F001031362136ADB05FCD50B4B0F49BA
:1016A800DA680F4D0F4C104822F44022DA60DA68ED
:1016B800DA60012300222B600B60236003600A605C
:1016C80070BD00BF00380240000802400010024010
:1016D800A00042422080901000380140BC024242E3
:1016E800A4024242A0024242A80242426749684B11
:1016F8000A6B684842F0080210B50A631A6822F0BB
:1017080040621A601A68002442F080621A6004601D
:101718009A6842F040629A604B6C5C040BD44B6C44
:101728005D4A43F480434B64136A43F00103136238
:10173800136AD905FCD5564B5449DA68574822F044
:101748004062DA60DA6842F08062DA600A6B42F07E
:1017580008020A631A6822F040721A601A680024A4
:1017680042F080721A6004609A6842F040729A608F
:101778004B6C58040BD44B6C474A43F480434B647E
:10178800136A43F001031362136ADC05FCD5404B6E
:101798003E49DA68424822F04072DA60DA6842F07C
:1017A8008072DA600A6B42F008020A631A6822F053
:1017B80040521A601A68002442F080521A6004608D
:1017C8009A6842F040529A604B6C5B040BD44B6CA5
:1017D800314A43F480434B64136A43F001031362B4
:1017E800136AD905FCD52A4B2849DA682D4822F016
:1017F8004052DA60DA6842F08052DA600A6B42F0EE
:1018080008020A631A6822F040421A601A68002423
:1018180042F080421A6004609A6842F040429A603E
:101828004B6C58040BD44B6C1B4A43F480434B64F9
:10183800136A43F001031362136ADB05FCD5144AEB
:101848001248D168184B21F04041D160D16841F06D
:101858008041D160026B42F0010202631A6822F0F3
:1018680003021A601A681A60DA6822F00302DA6062
:10187800DA68DA60002211461046FFF7BDFD002243
:1018880010460121BDE81040FFF7B6BD0038024000
:10189800000C0240B480414200380140B08041420F
:1018A800B8804142BC804142000002400C38032805
:1018B80005D8DFE800F00B080502064B19607047F1
:1018C800054B19607047054B19607047044B196048
:1018D800704700BFBC824142B8824142B482414253
:1018E800B0824142014B1870704700BFFC50012084
:1018F80018481949C268194BF0B54FF6FF04224041
:101908001143C1604022102620253024E0214FF0E9
:10191800500EF02783F828634FF4803083F838534B
:101928004FF4807683F811434FF0807583F81023C5
:101938004FF4003483F826E383F8061383F807731B
:1019480080215E605D601C6018605A601A601960D2
:10195800F0BD00BF00ED00E00003FA0500E100E083
:10196800FFF71AB92DE9F843644D654E654F01211B
:101978000C20FFF79BFF33782A8896F800802C8884
:101988006149DFF88CC16148DFF888E1A4B288F0CA
:10199800010804EB840408EB88094FEA840808EB83
:1019A800C92800240C60CCF8004030F80890AEF844
:1019B800009092B202EB820203EB830993003A692A
:1019C80003EBC92312B2C25280440122CCF8002092
:1019D800B8F80290AEF80290D7F8109003440FFAC6
:1019E80089F9A3F802900A600C60CCF80040B8F8B6
:1019F8000490AEF80490D7F810900FFA89F9A3F87C
:101A08000490CCF80020B8F80690AEF80690D7F805
:101A180010900FFA89F9A3F806900A600C60CCF8C8
:101A28000040B8F80890AEF80890D7F810900FFA70
:101A380089F9A3F80890CCF80020B8F80A90AEF815
:101A48000A90D7F810900FFA89F9A3F80A900A605B
:101A58000C60CCF80040B8F80C90AEF80C90D7F8B1
:101A680010900FFA89F9A3F80C90CCF80020B8F878
:101A78000E90AEF80E90D7F810900FFA89F9A3F8E7
:101A88000E900A600C60CCF80040B8F81090AEF8E0
:101A98001090D7F810900FFA89F9A3F81090CCF8A5
:101AA8000020B8F812C0AEF812C03F693FB25F829A
:101AB8000A6033782A88298803EB830392B202EB01
:101AC8008202DB0203EB8203184489B2FFF72EF986
:101AD8002B8801339BB2B3F5007F2B8007D32C8072
:101AE8003378022083F001033370FFF7F5FC0021FF
:101AF8000C20BDE8F843FFF7D9BE00BF02A10120C2
:101B080000A1012000080240A00242420051012029
:101B1800A802424228A201202DE9F04FDFF8E8830D
:101B2800F34FF44EF44DDFF8E4A3F44C83B0FFF721
:101B3800A7FBD8F80000FEF7A7FCEBA3D3E9002326
:101B4800FEF744FBEE4B0022FEF7F2FCFEF7B2FF75
:101B58004109A6FB0039A7FB0131EA4BC909A3FBE0
:101B6800003CA5FB0132D208AAFB003E4FEA5939D6
:101B780002EB82024FEA5E1BA1EB4201A5FB09E2E0
:101B8800D2084FEA9C1C02EB8202A9EB4209A5FB92
:101B98000CE2D20802EB8202A5FB00E3ACEB420C9C
:101BA800A5FB0B2E4FEADE0EDB080EEB8E02ABEB2D
:101BB800420EA5FB03B2D20802EB8202A3EB42025B
:101BC80003EB83033031A0EB43030CF1300C0EF12F
:101BD800300E21703032303309F130094FF02E01C8
:101BE80084F802C0D8F8040084F804E084F801906E
:101BF8006271A371E170FEF747FCBBA3D3E9002330
:101C0800FEF7E4FABE4B0022FEF792FCFEF752FF05
:101C18004109A6FB0039A7FB0131BA4BC909A3FB4F
:101C2800003CA5FB0132D208AAFB003E4FEA593915
:101C380002EB82024FEA5E1BA1EB4201A5FB09E21F
:101C4800D2084FEA9C1C02EB8202A9EB4209A5FBD1
:101C58000CE2D20802EB8202ACEB420CA5FB0BE2D1
:101C6800A5FB00E3D208DB0802EB8202ABEB420ED5
:101C7800A5FB03B2D20802EB8202A3EB420203EBFC
:101C88008303A0EB43000CF1300C0EF1300E00F191
:101C980030033032303109F130094FF02E0084F82A
:101CA80009C084F80BE0A07284F80890D8F81000F6
:101CB80022736373E171FEF7E7FB8BA3D3E900237B
:101CC800FEF784FA8E4B0022FEF732FCFEF7F2FE96
:101CD8004109A6FB0039A7FB01318A4BC909A3FBBF
:101CE800003CA5FB0132D208AAFB003E4FEA593955
:101CF80002EB82024FEA5E1BA1EB4201A5FB09E25F
:101D0800D2084FEA9C1C02EB8202A9EB4209A5FB10
:101D18000CE2D20802EB8202ACEB420CA5FB0BE210
:101D2800A5FB00E3D208DB0802EB8202ABEB420E14
:101D3800A5FB03B2D20802EB8202A3EB420203EB3B
:101D48008303A0EB43000CF1300C0EF1300E00F1D0
:101D580030033032303109F130094FF02E0084F869
:101D680010C084F812E0607484F80F90D8F814005A
:101D7800E2742375A173FEF787FB5BA3D3E9002305
:101D8800FEF724FA5E4B0022FEF7D2FBFEF792FE26
:101D98004109A6FB0039A7FB01315A4BC909A3FB2E
:101DA800003CA5FB0132D208AAFB003E4FEA593994
:101DB80002EB82024FEA5E1BA1EB4201A5FB09E29E
:101DC800D2084FEA9C1C02EB8202A9EB4209A5FB50
:101DD8000CE2D20802EB8202ACEB420CA5FB0BE250
:101DE800A5FB00E3D208DB0802EB8202ABEB420E54
:101DF800A5FB03B2D20802EB8202A3EB420203EB7B
:101E08008303A0EB43000CF1300C0EF1300E00F10F
:101E180030033032303109F130094FF02E0084F8A8
:101E280017C084F819E0207684F81690D8F82000B6
:101E3800A276E3766175FEF727FB2BA3D3E900238F
:101E4800FEF7C4F92E4B0022FEF772FBFEF732FEB6
:101E58004109A6FB0039A7FB01312A4BC909A3FB9D
:101E6800003CA5FB0132D208AAFB003E4FEA5939D3
:101E780002EB82024FEA5E1BA1EB4201A5FB09E2DD
:101E8800D2084FEA9C1C02EB8202A9EB4209A5FB8F
:101E98000CE2D20802EB8202ACEB420CA5FB0BE28F
:101EA800A5FB00E3D208DB0802EB8202ABEB420E93
:101EB800A5FB03B2D20802EB8202A3EB420203EBBA
:101EC8008303A0EB43030CF1300C0EF1300E3032DB
:101ED8003033303109F130094FF02E0084F81EC03C
:101EE80084F820E014E000BFFCA9F1D24D62403F25
:101EF800C55A7C0A5917B7D1CDCCCCCC38A1012012
:101F080000408F40D34D6210D8A101201F85EB51AE
:101F180084F8212084F82230217784F81D90E07716
:101F2800D8F82400FEF7B0FAF7A3D3E90023FEF7A8
:101F38004DF9F74B0022FEF7FBFAFEF7BBFD41090E
:101F4800A6FB0039A7FB0131F24BC909A3FB003CF2
:101F5800A5FB0132D208AAFB003E4FEA593902EB31
:101F680082024FEA5E1BA1EB4201A5FB09E2D208FF
:101F78004FEA9C1C02EB8202A9EB4209A5FB0CE28A
:101F8800D20802EB8202ACEB420CA5FB0BE2A5FBEC
:101F980000E3D208DB0802EB8202ABEB420EA5FBA2
:101FA80003B2D20802EB8202A3EB420203EB8303E3
:101FB800A0EB43000CF1300C0EF1300E00F13003B1
:101FC8003032303109F130094FF02E0084F825C045
:101FD80084F827E084F8260084F82490D8F83000A4
:101FE80084F8282084F8293084F82310FEF74CFA66
:101FF800C5A3D3E90023FEF7E9F8C54B0022FEF795
:1020080097FAFEF757FD4109A6FB0039A7FB0131F6
:10201800C04BC909A3FB003CA5FB0132D208AAFBAF
:10202800003E4FEA593902EB82024FEA5E1BA1EBF0
:102038004201A5FB09E2D2084FEA9C1C02EB82028E
:10204800A9EB4209A5FB0CE2D20802EB8202ACEB39
:10205800420CA5FB0BE2A5FB00E3D208DB0802EB70
:102068008202ABEB420EA5FB03B2D20802EB82025E
:10207800A3EB420203EB8303A0EB43000CF1300C0B
:102088000EF1300E00F130033032303109F13009F1
:102098004FF02E0084F82CC084F82EE084F82D0030
:1020A80084F82B90D8F8340084F82F2084F8303046
:1020B80084F82A10FEF7E8F993A3D3E90023FEF782
:1020C80085F8934B0022FEF733FAFEF7F3FC41093B
:1020D800A6FB0039A7FB01318E4BC909A3FB003CC5
:1020E800A5FB0132D208AAFB003E4FEA593902EBA0
:1020F80082024FEA5E1BA1EB4201A5FB09E2D2086E
:102108004FEA9C1C02EB8202A9EB4209A5FB0CE2F8
:10211800D20802EB8202ACEB420CA5FB0BE2A5FB5A
:1021280000E3D208DB0802EB8202ABEB420EA5FB10
:1021380003B2D20802EB8202A3EB420203EB830351
:10214800A0EB43000CF1300C0EF1300E00F130031F
:102158003032303109F130094FF02E0084F833C0A5
:1021680084F835E084F8340084F83290D8F84000D8
:1021780084F8362084F8373084F83110FEF784F973
:1021880061A3D3E90023FEF721F8614B0022FEF793
:10219800CFF9FEF78FFC4109A6FB0039A7FB0131F7
:1021A8005C4BC909A3FB003CA5FB0132D208AAFB82
:1021B800003E4FEA593902EB82024FEA5E1BA1EB5F
:1021C8004201A5FB09E2D2084FEA9C1C02EB8202FD
:1021D800A9EB4209A5FB0CE2D20802EB8202ACEBA8
:1021E800420CA5FB0BE2A5FB00E3D208DB0802EBDF
:1021F8008202ABEB420EA5FB03B2D20802EB8202CD
:10220800A3EB420203EB8303A0EB43000CF1300C79
:102218000EF1300E00F130033032303109F130095F
:102228004FF02E0084F83AC084F83CE084F83B0074
:1022380084F83990D8F8440084F83D2084F83E307A
:1022480084F83810FEF720F92FA3D3E90023FDF70F
:10225800BDFF2F4B0022FEF76BF9FEF72BFC41095F
:10226800A6FB0039A7FB01312A4BC909A3FB003C97
:10227800A5FB0132D208AAFB003E4FEA593902EB0E
:1022880082024FEA5E1BA1EB4201A5FB09E2D208DC
:102298004FEA9C1C02EB8202A9EB4209A5FB0CE267
:1022A800D20802EB8202ACEB420CA5FB0BE2A5FBC9
:1022B80000E3D208DB0802EB8202ABEB420EA5FB7F
:1022C80003B2D20802EB8202A3EB420203EB8303C0
:1022D800A0EB43030CF1300C0EF1300E30323033EA
:1022E800303109F130094FF02E0084F841C084F8EC
:1022F80043E084F8442084F8453084F83F1084F89B
:10230800409009E0AFF30080FCA9F1D24D62403F54
:1023180000408F40D34D621084F84200D8F808007E
:10232800FEF7B2F8F6A3D3E90023FDF74FFFF64B0B
:102338000022FEF7FDF8FEF7BDFB4109A6FB0039B8
:10234800A7FB0131F14BC909A3FB003CA5FB0132F6
:10235800D208AAFB003E4FEA593902EB82024FEA43
:102368005E1BA1EB4201A5FB09E2D2084FEA9C1CC7
:1023780002EB8202A9EB4209A5FB0CE2D20802EBB0
:102388008202ACEB420CA5FB0BE2A5FB00E3D208F2
:10239800DB0802EB8202ABEB420EA5FB03B2D208CC
:1023A80002EB8202A3EB420203EB8303A0EB4300A0
:1023B8000CF1300C0EF1300E00F1300330323031B8
:1023C80009F130094FF02E0084F848C084F84AE03B
:1023D80084F8490084F84790D8F80C0084F84B201A
:1023E80084F84C3084F84610FEF74EF8C4A3D3E9BD
:1023F8000023FDF7EBFEC44B0022FEF799F8FEF729
:1024080059FB4109A6FB0039A7FB0131BF4BC9099C
:10241800A3FB003CA5FB0132D208AAFB003E4FEA11
:10242800593902EB82024FEA5E1BA1EB4201A5FB80
:1024380009E2D2084FEA9C1C02EB8202A9EB42098E
:10244800A5FB0CE2D20802EB8202ACEB420CA5FB26
:102458000BE2A5FB00E3D208DB0802EB8202ABEB40
:10246800420EA5FB03B2D20802EB8202A3EB4202A2
:1024780003EB8303A0EB43000CF1300C0EF1300E9C
:1024880000F130033032303109F130094FF02E00BD
:1024980084F84FC084F851E084F8500084F84E90D6
:1024A800D8F8180084F8522084F8533084F84D1076
:1024B800FDF7EAFF92A3D3E90023FDF787FE924BCD
:1024C8000022FEF735F8FEF7F5FA4109A6FB0039B8
:1024D800A7FB01318D4BC909A3FB003CA5FB0132C9
:1024E800D208AAFB003E4FEA593902EB82024FEAB2
:1024F8005E1BA1EB4201A5FB09E2D2084FEA9C1C36
:1025080002EB8202A9EB4209A5FB0CE2D20802EB1E
:102518008202ACEB420CA5FB0BE2A5FB00E3D20860
:10252800DB0802EB8202ABEB420EA5FB03B2D2083A
:1025380002EB8202A3EB420203EB8303A0EB43000E
:102548000CF1300C0EF1300E00F130033032303126
:1025580009F130094FF02E0084F856C084F858E08D
:1025680084F8570084F85590D8F81C0084F859204E
:1025780084F85A3084F85410FDF786FF60A3D3E935
:102588000023FDF723FE604B0022FDF7D1FFFEF785
:1025980091FA4109A6FB0039A7FB01315B4BC90938
:1025A800A3FB003CA5FB0132D208AAFB003E4FEA80
:1025B800593902EB82024FEA5E1BA1EB4201A5FBEF
:1025C80009E2D2084FEA9C1C02EB8202A9EB4209FD
:1025D800A5FB0CE2D20802EB8202ACEB420CA5FB95
:1025E8000BE2A5FB00E3D208DB0802EB8202ABEBAF
:1025F800420EA5FB03B2D20802EB8202A3EB420211
:1026080003EB8303A0EB43000CF1300C0EF1300E0A
:1026180000F130033032303109F130094FF02E002B
:1026280084F85DC084F85FE084F85E0084F85C900C
:10263800D8F8280084F8602084F8613084F85B10AA
:10264800FDF722FF2EA3D3E90023FDF7BFFD2E4B94
:102658000022FDF76DFFFEF72DFA4109A6FB0039B0
:10266800A7FB0131294BC909A3FB003CA5FB01329B
:10267800D2084FEA593902EB8202AAFB003EA1EBCD
:102688004202A5FB00B3C346A5FB0981C9084FEA6E
:102698009C1C01EB8101A9EB4109A5FB0C81C90830
:1026A8004FEA5E1E01EB8101ACEB410CA5FB0E81EC
:1026B800C908DB0801EB8101AEEB410EA5FB03184D
:1026C8004FEAD80808EB8808A3EB480803EB830314
:1026D800A0EB43030EF1300E0CF1300C303209F14F
:1026E8003009303308F130084FF02E0184F866E0E5
:1026F80084F864C084F8622084F8639008E000BF1E
:10270800FCA9F1D24D62403F00408F40D34D62108A
:1027180084F8683084F8651084F86780CDF804B0D0
:10272800DBF82C00DFF8D483FDF7AEFEEEA3D3E987
:102738000023FDF74BFD0022ED4BFDF7F9FEFEF7F8
:10274800B9F94109A7FB0121C909A6FB002BA8FB80
:10275800002CA5FB01E2D208AAFB009E4FEA5B3BD6
:1027680002EB82024FEA5E19A1EB4201A5FB0BE2E4
:10277800D2084FEA9C1C02EB8202ABEB420BA5FB92
:102788000CE2D20802EB8202ACEB420CA5FB09E298
:10279800A5FB00E3D208DB0802EB8202A9EB420E9C
:1027A800A5FB0392D20802EB8202A3EB420203EBE1
:1027B8008303A0EB430301980CF1300C0EF1300EAB
:1027C8004FF02E090BF1300B30323033303184F8B2
:1027D8006BC084F86DE084F86AB084F86C9084F873
:1027E8006E2084F86F30806B84F86910FDF74CFE1A
:1027F800BDA3D3E90023FDF7E9FC0022BC4BFDF79C
:1028080097FEFEF757F94309AAFB002AA6FB002604
:10281800A8FB0028A7FB03374FEA5A112B46760B73
:102828004FEA9818FF09A3FB0032A5FB073AA5FB5E
:10283800063EA5FB083CA5FB0135AE4B84F873901A
:10284800D208A3FB02B34FEADE0E0EEB8E0E4FEA60
:10285800DA0A4FEADC0CED08DB080CEB8C0C0AEB0F
:102868008A0A05EB8505A6EB4E0603EB830302EB0C
:10287800820EA8EB4C08A2EB4303A7EB4A07A1EB97
:102888004501DFF880A2DFF88092A0EB4E0E0EF132
:10289800300E30333037303608F13008303184F8B4
:1028A80076E0DAF83C0084F8707084F8716084F897
:1028B800728084F8753084F87410FDF7E5FD8AA3FA
:1028C800D3E90023FDF782FC894B8B4F8B4E002206
:1028D800FDF72EFEFEF7EEF883464FEA5B11A7FBE5
:1028E8000B38A6FB0B3CA9FB0131854BDAF84800F5
:1028F800A3FB0B3E7F4BC909A3FB0132D20802EBB5
:102908008202A1EB42017B4B7A4A4FEA58382546AE
:10291800A3FB0B43A2FB0842D20802EB8202A8EBFE
:102928004208744A4FEA9C1CA2FB0C42D20802EBF4
:102938008202ACEB420C6F4A4FEA5E1EA2FB0E42CB
:10294800D20802EB8202AEEB420E6A4ADB08A2FB17
:102958000342D20802EB8202A3EB420203EB830399
:10296800ABEB430308F130080CF1300C0EF1300EDC
:102978003032303385F8788030314FF02E0885F8C2
:1029880079C085F87BE085F87C2085F87D3085F86E
:10299800771085F87A80FDF777FD53A3D3E90023F4
:1029A800FDF714FC524B0022FDF7C2FDFEF782F83A
:1029B8004109A7FB003BA6FB003CA9FB0131504B9A
:1029C80085F88180A3FB003E4A4BC909A3FB01326D
:1029D800D20802EB8202A1EB4201464A454B4FEA7C
:1029E8005B3BA2FB0B42D20802EB8202ABEB420B31
:1029F800404A4FEA9C1CA2FB0C42D20802EB82021E
:102A0800ACEB420C3B4A4FEA5E1EA2FB0E42D208D8
:102A180002EB8202A3FB0043AEEB420E354ADB0811
:102A2800A2FB0342D20802EB8202A3EB420203EBB1
:102A38008303A0EB43030CF1300C0EF1300E30325F
:102A4800303330310BF1300B85F880C085F882E0E7
:102A5800DAF84C0085F87FB085F8832085F8843053
:102A680085F87E10FDF710FD1FA3D3E90023FDF7BD
:102A7800ADFB1F4B0022FDF75BFDFEF71BF841097C
:102A8800A7FB003AA6FB003CA9FB01311C4B85F8CB
:102A98008880A3FB003E174BA3FB0023154AC909F6
:102AA800A2FB0142D20802EB8202A1EB4201114AC9
:102AB8004FEA5A3AA2FB0A42D20802EB8202AAEB78
:102AC800420A0C4A4FEA9C1CA2FB0C42D20802EBB9
:102AD8008202ACEB420C074A4FEA5E1BA2FB0B4298
:102AE80014E000BFAFF30080FCA9F1D24D62403F73
:102AF80000408F40CDCCCCCC5917B7D1D34D621004
:102B08001F85EB51D8A10120C55A7C0AD20802EBD7
:102B18008202ABEB420E844ADB08A2FB0342D208D6
:102B280002EB8202A3EB420203EB8303A0EB430018
:102B38000AF1300BDFF8F8A185F886B00CF1300CFB
:102B48000EF1300E30323031303085F887C085F8DC
:102B580089E085F88A2085F8851085F88B00DAF8F1
:102B68000000FDF791FC6CA3D3E90023FDF72EFBD1
:102B78006BA3D3E90023FDF7DBFCFDF79BFF4109BD
:102B8800A7FB003BA6FB003CA9FB0131674B85F87E
:102B98008E80A3FB003E644BC909A3FB0132D20817
:102BA80002EB8202A1EB42015F4A5F4B4FEA5B3BBB
:102BB800A2FB0B42D20802EB8202ABEB420B5A4A51
:102BC8004FEA9C1CA2FB0C42D20802EB8202ACEB3F
:102BD800420C554A4FEA5E1EA2FB0E42D20802EB97
:102BE8008202A3FB0043AEEB420E4F4ADB08A2FB76
:102BF8000342D20802EB8202A3EB420203EB8303F7
:102C0800A0EB43030CF1300C0EF1300E30323033B0
:102C180030310BF1300B85F88FC085F890E0DAF889
:102C2800040085F88DB085F8912085F8923085F8F4
:102C38008C10FDF729FC38A3D3E90023FDF7C6FA69
:102C480037A3D3E90023FDF773FCFDF733FF4309EE
:102C5800A7FB0027A6FB0026A9FB0339334A324B02
:102C680085F89580A2FB0024A3FB00232E4A4FEA97
:102C7800D919A2FB092C2C4A7F0BA2FB072E2A4A42
:102C8800B609A2FB0621284A6409A2FB042B264A9E
:102C9800DB08A2FB032A4FEADC0C4FEADB024FEA0F
:102CA800DE0EC9084FEADA0A0CEB8C0C0EEB8E0E1E
:102CB80001EB810102EB82020AEB8A0AA9EB4C0CB8
:102CC80003EB8309A7EB4E07A6EB4106A4EB4204EE
:102CD800A3EB4A03A0EB49000CF1300C3037303637
:102CE8003034303330304FF00A0E0D21002285F891
:102CF80093C085F8947085F8966085F8974085F8B4
:102D0800983085F8990085F89AE085F89B1085F841
:102D18009C2003B0BDE8F08F2D431CEBE2360A3F40
:102D2800000000000088C340CDCCCCCC1F85EB51FF
:102D38003CA201209D21014800F0C6B938A101201C
:102D480038B500F01BFB0A4A0A4B12689A4200D0B9
:102D5800FEE7094B094A002141F6A115F024072096
:102D68005D6082F823409960186082F8231038BDAE
:102D780010000020007A030A10E000E000ED00E0F7
:102D8800094B0A4A0021196013680133136013F0D4
:102D9800010F074B0CBF41F6A11241F6A2125A606F
:102DA800014B01221A607047A402424204A101208B
:102DB80010E000E0014B1868704700BF04A1012033
:102DC8001F49204A0B6B43F400130B631368D907A0
:102DD80006D5136823F0010313601368DB07FCD4DE
:102DE800184B19491A6822F060621A601A6842F092
:102DF80000621A601A6842F440321A601A6822F0B7
:102E0800C0021A601A6842F040021A601A6822F476
:102E1800C0421A601A6822F4C0521A605A6942F015
:102E280004025A615A6942F003025A611A6842F46C
:102E380080621A601A6842F010021A60996070473E
:102E480000380240A0600240044400402149224A60
:102E58000B6B43F4001310B40B631368D90706D542
:102E6800136823F0010313601368DB07FCD41A4BC3
:102E78001A481A681A4922F060621A601A6842F001
:102E880000621A601A6842F440321A601A6822F026
:102E9800C0021A601A6822F4C0421A601A6822F442
:102EA800C0521A605A6942F004025A615A6942F0E3
:102EB80003025A611A6842F480621A601A6814247C
:102EC80042F010021A609860D9605C605DF8044BAB
:102ED800704700BF00380240886002400444004048
:102EE80020A1012029492A4A086B38B540F0010081
:102EF800284B08631868284C20F0F0001860186800
:102F0800002540F0A00018602560186A40F4E060D1
:102F18001862186A40F4E0401862986820F030009F
:102F28009860986840F010009860D86820F0F00029
:102F3800D860D868D8600B6C43F400330B6493896D
:102F4800C3F30E03938193899BB243F48053938117
:102F5800138A23F440531B041B0C138293899BB2DE
:102F680043F48063938193899BB243F40073938104
:102F7800938A9BB243F4006340F26D1193821181EE
:102F8800FFF71EFFBDE83840FFF760BF003802407A
:102F98000044004000000240880040421A4B1B4891
:102FA8009A891B4992B242F4005210B49A819A89C4
:102FB80092B242F008029A819A8992B242F00402CF
:102FC8009A819A8992B242F020029A819A8992B2A1
:102FD80042F480729A819A8992B242F010029A81E0
:102FE8009A8A92B242F080029A829A8A92B24FF4F6
:102FF800746442F040029A82C4600B685DF8044B26
:1030080043F001030B607047004400400060024039
:1030180088600240104A1388D8070FD40E4B1A88CC
:1030280092060AD50D489B880D4A0E490370012364
:103038000B70136823F00103136070471388990617
:10304800FCD5084B0649928802221A700B6823F0B7
:1030580001030B60E2E700BF004400401DA101200E
:103068008860024035A10120034B5A68920244BF90
:103078004FF47412DA6070470060024008B50D4BD7
:103088005B681B0515D50C4A0C4B5268C2F114023B
:10309800D2B21A701AB10A490A4800F0CBF9054BA6
:1030A800054A4FF47461D960136843F00103136053
:1030B80008BD08BD006002408860024034A10120BC
:1030C80020A1012008A1012068B1074A1368DB0785
:1030D800FCD4064BD0604FF474105160D86013686C
:1030E80043F0010313607047A06002400060024093
:1030F8000D4A08B5D2F8883043F47003C2F8883016
:10310800BFF34F8FBFF36F8FFFF71AFEFEF7EEFA8C
:10311800FEF7EAF9FEF7ECFBFFF7E4FEFEF720FC0A
:1031280062B6FFF73BFFFEE700ED00E0DFF838D0BE
:1031380072B6002103E00D4B5B58435004310C4834
:103148000C4B42189A42F6D30B4A02E0002342F88D
:10315800043B0A4B9A42F9D300F088F800F046F98C
:10316800FFF7C6FF70470000000002206047000814
:1031780000000020140000201400002044A20120B8
:10318800FEE70000704700BFFEE700BFFEE700BF94
:10319800FEE700BFFEE700BF704700BF704700BFF3
:1031A800704700BF08B5FFF7EBFDBDE80840FFF723
:1031B80001BE00BF08B50120FEF77AF900B908BDC5
:1031C800064A13780133DBB218461370FEF78AFB00
:1031D8000120BDE80840FEF779B900BF36A10120FB
:1031E80008B50220FEF764F900B908BDFEF794FCA3
:1031F800FFF7A0FD0220BDE80840FEF767B900BF51
:1032080010B54FF40060FEF753F904464FF48050B0
:10321800FEF74EF9204310F0FF0F00D110BDFEF766
:10322800A1FB4FF40060FEF751F94FF48050BDE860
:103238001040FEF74BB900BF10B5084C23689B0639
:1032480005D401210C20BDE81040FEF72FBB00215A
:103258000D20FEF72BFB2023A36010BD0064024065
:10326800FFF70CBFFFF700BFFFF7D4BE3C4B3D484C
:103278001A68002142F001021A6099601A6822F067
:10328800847222F480321A6058601A6882B022F47C
:1032980080221A60D960009101911A6842F4803244
:1032A8001A601A4603E0009BB3F5A06F09D01368B3
:1032B80003F400330193009B01330093019B002B1F
:1032C800F1D0274B1B6813F4003318BF0123019377
:1032D800019B012B14D0224A2349936823F400034D
:1032E8009360C2F88410136843F080631360136816
:1032F8001B01FCD51D4B4FF000629A6002B070476D
:10330800174B1B491A6C1B4842F080521A640A6812
:1033180042F440420A609A689A609A6842F400420D
:103328009A609A6842F4A0529A6058601A6842F00B
:1033380080721A601A689201FCD50F49084A40F257
:1033480005600860996821F003019960996841F067
:1033580002019960936803F00C03082BFAD1BAE7CD
:1033680000380240103000240030005000ED00E02A
:103378000070004008544007003C0240164A936819
:1033880003F00C03042B24D0082B0AD0134B124A49
:10339800134892681349C2F30312825CD3400B604E
:1033A80070475068516852684302C2F3881201F0AE
:1033B8003F014CBF0C4B094BB3FBF1F303FB02F38A
:1033C800054A5268C2F3014201325200B3FBF2F3DC
:1033D800DDE7054BDBE700BF003802400024F400BE
:1033E800000000201000002000127A0070B50D4E79
:1033F8000D4CA41BA4100025A54209D10B4E0C4C62
:1034080001F0AEF8A41BA4100025A54205D170BD9B
:1034180056F8253098470135EEE756F82530984795
:103428000135F2E758470008584700085847000890
:103438005C47000810B5431E0A44914200D110BDF4
:1034480011F8014B03F8014FF7E7000000000000F6
:103458001FB551EC100B1E4A21F00043934206DCC5
:103468009FED191B00F074FA51EC100B07E0194A94
:10347800934209DD10EE102A0B46FCF7A5FE41EC3D
:10348800100B05B05DF804FB684600F06DF800F01D
:10349800030001289DED021B9DED000B07D00228BB
:1034A8000ED00028DED0012000F08AFEDCE700F014
:1034B80087FE53EC102B10EE100A03F10041DEE7F3
:1034C80000F046FAF5E700BF000000000000000029
:1034D800FB21E93FFFFFEF7F1FB551EC100B204A9E
:1034E80021F00043934207DC9FED1B1B002000F0F6
:1034F80067FE51EC100B07E01A4A934209DD10EE03
:10350800102A0B46FCF760FE41EC100B05B05DF885
:1035180004FB684600F028F800F0030001289DED40
:10352800021B9DED000B04D0022805D070B90120C4
:10353800DDE700F00DFADCE7012000F041FE53EC76
:10354800102B10EE100A03F10041DDE700F000FA3D
:10355800F5E700BFAFF300800000000000000000A6
:10356800FB21E93FFFFFEF7F2DE9F04F57EC106B90
:10357800C34B8DB027F0004898450446049707DCF4
:103588000022002384ED000BC0E90223002527E078
:10359800BC4B984575DC049BBB4D002B10EE100A04
:1035A800A9A3D3E90023394636DDFCF70DFEA8456B
:1035B80006460F4618D0A6A3D3E90023FCF704FE5D
:1035C80002460B46C4E9002330463946FCF7FCFDA9
:1035D8009FA3D3E90023FCF7F7FDC4E90201012505
:1035E80028460DB0BDE8F08F9BA3D3E90023FCF774
:1035F800EBFD9BA3D3E9002306460F46FCF7E4FD49
:1036080002460B46C4E9002330463946FCF7DCFD88
:1036180093A3D3E90023DEE7FCF7D8FDA8450646C7
:103628000F4616D08AA3D3E90023FCF7CFFD024644
:103638000B46C4E9002330463946FCF7C5FD84A390
:10364800D3E90023FCF7C2FD4FF0FF35C4E90201BE
:10365800C6E781A3D3E90023FCF7B8FD80A3D3E92B
:10366800002306460F46FCF7B1FD02460B46C4E9A7
:10367800002330463946FCF7A7FD79A3D3E9002398
:10368800E0E7824B984500F3D08000F053FE57ECFA
:10369800106B10EE100A74A3D3E900233946FCF727
:1036A80047FF00227A4BFCF791FDFDF7DBF9054651
:1036B800FCF7D8FE64A3D3E90023CDE90201FCF7A7
:1036C80037FF02460B4630463946FCF77DFD60A3BE
:1036D800D3E9002382468B46DDE90201FCF728FF87
:1036E8001F2D06460F462ADC6A1E6A4B53F8223005
:1036F800984524D032463B4650465946FCF764FD6F
:10370800C4E90001D4E90089504642464B4659466F
:10371800FCF75AFD3B463246FCF756FD049B002B4E
:10372800C4E90201BFF65CAF09F100436360C4F865
:103738000080A06001F10043E3606D4250E732462B
:103748003B4650465946FCF73FFD4FEA2852C1F325
:103758000A53D31A102BC4E900010592D2DD3EA307
:10376800D3E90023DDE90201FCF7E2FE06460F4635
:1037780002460B4650465946FCF726FD02460B46C4
:103788008046894650465946FCF71EFD32463B4660
:10379800FCF71AFD32A3D3E9002306460F46DDE9FC
:1037A8000201FCF7C5FE32463B46FCF70DFD02461A
:1037B8000B4606460F4640464946FCF705FD059A66
:1037C800C1F30A53D31A312BC4E900012ADD28A317
:1037D800D3E90023DDE90201FCF7AAFE06460F46FD
:1037E80002460B4640464946FCF7EEFC02460B46AD
:1037F80082468B4640464946FCF7E6FC32463B4645
:10380800FCF7E2FC1CA3D3E9002306460F46DDE9DA
:103818000201FCF78DFE32463B46FCF7D5FC064616
:103828000F4667E7C246CB466CE71B4B984535DD2C
:1038380010EE102A3B4630463946FCF7C5FCC4E971
:103848000201C4E90001A1E600004054FB21F93F50
:103858003163621A61B4D03D0000601A61B4D03D92
:103868007370032E8A19A33B83C8C96D305FE43F88
:103878000000002E8A19A33BC14920259A837B3971
:10388800FB21E93F7BD90240FB21F93FFB2139416C
:103898000000E03F80450008FFFFEF7F4FEA285512
:1038A800A5F21645A8EB055130460F46FDF7DAF8A4
:1038B800FCF7D8FD02460B4630463946CDE90623CB
:1038C800FCF782FC00221F4BFCF732FE0F4606462F
:1038D800FDF7C8F8FCF7C6FD02460B4630463946E8
:1038E800CDE90823FCF770FC0022164BFCF720FEFC
:1038F800CDE90A010DF130094FF003080026002731
:1039080032463B4679E9020108F1FF3AFDF778F8BB
:10391800B0B90D4B0193022300932A464346214632
:1039280006A800F0FDF8049B002B0546BFF658AE2C
:10393800636803F100436360E36803F10043FBE657
:10394800D046DDE700007041004600080000000096
:103958002DE9F04F59EC108B29F0004785B0B7F1ED
:10396800795F8DED001B07DA10EE100A4946FDF766
:1039780079F8002800F0AA8042464B46404649465E
:10398800FCF7D6FD59A3D3E9002304460D46FCF7FE
:10399800CFFD58A3D3E90023FCF718FC22462B4699
:1039A800FCF7C6FD55A3D3E90023FCF70DFC22461E
:1039B8002B46FCF7BDFD53A3D3E90023FCF706FC17
:1039C80022462B46FCF7B4FD50A3D3E90023FCF7AD
:1039D800FBFB22462B46FCF7ABFD4EA3D3E90023A5
:1039E800FCF7F4FB2B462246FCF7A2FD3A4B9F421C
:1039F80082468B462CDC0022384B20462946FCF7B1
:103A080097FD524606460F465B4620462946FCF778
:103A18008FFDDDE9002304460D4640464946FCF784
:103A280087FD02460B4620462946FCF7CDFB024699
:103A38000B4630463946FCF7C7FB0B462849024679
:103A48000020FCF7C1FB41EC100B05B0BDE8F08F7E
:103A5800244B23499F42D7BFA7F50013224F0022CA
:103A68001646D4BF1F46002632463B460020FCF7C8
:103A7800ABFB0022CDE90201184B20462946FCF792
:103A880057FD32463B46FCF79FFB524606460F461B
:103A98005B4620462946FCF74BFDDDE9002304463A
:103AA8000D4640464946FCF743FD02460B46204674
:103AB8002946FCF789FB02460B4630463946FCF797
:103AC80083FB02460B46DDE90201BAE70020044900
:103AD800B9E700BFAFF300803233D33F0000E03FC7
:103AE8000000F03F0000E93F0000D23FD43888BE14
:103AF800E9FAA8BDC4B1B4BD9EEE213EAD529C808A
:103B08004F7E923E9015CB19A001FA3E7751C1160F
:103B18006CC1563F4C5555555555A53F0000000002
:103B28002DE9F04F2DED028BADF5197DD41E0693CE
:103B38000291C34BA499099053F821300093069B36
:103B4800013B0493182394FBF3F46FF0170324EA62
:103B5800E47404FB033303EB020A009B049A9FED11
:103B6800B48B03EB0208A59BA71A20AE03EB8709C9
:103B78000025454513DD9FEDAE8B0DF5E07B002656
:103B8800009B9E4232DC099B0393069B9D1920AB48
:103B980003EBC503089359EC188B00271FE0EF428D
:103BA80007D459F82500FCF75DFCE6E80201013569
:103BB800DFE751EC180BF8E70899039D71E9022338
:103BC8000891F5E802010395FCF7B2FC02460B46A2
:103BD80040464946FCF7FAFA013780468946049B75
:103BE8009F42E9DDEBE802890136C9E7009B009FA7
:103BF8000CAA02EB83030B93A59B03EB84030A93A4
:103C080098AB07F1005B03EBC7030BF1FF3B53E9EC
:103C180028894FEACB030893089A98AB1344A3F179
:103C2800980B0026BB1B002B77DC49EC108B504609
:103C380000F00EFC55EC104B00224FF07F5310EEB5
:103C4800100A2946FCF774FC41EC100B00F07CFBD1
:103C5800002251EC100B7B4BFCF76AFC02460B462A
:103C680020462946FCF7B0FA0D460446FCF7FAFE52
:103C78000390FCF7F7FB02460B4620462946FCF763
:103C8800A3FABAF1000F804689466BDD7A1E0CABA9
:103C9800CAF1180153F82200039C40FA01F31C44AE
:103CA8008B40C01A0CAB039443F82200CAF11703E7
:103CB80040FA03FBBBF1000F62DD039B00220133D6
:103CC800039314466FF07F41974200F38980BAF15D
:103CD800000F07DDBAF1010F00F09680BAF1020F6C
:103CE80000F09C80BBF1020F4AD142464B460020AF
:103CF8005549FCF769FA80468946002C40D0504661
:103D08009FED4D0B00F0A4FB4046494653EC102BA9
:103D1800FCF75AFA8046894632E000224B4B40466F
:103D28004946FCF705FCFCF79DFEFCF79BFB0022CF
:103D3800474B04460D46FCF7FBFB02460B46404644
:103D48004946FCF741FAFCF78DFE0CAB294643F8CF
:103D580026007BE902232046FCF738FA0136804624
:103D680089465FE706D17B1E0CAA52F823004FEA6A
:103D7800E05B9FE70022374BFCF760FE68BB834699
:103D88000022002340464946FCF73AFE002800F08E
:103D9800C1807C1E2346002200998B425CDA002AEF
:103DA80040F08B8001246FF0030202FB04F30B99AF
:103DB800CB58002B56D0089B98AA1344A3F1900B1C
:103DC800069BDD1920AB03EBC505E3197E1C0393A5
:103DD800039B9E4248DD1F4612E74FF0020B6CE73B
:103DE8000CAB53F822304CB92BB10CA8C3F180733B
:103DF80040F82230012301321C4665E70CA8CB1A93
:103E080040F822302346F6E77A1E0CAB53F82230EE
:103E1800C3F316030CA941F8223063E77A1E0CABF2
:103E280053F82230C3F31503F4E700BFAFF3008063
:103E38000000000000000000000000000000F03F4B
:103E480048470008000020400000F03F0000703E96
:103E5800000070410000E03F0CA951F82310013B1D
:103E68000A4399E70134A0E70A9B53F82600FCF7B8
:103E7800F9FAE5E80201099B08951C4600274FF06E
:103E880000084FF00009049B9F4203DDEBE802891C
:103E980001369DE7089971E902230891F4E80201C7
:103EA800FCF746FB02460B4640464946FCF78EF9AE
:103EB800013780468946E6E7013C0CABAAF1180AAF
:103EC80053F82430002BF7D050469FEDB50B00F087
:103ED800BFFAE50098AB03EB050957EC106BA9F1A5
:103EE8009809A046B8F1000F4DDA9FEDAF8B0DF59C
:103EF800907A002304935746049BB4EB030976D4C5
:103F0800AB4B1E4670AB03EBC9098DED068B4FF02A
:103F180000085EE0CAF1000049EC108B00F098FA46
:103F280055EC104B0022A34B10EE100A2946FCF763
:103F380085FDF8B10022A04B20462946FCF7F8FA87
:103F4800FCF790FD0646FCF78DFA0022994BFCF72A
:103F5800EFFA0B46024629462046FCF735F9FCF7EE
:103F680081FD7C1C0CAB0AF1180A43F8270043F8C2
:103F78002460A9E720462946FCF774FD0CAB3C46B3
:103F880043F82700A0E70CAB53F82800FCF76AFABF
:103F980032463B46FCF7CCFA002269E90201864B1F
:103FA80030463946FCF7C4FA08F1FF3806460F4692
:103FB80098E7F9E80223F6E80201FCF7B9FA0246A5
:103FC8000B46DDE90601FCF701F9CDE9060108F128
:103FD8000108009B984502DC049B9845E9DD049B99
:103FE8009DED067B0133AAEC027B049384E7A49B36
:103FF800032B5DD8DFE803F04B26260298AB1D445F
:10400800A5F59C752E46A246BAF1000F6EDC2E4629
:10401800A246BAF1010F00F38A8000200021012C8A
:1040280000F3A680BBF1000F40F0A880DDE948232B
:10403800029CC4E90023DDE94A23C4E90401C4E978
:10404800022335E0083548AB1D44264600200021F0
:10405800002E3CDABBF1000F3FD0024601F10043CD
:10406800029DC5E9002302460B46DDE94801FCF73D
:10407800ABF84AAE0125AC4232DABBF1000F02D0F0
:1040880001F100431946029BC3E9020110E098AB15
:104098001D44A5F59C7500200021002C11DABBF108
:1040A800000F02D001F100431946029BC3E9000149
:1040B800039B03F007000DF5197DBDEC028BBDE8ED
:1040C800F08F75E90223FCF781F8013CE5E775E913
:1040D8000223FCF77BF8013EBAE702460B46BFE72E
:1040E800F6E80223FCF772F80135C4E716ED027B07
:1040F80056E9048953EC172B404649468DED007B61
:10410800FCF764F8CDE9040102460B4640464946EF
:10411800FCF75AF8DDE90023FCF758F89DED047B1D
:1041280066E902010AF1FF3A06ED027B6CE716ED3B
:10413800027B56E9048953EC172B404649468DED1E
:10414800007BFCF743F8CDE9040102460B464046E4
:104158004946FCF739F8DDE90023FCF737F89DED0F
:10416800047B66E902010AF1FF3A06ED027B50E79B
:1041780075E90223FCF72AF8013C50E7029A3B68EC
:1041880013607B68106103F100435360BB68936060
:10419800FB6803F10043D36001F10043536187E7F3
:1041A800000000000000F03F0000000000000000D8
:1041B80008470008000070410000703E0000000041
:1041C8002DE9F04F55EC104B85B025F00043B3F1C5
:1041D800795F8DED001B029006DA10EE100A294671
:1041E800FCF740FC002851D022462B4620462946A1
:1041F800FCF79EF982468B4602460B462046294626
:10420800FCF796F941A3D3E9002380468946504636
:104218005946FCF78DF93FA3D3E90023FBF7D4FFF8
:1042280052465B46FCF784F93CA3D3E90023FBF72D
:10423800CDFF52465B46FCF77BF93AA3D3E900234E
:10424800FBF7C2FF52465B46FCF772F937A3D3E986
:104258000023FBF7BBFF029B06460F46DBB902466D
:104268000B4650465946FCF763F925A3D3E90023CA
:10427800FBF7AAFF42464B46FCF75AF902460B46A3
:1042880020462946FBF7A2FF04460D4645EC104B95
:1042980005B0BDE8F08F00221B4BDDE90001FCF7FB
:1042A80047F93246CDE902013B4640464946FCF70C
:1042B8003FF902460B46DDE90201FBF785FF52464E
:1042C8005B46FCF735F9DDE90023FBF77DFF0CA31E
:1042D800D3E9002306460F4640464946FCF728F92D
:1042E80002460B4630463946FBF770FF02460B463E
:1042F80020462946FBF768FFC6E700BFAFF30080FA
:10430800495555555555C53F0000E03F7CD5CF5A16
:104318003AD9E53DEB9C2B8AE6E55A3E7DFEB1573E
:10432800E31DC73ED561C119A0012A3FA6F81011A7
:104338001111813F53EC102B23F0004343EC102B59
:10434800704700000000000051EC100B2DE9F0410F
:10435800C1F30A57A7F2FF36132E10EE108A0C4647
:1043680010EE105A35DC002E17DA35A3D3E90023F6
:10437800FBF72CFF00220023FCF76AFB50B1002C4E
:104388005ADA24F0004353EA08032F4B4FF0000594
:1043980018BF1C462146284625E02C4F374101EA24
:1043A800070303431FD026A3D3E90023FBF70EFF1F
:1043B80000220023FCF74CFB0028EBD0002CBEBFEA
:1043C8004FF4801343FA06F6A41924EA07040025DB
:1043D800E0E7332E0BDDB6F5806F04D110EE102A1E
:1043E8000B46FBF7F3FE41EC100BBDE8F081A7F29A
:1043F80013474FF0FF3323FA07F73842F3D010A3DF
:10440800D3E90023FBF7E2FE00220023FCF720FBA0
:104418000028BFD0002C02DA142E03D1013425EA7B
:104428000705B7E70123C6F1340603FA06F6354453
:10443800A84588BFE418F2E700252C46AAE700BF84
:104448009C7500883CE4377E0000F0BFFFFF0F003A
:1044580070B555EC104BC5F30A5206462B46B2B957
:1044680025F0004323433CD00022334B294610EE6D
:10447800100AFCF75DF8314A964204460D460B4691
:1044880013DA29A3D3E90023FCF752F80AE040F233
:10449800FF718A420CD110EE102A2B46204629467D
:1044A800FBF794FE04460D461BE0C1F30A52363A68
:1044B800324440F2FE718A420BDD45EC114B9FED10
:1044C8001C0B00F03FF81AA3D3E9002351EC100BA2
:1044D800DAE7002A08DD23F0FF4323F4E00343EA88
:1044E800025545EC104B70BD12F1350F0DDA4CF248
:1044F80050339E4245EC114BE1DC9FED0B0B00F075
:1045080021F809A3D3E90023E0E723F0FF4336327B
:1045180023F4E00343EA0255204629460022084BCB
:10452800B2E700BFAFF3008059F3F8C21F6EA501D0
:104538009C7500883CE4377E00005043B03CFFFF88
:104548000000903C53EC102B11EE900A23F0004130
:1045580000F0004041EA000343EC102B70470000D4
:10456800F8B500BFF8BC08BC9E467047F8B500BF58
:08457800F8BC08BC9E46704728
:10458000FB21F93FFB2109407CD91240FB21194056
:104590007A6A1F407CD92240BBFD2540FB2129407F
:1045A0003A462C407A6A2F405C4731407CD93240F1
:1045B0009C6B3440BBFD3540DB8F3740FB213940DD
:1045C0001BB43A403A463C405AD83D407A6A3F4094
:1045D0004C7E40405C4741406C1042407CD9424098
:1045E0008CA243409C6B4440AC344540BBFD4540ED
:1045F000CBC64640DB8F4740EB584840FB21494043
:1046000083F9A200444E6E00FC291500D157270003
:10461000DD34F50062DBC0003C9995004190430019
:104620006351FE00BBDEAB00B761C5003A6E2400EB
:10463000D24D42004906E00009EA2E001C92D1004A
:10464000EB1DFE0029B11C00E83EA700F5358200F5
:1046500044BB2E009CE98400B4267000417E5F00BC
:10466000D6913900538339009CF439008B5F840064
:1046700028F9BD00F81F3B00DEFF97000F980500EA
:10468000112FEF000A5A8B006D1F6D00CF7E360090
:1046900009CB2700464FB7009E663F002DEA5F001A
:1046A000BA277500E5EBC7003D7BF100F73907003D
:1046B00092528A00FB6BEA001FB15F00085D8D001B
:1046C000300356007BFC4600F0AB6B0020BCCF00F3
:1046D00036F49A00E3A91D005E619100081BE60014
:1046E00085996500A0145F008D40680080D8FF00A8
:1046F00027734D0006063100CA561500C9A873007D
:104700007BE260006B8CC00000000040FB21F93FA1
:10471000000000002D44743E000000809846F83CE4
:104720000000006051CC783B00000080831BF03912
:104730000000004020257A38000000802282E33605
:10474000000000001DF369350200000003000000B6
:08475000040000000600000057
:04475800AD010008A7
:04475C0089010008C7
:104760000000000000000000010203040607080921
:04477000007A030ABE
:040000050800313589
:00000001FF
