:020000040800F2
:10000000000002208D320008E5320008E9320008C5
:10001000ED320008F1320008F5320008000000005F
:10002000000000000000000000000000F93200089D
:10003000FD3200080000000001330008053300080D
:10004000E1320008E1320008E1320008E132000844
:10005000E1320008E132000815330008413300089E
:10006000E1320008E1320008E1320008E132000824
:10007000E1320008E1320008E1320008E132000814
:10008000C1330008C5330008E1320008E13200083E
:10009000E1320008E1320008E1320008E1320008F4
:1000A000E1320008E1320008E1320008E1320008E4
:1000B000E1320008E1320008E1320008E1320008D4
:1000C000E1320008E1320008E1320008E1320008C4
:1000D000E1320008E1320008C9330008E1320008CB
:1000E00061330008E1320008E1320008E132000823
:1000F000E1320008E1320008E1320008E132000894
:10010000E1320008E1320008E1320008E132000883
:10011000E1320008E1320008E1320008E132000873
:1001200099330008E1320008E1320008E1320008AA
:10013000E1320008E1320008E1320008E132000853
:10014000E1320008E1320008E1320008E132000843
:10015000E1320008E1320008E1320008E132000833
:10016000E1320008E1320008E1320008E132000823
:10017000E1320008E1320008E1320008E132000813
:08018000E1320008E132000841
:1001880010B5054C237833B9044B13B10448AFF3C9
:1001980000800123237010BD14000020000000001F
:1001A800C046000808B5034B1BB103490348AFF329
:1001B800008008BD0000000018000020C0460008AC
:1001C80081F0004102E000BF83F0004330B54FEA00
:1001D80041044FEA430594EA050F08BF90EA020F6D
:1001E8001FBF54EA000C55EA020C7FEA645C7FEA00
:1001F800655C00F0E2804FEA5454D4EB5555B8BF23
:100208006D420CDD2C4480EA020281EA030382EA93
:10021800000083EA010180EA020281EA0303362D25
:1002280088BF30BD11F0004F4FEA01314FF4801CF8
:100238004CEA113102D0404261EB410113F0004F0A
:100248004FEA03334CEA133302D0524263EB4303C1
:1002580094EA050F00F0A780A4F10104D5F1200E5F
:100268000DDB02FA0EFC22FA05F2801841F10001BA
:1002780003FA0EF2801843FA05F359410EE0A5F18E
:1002880020050EF1200E012A03FA0EFC28BF4CF0BF
:10029800020C43FA05F3C01851EBE37101F0004575
:1002A80007D54FF0000EDCF1000C7EEB00006EEB82
:1002B8000101B1F5801F1BD3B1F5001F0CD349080C
:1002C8005FEA30004FEA3C0C04F101044FEA445263
:1002D80012F5800F80F09A80BCF1004F08BF5FEAEA
:1002E800500C50F1000041EB045141EA050130BDCA
:1002F8005FEA4C0C404141EB010111F4801FA4F16D
:100308000104E9D191F0000F04BF01460020B1FAC1
:1003180081F308BF2033A3F10B03B3F120020CDAF9
:100328000C3208DD02F1140CC2F10C0201FA0CF0D7
:1003380021FA02F10CE002F11402D8BFC2F1200C3C
:1003480001FA02F120FA0CFCDCBF41EA0C019040F2
:10035800E41AA2BF01EB0451294330BD6FEA04043B
:100368001F3C1CDA0C340EDC04F11404C4F1200226
:1003780020FA04F001FA02F340EA030021FA04F338
:1003880045EA030130BDC4F10C04C4F1200220FA8F
:1003980002F001FA04F340EA0300294630BD21FACD
:1003A80004F0294630BD94F0000F83F4801306BF93
:1003B80081F480110134013D4EE77FEA645C18BF87
:1003C8007FEA655C29D094EA050F08BF90EA020F1E
:1003D80005D054EA000C04BF1946104630BD91EA16
:1003E800030F1EBF0021002030BD5FEA545C05D119
:1003F8004000494128BF41F0004130BD14F5800458
:100408003CBF01F5801130BD01F0004545F0FE41CB
:1004180041F470014FF0000030BD7FEA645C1ABF00
:10042800194610467FEA655C1CBF0B46024650EA37
:10043800013406BF52EA033591EA030F41F4002163
:1004480030BD00BF90F0000F04BF0021704730B5E9
:100458004FF4806404F132044FF000054FF00001BE
:1004680050E700BF90F0000F04BF0021704730B57F
:100478004FF4806404F1320410F0004548BF404254
:100488004FF000013EE700BF42004FEAE2014FEAA9
:1004980031014FEA02701FBF12F07F4393F07F4F84
:1004A80081F06051704792F0000F14BF93F07F4FB6
:1004B800704730B54FF4607401F0004521F00041F9
:1004C80020E700BF50EA010208BF704730B54FF07F
:1004D80000050AE050EA010208BF704730B511F084
:1004E800004502D5404261EB41014FF4806404F1BC
:1004F80032045FEA915C3FF4DCAE4FF003025FEA3E
:10050800DC0C18BF03325FEADC0C18BF033202EBC5
:10051800DC02C2F1200300FA03FC20FA02F001FA1F
:1005280003FE40EA0E0021FA02F11444C1E600BFBE
:1005380070B54FF0FF0C4CF4E06C1CEA11541DBF71
:100548001CEA135594EA0C0F95EA0C0F00F0DEF83C
:100558002C4481EA030621EA4C5123EA4C5350EA21
:10056800013518BF52EA033541F4801143F4801372
:1005780038D0A0FB02CE4FF00005E1FB02E506F003
:100588000042E0FB03E54FF00006E1FB03569CF058
:10059800000F18BF4EF0010EA4F1FF04B6F5007F5E
:1005A80064F5407404D25FEA4E0E6D4146EB0606D0
:1005B80042EAC62141EA55514FEAC52040EA5E5059
:1005C8004FEACE2EB4F1FD0C88BFBCF5E06F1ED803
:1005D800BEF1004F08BF5FEA500E50F1000041EB3A
:1005E800045170BD06F0004646EA010140EA0200E7
:1005F80081EA0301B4EB5C04C2BFD4EB0C0541EA09
:10060800045170BD41F480114FF0000E013C00F31D
:10061800AB8014F1360FDEBF002001F0004170BD41
:10062800C4F10004203C35DA0C341BDC04F114045A
:10063800C4F1200500FA05F320FA04F001FA05F2E6
:1006480040EA020001F0004221F0004110EBD370B3
:1006580021FA04F642EB06015EEA430E08BF20EADF
:10066800D37070BDC4F10C04C4F1200500FA04F382
:1006780020FA05F001FA04F240EA020001F0004114
:1006880010EBD37041F100015EEA430E08BF20EA87
:10069800D37070BDC4F1200500FA05F24EEA020ECF
:1006A80020FA04F301FA05F243EA020321FA04F0FE
:1006B80001F0004121FA04F220EA020000EBD370B5
:1006C8005EEA430E08BF20EAD37070BD94F0000FB5
:1006D8000FD101F00046400041EB010111F4801FE9
:1006E80008BF013CF7D041EA060195F0000F18BF9A
:1006F800704703F00046520043EB030313F4801FD6
:1007080008BF013DF7D043EA0603704794EA0C0F8F
:100718000CEA135518BF95EA0C0F0CD050EA4106A5
:1007280018BF52EA4306D1D181EA030101F0004122
:100738004FF0000070BD50EA410606BF104619464A
:1007480052EA430619D094EA0C0F02D150EA013656
:1007580013D195EA0C0F05D152EA03361CBF104697
:1007680019460AD181EA030101F0004141F0FE4136
:1007780041F470014FF0000070BD41F0FE4141F4BA
:10078800780170BD70B54FF0FF0C4CF4E06C1CEABA
:1007980011541DBF1CEA135594EA0C0F95EA0C0F6F
:1007A80000F0A7F8A4EB050481EA030E52EA03352A
:1007B8004FEA013100F088804FEA03334FF080554B
:1007C80045EA131343EA12634FEA022245EA111578
:1007D80045EA10654FEA00260EF000419D4208BF29
:1007E800964244F1FD0404F5407402D25B084FEAD6
:1007F8003202B61A65EB03055B084FEA32024FF482
:1008080080104FF4002CB6EB020E75EB030E22BFDE
:10081800B61A754640EA0C005B084FEA3202B6EB9E
:10082800020E75EB030E22BFB61A754640EA5C004D
:100838005B084FEA3202B6EB020E75EB030E22BFDD
:10084800B61A754640EA9C005B084FEA3202B6EBDE
:10085800020E75EB030E22BFB61A754640EADC009D
:1008680055EA060E18D04FEA051545EA16754FEAFF
:1008780006164FEAC30343EA52734FEAC2025FEA1D
:100888001C1CC0D111F4801F0BD141EA00014FF0AC
:1008980000004FF0004CB6E711F4801F04BF01437D
:1008A8000020B4F1FD0C88BFBCF5E06F3FF6AFAE99
:1008B800B5EB030C04BFB6EB020C5FEA500C50F129
:1008C800000041EB045170BD0EF0004E4EEA1131AC
:1008D80014EB5C04C2BFD4EB0C0541EA045170BDB3
:1008E80041F480114FF0000E013C90E645EA060EF7
:1008F8008DE60CEA135594EA0C0F08BF95EA0C0F25
:100908003FF43BAF94EA0C0F0AD150EA01347FF46C
:1009180034AF95EA0C0F7FF425AF104619462CE743
:1009280095EA0C0F06D152EA03353FF4FDAE1046A6
:10093800194622E750EA410618BF52EA43067FF4F7
:10094800C5AE50EA41047FF40DAF52EA43057FF487
:10095800EBAE12E74FF0FF3C06E000BF4FF0010C92
:1009680002E000BF4FF0010C4DF804CD4FEA410CF6
:100978007FEA6C5C4FEA430C18BF7FEA6C5C1BD0C3
:1009880001B050EA410C0CBF52EA430C91EA030F44
:1009980002BF90EA020F0020704710F1000F91EAA1
:1009A800030F58BF994208BF90422CBFD8176FEA6F
:1009B800E37040F0010070474FEA410C7FEA6C5C3D
:1009C80002D150EA013C07D14FEA430C7FEA6C5C44
:1009D800D6D152EA033CD3D05DF8040B704700BF70
:1009E8008446104662468C461946634600E000BFBE
:1009F80001B5FFF7B7FF002848BF10F1000F01BD90
:100A08004DF808EDFFF7F4FF0CBF012000205DF85A
:100A180008FB00BF4DF808EDFFF7EAFF34BF0120DF
:100A280000205DF808FB00BF4DF808EDFFF7E0FF78
:100A380094BF012000205DF808FB00BF4DF808EDC9
:100A4800FFF7CEFF94BF012000205DF808FB00BF30
:100A58004DF808EDFFF7C4FF34BF012000205DF812
:100A680008FB00BF4FEA410212F5001215D211D55A
:100A78006FF47873B3EB625212D94FEAC12343F093
:100A8800004343EA505311F0004F23FA02F018BF15
:100A9800404270474FF00000704750EA013005D1DE
:100AA80011F0004008BF6FF0004070474FF00000A1
:100AB800704700BF4A0011D212F5001211D20DD5AD
:100AC8006FF47873B3EB62520ED44FEAC12343F04C
:100AD800004343EA505323FA02F070474FF00000F6
:100AE800704750EA013002D14FF0FF3070474FF0A5
:100AF800000070474FEA4102B2F1E04324BFB3F56A
:100B0800001CDCF1FE5C0DD901F0004C4FEAC0027C
:100B18004CEA5070B2F1004F40EB830008BF20F060
:100B28000100704711F0804F21D113F13872BCBF1A
:100B380001F00040704741F480114FEA5252C2F16F
:100B48001802C2F1200C10FA0CF320FA02F018BFB8
:100B580040F001004FEAC1234FEAD32303FA0CFC0B
:100B680040EA0C0023FA02F34FEA4303CCE77FEA9A
:100B7800625307D150EA01331EBF4FF0FE4040F4E4
:100B88004000704701F0004040F0FE4040F4000093
:100B9800704700BF0000000070B55D4D2DED028B61
:100BA80057A1D1E900019FED5B8AA5F5006640F2E7
:100BB800FF1407E0FFF768FC41EC100B02F038FD6A
:100BC80051EC100B013CA4B2FFF794FF07EE904ADA
:100BD800F8EEE77A45F8040D67EE887AB54217EE25
:100BE800900AE7D14C4D9FED4B8AA5F5006646A1CA
:100BF800D1E9000140F2FF1407E0FFF745FC41ECA2
:100C0800100B02F0D1FC51EC100B013CA4B2FFF721
:100C180071FF07EE904AF8EEE77A45F8040D67EEA3
:100C2800887AAE4217EE900AE7D1DFED3C4A9FED95
:100C38003C4AB0EE646AF0EE645AB0EE645A40F290
:100C4800FF1307EE903AF8EEE77A013B67EE847AF5
:100C58005A1C67EEA76A35EE275A27EEA67A75EE74
:100C6800A65A36EE076AE7EE874AEAD166EE466A82
:100C780024EEC57AE5EEA46ABDEC028BDFED292AE5
:100C8800294BA5EE867A65EEE57A26EEA23AF0EED5
:100C9800673AE5EE063AA7EE053AB7EE002AA5EE62
:100CA800A33A22EEC66A82EE034A25EE453AA5EE3D
:100CB800256AE4EEA27AB0EE435AA5EEA25AF0EE07
:100CC800674A64EE235A66EE047A27EE047A25EE24
:100CD800045A24EE846A66EE846A83ED085AC3EDEA
:100CE800077AC3ED065AC3ED057A83ED046A83EDEE
:100CF800037AC3ED025A83ED017AC3ED006A70BD31
:100D0800408C5131BF2189BF4AC5871762FFEF3F29
:100D180090900120DB0F493C3008002000000000C3
:100D28000AD7233800000044209101202DE9F04320
:100D380007EE901A254A9FED265A264BD2ED045A03
:100D480092ED076A244F254CD2ED056A92ED087A98
:100D5800234DDFED243ADFED242A9FED243A9FED61
:100D6800240ADFED240A9FED241ADFED241A9FEDF3
:100D7800242A2DED0C8BF8EEE77A92ED039AD2ED4A
:100D8800068A1B789FED1F8A1F4A67EE857A03EB58
:100D98004306A7EEA59A01EB410EB603E7EE868A55
:100DA80089007B1867EEA77A06EB4E16214493ED6F
:100DB800004ADFF85CE0D1ED004A144BA7EEA69A92
:100DC8002E440527E7EE878A92E000BF2091012094
:100DD8000AD7233848F101209088012030000020EC
:100DE800A00800202003482AE02E6542610B363B0C
:100DF800CDCC4C3E2549123E398EE33D8C2EBA3D72
:100E0800D9899D3DABAAAA3E40080020A8900120A0
:100E1800CCF20120000000000000B4432359C73F72
:100E28008988883DF1F0703D310C433D3694573D3B
:100E3800DB0FC93FDB0F4940F5EE409AF1EE10FA9F
:100E480040F0F4811FED0DAAF5EE406AB0EE4A7A43
:100E5800F1EE10FA06ED037A40F04081B5EE406AF3
:100E6800F1EE10FA40F0D4815FED166AF0EE667A82
:100E780053ED069A13ED046A46ED017A39EE855A68
:100E880076EE255A022F03ED065A43ED045A00F276
:100E9800E581B5EEC0AAF1EE10FA48BF5FED227AFF
:100EA800F5EEC06A48BF3AEE27AA53ED057AF1EE8F
:100EB80010FA37EE8AAA48BF5FED297A03ED05AA32
:100EC80048BF76EEA76A53ED037A013F77EEA66A2C
:100ED800FFB2FF2F43ED036A00F1040002F1100294
:100EE8000EF1040E06F1100603F1180300F0AC81B0
:100EF80004884188B0F800903EF9048C45883EF992
:100F080002CC52ED039A12ED016A12ED04AA52EDD9
:100F1800026A0FFA89F9A9EB080907EE909A2DB22F
:100F2800A5EB0C05B8EEE77A07EE905A24B2F8EE76
:100F3800E77A09B2A4EB0804A1EB0C01E4EE079AE6
:100F4800A4EE276A07EE104A07EE901AB8EEC77AA1
:100F5800F8EEE77AA4EE87AAE4EEA76A29EEA95A82
:100F680066EE065AAAEE0A5AE6EEA65A25EE235A65
:100F780065EEA35AB5EE40AAF1EE10FA42ED039AD7
:100F880002ED04AA06ED045A02ED016A46ED025A82
:100F980042ED026A3FF450AFB1EE697AC7EE0A7AC1
:100FA800B7EE007AF0EEE77AF4EEC77AF1EE10FACF
:100FB80040F35181C7EE277A03240121B6EE007A67
:100FC800F4EEC77AF1EE10FA0ADD1FED6C7AF7EE4F
:100FD80000AAE7EE87AA214637EE677AC7EE2A7A93
:100FE800012967EEE7AA27EE88CA2AEE80DA2CEEF6
:100FF8002ACA6AEEA0CA2DEE0CDA37EE8C7A6CEEAD
:101008008DCA2AEE81CA37EE0D7A2CEE2CCA2AEE4A
:10101800A1DA37EE2C7A2DEE0CDA6AEE82CA37EEB8
:101028000C7A1FED81CA1FED81BA5FED807A5FED02
:1010380082BA6CEE8DCA2AEE8CCA37EE0D7A2CEE87
:101048002CCA2AEE8BBA37EE2C7A2BEE0CBA6AEE43
:10105800A77A37EE0C7A67EE8B7A37EE0B7A6AEE60
:10106800ABAA37EE277AAAEEA77A05D9F7EE007A67
:10107800023937EEC77AC9B2012908BF5FED947A01
:10108800B5EEC0AA08BF37EEC77AF1EE10FA40F104
:10109800CF80F5EEC09A5FED997AF1EE10FACCBFE9
:1010A80037EE677A37EEC77A4FF4B47167EE229A53
:1010B80069EE837AF5EE406AFDEEE77AF1EE10FA12
:1010C80017EE904A01FB04F40AEE104AF8EECA7AC9
:1010D80006ED037A39EEE7AA3FF4C0AEF1EE469A80
:1010E800C9EEA67AF7EE009AF0EEE77AF4EEE97A1E
:1010F800F1EE10FA40F3AC80C9EEA77A032401217F
:10110800F6EE009AF4EEE97AF1EE10FA0ADD5FEDF8
:10111800BD9AF7EE00AAE7EEA9AA214679EEE79A6A
:10112800C9EEAA7A012967EEE79A27EE88CA29EE5E
:1011380080DA2CEE29CA69EEA0CA2DEE0CDA77EE19
:101148008C7A6CEE8DCA29EE81CA77EE8D7A2CEEF8
:101158002CCA29EEA1DA77EEAC7A2DEE0CDA69EE1C
:1011680082CA77EE8C7A1FEDD2CA1FEDD2BA5FED34
:10117800D1AA5FEDD3BA6CEE8DCA29EE8CCA77EE90
:101188008D7A2CEE2CCA29EE8BBA77EEAC7A2BEE40
:101198000CBA69EEAAAA77EE8C7A6AEE8BAA77EE79
:1011A8008B7A69EEAB9A77EEAA7AE9EEAA7A05D934
:1011B800F7EE009A023979EEE77AC9B2012908BF39
:1011C8005FEDE59AF5EEC06A08BF79EEE77AF1EED1
:1011D80010FA1FD5B5EEC06A5FEDEA6AF1EE10FAB3
:1011E800CCBF77EEE67A76EEE77A4FF4B47127EE65
:1011F800A26A66EE036AFDEEE66A16EE904A01FB05
:1012080004F406EE904AF8EEE66A76EE666A2FE691
:10121800DFED197AB5EEC06AF1EE10FAC8BFF1EE4B
:10122800677A27EEA26A4FF4B471E2E79FED127A6B
:10123800F5EEC09AF1EE10FAC8BFB1EE477A67EE44
:10124800229A4FF4B47133E7BDEC0C8BBDE8F08300
:101258000224002154E702240021AFE613ED026ABC
:1012680053ED017AA9EE076AE8EE877A03ED026A80
:1012780043ED017A0DE600BFDB0FC93F30B4794B6F
:101288009FED797A93ED040ADFED781AD3ED0A0A17
:10129800DFED777A93ED001AD3ED022A93ED013A48
:1012A800D3ED033A9FED732AD3ED075A93ED054A20
:1012B800D3ED064A93ED085A93ED096AD3ED0B6A0C
:1012C8006D492DED028BB0EE478AA0EE218A0022EF
:1012D800DA6121EE271AB0EE480AB0EE478AA0EE8E
:1012E800A18A1A605A6062EEA72A23EE273A63EEB3
:1012F800A73A64EEA74A25EE275A65EEA75A26EEC6
:10130800276A24EE024A66EE826A81ED001AC1ED70
:10131800022A81ED013AC1ED033A81ED054AC1ED9A
:10132800064A81ED085AC1ED075A81ED096AC1EDF7
:101338000B6A81ED0A8A81ED040A9A60DA601A6103
:101348005A6193ED101A93ED0C3AD3ED0E3A93EDE2
:101358000D4AD3ED0F4A93ED125AD3ED145A93ED7B
:10136800136AD3ED112AD3ED156A9A61A1EE217A99
:101378001A625A6263EEA73A24EE274A64EEA74A35
:1013880025EE275A65EEA75A26EE276A66EEA76A63
:1013980023EE273A62EE822A81ED107AC1ED0E3AE9
:1013A80081ED0D4AC1ED0F4A81ED125AC1ED145A73
:1013B80081ED136AC1ED156A9A62DA62C1ED112AEC
:1013C80081ED0C3A1A639A64DA641A655A639A636F
:1013D800DA631A64D3ED183A93ED1A4AD3ED194A31
:1013E80093ED1B5AD3ED1E5A93ED206AD3ED1F6A75
:1013F80093ED217A5A6463EEA73A24EE274A64EE05
:10140800A74A25EE275A65EEA75A26EE276A66EE02
:10141800A76A67EE277A5A659A65DA65C1ED183AC0
:101428001A6681ED1A4AC1ED194A81ED1B5AC1EDC0
:101438001E5A9A6781ED206AC1ED1F6AC1ED217AB3
:101448005A669A66DA661A675A67DA67C3F88020B6
:10145800C3F88420C3F88820C3F88C20BDEC028B25
:1014680030BC7047909001200000484283F9223E2A
:101478000000003B83F9A23E38F20120162930D83B
:1014880070B42A4D8B086C6C9B0003F1804303F504
:101498009C3344F480446C6401F003049E68A40007
:1014A8006FF00F05A54035409D609D6800FA04F473
:1014B8002C43012A9C6021D02BD3022A12D001226E
:1014C80002FA01F1CC431A4B1868204018605A6898
:1014D80022405A601A680A431A6070BC5A6811435D
:1014E80059607047124B01209A6800FA01F10A43CB
:1014F8009A60DA680A43DA60CC43E4E70C4B02FAF4
:1015080001F19A68CC4322409A60DA680A43DA60AB
:10151800D9E7074B012202FA01F1DA68CC432240ED
:10152800DA609A680A439A60CDE700BF0038024043
:10153800003C0140054A5369034005D0136818422E
:1015480014BF01200020704718467047003C014036
:10155800014B5861704700BF003C0140024A1369C3
:1015680018431061704700BF003C014070B5764DCC
:101578002B6B43F004032B6300BF744B744C0026A1
:101588001E60DE602B6B43F010032B63236823F08F
:101598004063236023682360E36823F04063E360CB
:1015A800E368E360236823F04053236023682360E3
:1015B800E36823F04053E360E368E360236823F4BF
:1015C8004003236023682360E36823F44003E36057
:1015D800E368E360236823F0407323602368236093
:1015E800E36823F04073E360E368E36001220B21C2
:1015F8000420FFF743FF01220C210420FFF73EFFE0
:101608002368544A544923F440332360236843F43D
:10161800803323601660A36843F44033A3606B6C87
:1016280058040BD46B6C4D4A43F480436B64136AC3
:1016380043F001031362136ADB05FCD5444B4248AF
:10164800DA6822F44032DA60DA68DA601A6822F47A
:1016580040121A601A680A31890042F48012002484
:101668001A600C609A6842F440129A60436C5A04FB
:101678000BD4436C394A43F480434364136A43F000
:1016880001031362136ADD05FCD5314B2E48DA6875
:1016980022F44012DA60DA68DA601A6822F040420E
:1016A8001A601A68002442F080421A604C619A68F5
:1016B80042F040429A60436C5E040BD4436C274A64
:1016C80043F480434364136A43F001031362136ACB
:1016D800D805FCD51E4B1C48DA6822F04042DA6077
:1016E800DA68DA601A6822F440221A601A6800245C
:1016F80042F480221A6041F8044C9A6842F440226D
:101708009A60436C5C040BD4436C144A43F48043E2
:101718004364136A43F001031362136ADB05FCD5C3
:101728000B4B0F49DA680F4D0F4C104822F440223A
:10173800DA60DA68DA60012300222B600B6023602C
:1017480003600A6070BD00BF003802400008024014
:1017580000100240A0004242208090100038014052
:10176800BC024242A4024242A0024242A8024242B1
:101778006749684B0A6B684842F0080210B50A636B
:101788001A6822F040621A601A68002442F08062E7
:101798001A6004609A6842F040629A604B6C5C047C
:1017A8000BD44B6C5D4A43F480434B64136A43F09B
:1017B80001031362136AD905FCD5564B5449DA68FC
:1017C800574822F04062DA60DA6842F08062DA60F4
:1017D8000A6B42F008020A631A6822F040721A6023
:1017E8001A68002442F080721A6004609A6842F015
:1017F80040729A604B6C58040BD44B6C474A43F4C4
:1018080080434B64136A43F001031362136ADC05D7
:10181800FCD5404B3E49DA68424822F04072DA6013
:10182800DA6842F08072DA600A6B42F008020A63F2
:101838001A6822F040521A601A68002442F0805256
:101848001A6004609A6842F040529A604B6C5B04DC
:101858000BD44B6C314A43F480434B64136A43F016
:1018680001031362136AD905FCD52A4B2849DA68A3
:101878002D4822F04052DA60DA6842F08052DA608D
:101888000A6B42F008020A631A6822F040421A60A2
:101898001A68002442F080421A6004609A6842F094
:1018A80040429A604B6C58040BD44B6C1B4A43F46F
:1018B80080434B64136A43F001031362136ADB0528
:1018C800FCD5144A1248D168184B21F04041D16028
:1018D800D16841F08041D160026B42F0010202639D
:1018E8001A6822F003021A601A681A60DA6822F08D
:1018F8000302DA60DA68DA60002211461046FFF760
:10190800BDFD002210460121BDE81040FFF7B6BD1D
:1019180000380240000C0240B480414200380140C7
:10192800B0804142B8804142BC8041420000024040
:101938000C38032805D8DFE800F00B080502064B31
:1019480019607047054B19607047054B196070475F
:10195800044B1960704700BFBC824142B8824142C3
:10196800B4824142B0824142014B1870704700BFB7
:101978004491012018481949C268194BF0B54FF62F
:10198800FF0422401143C160402210262025302444
:10199800E0214FF0500EF02783F828634FF4803091
:1019A80083F838534FF4807683F811434FF08075ED
:1019B80083F810234FF4003483F826E383F80613E2
:1019C80083F8077380215E605D601C6018605A6050
:1019D8001A601960F0BD00BF00ED00E00003FA05D1
:1019E80000E100E0FFF7D8B82DE9F843714D724ED9
:1019F800724FDFF8D08101210C20FFF799FF33786F
:101A0800298832782C886E48DFF8BCC1DFF8BCE141
:101A1800A4B282F0010204EB440402EB4209E200A2
:101A280002EB093200243C60C8F8004030F802900C
:101A3800ACF8009089B201EB410103EB4309CB00FC
:101A4800DEF8101003EB093309B2C1520244012138
:101A5800C8F80010B2F80290ACF80290DEF81090C6
:101A680003440FFA89F9A3F8029039603C60C8F87A
:101A78000040B2F80490ACF80490DEF810900FFA29
:101A880089F9A3F80490C8F80010B2F80690ACF8E9
:101A98000690DEF810900FFA89F9A3F806903960DD
:101AA8003C60C8F80040B2F80890ACF80890DEF83E
:101AB80010900FFA89F9A3F80890C8F80010B2F846
:101AC8000A90ACF80A90DEF810900FFA89F9A3F89A
:101AD8000A9039603C60C8F80040B2F80C90ACF845
:101AE8000C90DEF810900FFA89F9A3F80C90C8F85A
:101AF8000010B2F80E90ACF80E90DEF810900FFAC5
:101B080089F9A3F80E9039603C60C8F80040B2F833
:101B18001090ACF81090DEF810900FFA89F9A3F83D
:101B28001090C8F80010B2F81290ACF81290DEF8D5
:101B380010900FFA89F9A3F8129039603C60C8F840
:101B48000040B2F81490ACF81490DEF810900FFA38
:101B580089F9A3F81490C8F80010D28AACF81620B6
:101B6800DEF8102012B2DA82396033782A882988A0
:101B780003EB430392B202EB42021B0303EBC203E3
:101B8800184489B2FFF7D2F82B8801339BB2B3F51A
:101B9800007F2B8007D32C803378022083F0010349
:101BA8003370FFF7DBFC00210C20BDE8F843FFF79A
:101BB800BFBE00BF4AF1012048F10120A002424205
:101BC80048910120A8024242C8F2012000080240C0
:101BD8002DE9F04FDFF8D4B3DFF8D493EE4DDFF8FA
:101BE800D483EE4C83B0FFF749FBDBF80000FEF727
:101BF8004BFCE5A3D3E90023FEF7E8FA0022E84B03
:101C0800FEF796FCFEF756FF80B2A9FB0021890972
:101C1800A5FB017CA5FB00234FEADC0CA8FB0072A6
:101C280052090CEB8C0CA1EB4C01A5FB027CDB08E8
:101C38004FEADC0C1FFA83FE0CEB8C0CA2EB4C0277
:101C4800A5FB0E7CD74F03EB83034FEADC0C0CEBB0
:101C58008C0CA0EB4303A7FB0070AEEB4C0E400BC3
:101C68004FF02E0A0EF1300E303230333030303132
:101C780084F804E02070E270DBF8040084F802A025
:101C880063716170FEF700FCC1A3D3E90023FEF77E
:101C98009DFA0022C44BFEF74BFCFEF70BFF80B207
:101CA800A5FB0023A9FB0021DB08A8FB0072BD4FA0
:101CB80084F809A01FFA83FC890903EB8303A7FBB7
:101CC800007EA0EB4300A5FB0173DB08520903EB80
:101CD8008303A1EB4301A5FB0273DB0803EB83033A
:101CE800A2EB4302A5FB0C73DB0803EB8303ACEB0D
:101CF80043034FEA5E3E00F1300C0EF1300E3032F5
:101D080030333031DBF8180084F806E084F80BC073
:101D18002272A372E171FEF7B7FB9BA3D3E90023FC
:101D2800FEF754FA00229E4BFEF702FCFEF7C2FEB5
:101D380080B2A5FB0023A9FB0021DB08A8FB0072E9
:101D4800984F84F80EA01FFA83FC890903EB8303DC
:101D5800A7FB007EA0EB4300A5FB0173DB0852093B
:101D680003EB8303A1EB4301A5FB0273DB0803EB41
:101D78008303A2EB4302A5FB0C73DB0803EB83038D
:101D8800ACEB43034FEA5E3E00F1300C0EF1300E2F
:101D9800303230333031DBF81C0084F80CE084F842
:101DA80011C0E27323746173FEF76EFB78A3D3E965
:101DB8000023FEF70BFA00227B4BFEF7B9FBFEF778
:101DC80079FE80B2A5FB0023A9FB0021DB08A8FB54
:101DD8000072744F84F815A01FFA83FC890903EB7D
:101DE8008303A7FB007EA0EB4300A5FB0173DB0880
:101DF800520903EB8303A1EB4301A5FB0273DB0844
:101E080003EB8303A2EB4302A5FB0C73DB0803EB94
:101E18008303ACEB43034FEA5E3E00F1300C0EF156
:101E2800300E303230333031DBF8300084F812E0D5
:101E380084F817C02275A375E174FEF725FB52A339
:101E4800D3E90023FEF7C2F90022554BFEF770FBD9
:101E5800FEF730FE80B2A5FB0023A9FB0021DB08BA
:101E6800A8FB00724F4F84F81AA01FFA83FC890957
:101E780003EB8303A7FB007EA0EB4300A5FB0173E4
:101E8800DB08520903EB8303A1EB4301A5FB0273B3
:101E9800DB0803EB8303A2EB4302A5FB0C73DB080F
:101EA80003EB8303ACEB43034FEA5E3E00F1300CD7
:101EB8000EF1300E303230333031DBF8340084F834
:101EC80018E084F81DC0E27623776176FEF7DCFA25
:101ED8002FA3D3E90023FEF779F90022324BFEF74E
:101EE80027FBFEF7E7FD80B2A5FB0023A9FB002135
:101EF800DB08A8FB00722B4F84F821A01FFA83FC93
:101F0800890903EB8303A7FB007EA0EB4300A5FB35
:101F18000173DB08520903EB8303A1EB4301A5FB23
:101F28000273DB0803EB8303A2EB4302A5FB0C73EC
:101F3800DB0803EB8303ACEB43034FEA5E3E00F19F
:101F4800300C0EF1300E303230333031DBF84800CF
:101F580084F81EE084F823C084F8202084F8223016
:101F6800E177FEF791FA08A3D3E90023FEF72EF9EB
:101F780000220B4BFEF7DCFAFEF79CFD80B2A5FBB6
:101F8800002319E0AFF30080FCA9F1D24D62403F75
:101F98007B14AE47E17A743FCDCCCCCC80F10120E4
:101FA80000408F405917B7D10000594038F201203E
:101FB800D34D62101F85EB51A9FB0021DB08A8FB5C
:101FC8000072F14F84F826A01FFA83FC890903EBFD
:101FD8008303A7FB007EA0EB4300A5FB0173DB088E
:101FE800520903EB8303A1EB4301A5FB0273DB0852
:101FF80003EB8303A2EB4302A5FB0C73DB0803EBA3
:102008008303ACEB43034FEA5E3E00F1300C0EF164
:10201800300E303230333031DBF84C0084F824E0B5
:1020280084F829C084F8272084F8283084F82510FB
:10203800FEF72AFAD0A3D3E90023FEF7C7F8002257
:10204800D24BFEF775FAFEF735FD80B2A5FB0023EB
:10205800A9FB0021DB08A8FB0072CB4F84F82DA058
:102068001FFA83FC890903EB8303A7FB007EA0EB1F
:102078004300A5FB0173DB08520903EB8303A1EBC3
:102088004301A5FB0273DB0803EB8303A2EB4302C6
:10209800A5FB0C73DB0803EB8303ACEB43034FEAAC
:1020A8005E3E00F1300C0EF1300E303230333031FC
:1020B800DBF8600084F82AE084F82FC084F82C202C
:1020C80084F82E3084F82B10FEF7DEF9ACA3D3E9A0
:1020D8000023FEF77BF80022AD4BFEF729FAFEF746
:1020E800E9FC80B2A5FB0023A9FB0021DB08A8FBC3
:1020F8000072A54F84F832A01FFA83FC890903EB0C
:102108008303A7FB007EA0EB4300A5FB0173DB085C
:10211800520903EB8303A1EB4301A5FB0273DB0820
:1021280003EB8303A2EB4302A5FB0C73DB0803EB71
:102138008303ACEB43034FEA5E3E00F1300C0EF133
:10214800300E303230333031DBF8640084F830E060
:1021580084F835C084F8332084F8343084F831109A
:10216800FEF792F984A3D3E90023FEF72FF80022A3
:10217800864BFEF7DDF9FEF79DFC80B2A5FB002338
:10218800A9FB0021DB08A8FB00727F4F84F839A067
:102198001FFA83FC890903EB8303A7FB007EA0EBEE
:1021A8004300A5FB0173DB08520903EB8303A1EB92
:1021B8004301A5FB0273DB0803EB8303A2EB430295
:1021C800A5FB0C73DB0803EB8303ACEB43034FEA7B
:1021D8005E3E00F1300C0EF1300E303230333031CB
:1021E800DBF8780084F836E084F83BC084F83820BF
:1021F80084F83A3084F83710FEF746F960A3D3E93B
:102208000023FDF7E3FF624B0022FEF791F9FEF78A
:1022180051FC80B2A9FB00324FEA921EA8FB0013C2
:10222800A5FB0021584A84F83EA0A2FB002CA5FB80
:102238000E72D2085B0902EB8202AEEB4202A5FBEA
:10224800037E4FEADE0EC9080EEB8E0EA3EB4E039B
:102258001FFA81FE01EB8101A0EB4100A5FB0E7185
:10226800C90801EB81013032AEEB410E4FEA5C3C0C
:102278000CF1300C0EF1300E303384F83D2000F1B3
:10228800300284F83CC084F83F30DBF87C0084F8E6
:1022980040E084F84120FEF7F7F837A3D3E900239C
:1022A800FDF794FF0022394BFEF742F9FEF702FCD6
:1022B80080B2A5FB0023A9FB0021DB08A8FB007264
:1022C800314F84F845A01FFA83FC890903EB830387
:1022D800A7FB007EA0EB4300A5FB0173DB085209B6
:1022E80003EB8303A1EB4301A5FB0273DB0803EBBC
:1022F8008303A2EB4302A5FB0C73DB0803EB830308
:10230800ACEB43034FEA5E3E00F1300C0EF1300EA9
:10231800303230333031DBF8080084F842E084F89A
:1023280047C084F8442084F8463084F84310FEF708
:10233800ABF813A3D3E90023FDF748FF0022144BA1
:10234800FEF7F6F8FEF7B6FB80B2A5FB0023A9FB63
:102358000021DB08A8FB00720B4F84F84AA01FFA83
:1023680083FC890903EB8303A7FB007EA0EB4300F2
:10237800A5FB01730EE000BF7B14AE47E17A743F02
:10238800FCA9F1D24D62403F5917B7D1000059401E
:1023980000408F40DB08520903EB8303A1EB4301A4
:1023A800A5FB0273DB0803EB8303A2EB4302A5FB47
:1023B8000C73DB0803EB8303ACEB43034FEA5E3E8D
:1023C80000F1300C0EF1300E303230333031DBF8A2
:1023D8000C0084F848E084F84DC084F84B2084F859
:1023E8004C3084F84910FEF74FF8EFA3D3E90023E7
:1023F800FDF7ECFE0022EE4BFEF79AF8FEF75AFBCB
:1024080080B2A5FB0023A9FB0021DB08A8FB007212
:10241800E84F84F851A01FFA83FC890903EB830372
:10242800A7FB007EA0EB4300A5FB0173DB08520964
:1024380003EB8303A1EB4301A5FB0273DB0803EB6A
:102448008303A2EB4302A5FB0C73DB0803EB8303B6
:10245800ACEB43034FEA5E3E00F1300C0EF1300E58
:10246800303230333031DBF8200084F84EE084F825
:1024780053C084F8502084F8523084F84F10FEF787
:1024880003F8C7A3D3E90023FDF7A0FE0022CA4B37
:10249800FEF74EF8FEF70EFB80B2A5FB0023A9FB62
:1024A8000021DB08A8FB0072C24F84F856A01FFA6F
:1024B80083FC890903EB8303A7FB007EA0EB4300A1
:1024C800A5FB0173DB08520903EB8303A1EB43016E
:1024D800A5FB0273DB0803EB8303A2EB4302A5FB16
:1024E8000C73DB0803EB8303ACEB43034FEA5E3E5C
:1024F80000F1300C0EF1300E303230333031DBF871
:10250800240084F854E084F859C084F8572084F8EB
:10251800583084F85510FDF7B7FFA3A3D3E900237B
:10252800FDF754FE0022A24BFEF702F8FEF7C2FAAE
:1025380080B2A5FB0023A9FB0021DB08A8FB0072E1
:102548009C4F84F85DA01FFA83FC890903EB830381
:10255800A7FB007EA0EB4300A5FB0173DB08520933
:1025680003EB8303A1EB4301A5FB0273DB0803EB39
:102578008303A2EB4302A5FB0C73DB0803EB830385
:10258800ACEB43034FEA5E3E00F1300C0EF1300E27
:10259800303230333031DBF8380084F85AE084F8D0
:1025A8005FC084F85C2084F85E3084F85B10FDF727
:1025B8006BFF7BA3D3E90023FDF708FE00227E4BC7
:1025C800FDF7B6FFFEF776FA80B2A5FB0023A9FB5C
:1025D8000021DB08A8FB0072764F84F862A01FFA7E
:1025E80083FC890903EB8303A7FB007EA0EB430070
:1025F800A5FB0173DB08520903EB8303A1EB43013D
:10260800A5FB0273DB0803EB8303A2EB4302A5FBE4
:102618000C73DB0803EB8303ACEB43034FEA5E3E2A
:1026280000F1300C0EF1300E303230333031DBF83F
:102638003C0084F860E084F865C084F8632084F87E
:10264800643084F86110FDF71FFF57A3D3E9002316
:10265800FDF7BCFD0022564BFDF76AFFFEF72AFA8C
:1026680080B2A5FB0023A9FB0021DB08A8FB0072B0
:10267800504F84F869A01FFA83FC890903EB830390
:10268800A7FB007EA0EB4300A5FB0173DB08520902
:1026980003EB8303A1EB4301A5FB0273DB0803EB08
:1026A8008303A2EB4302A5FB0C73DB0803EB830354
:1026B800ACEB43034FEA5E3E00F1300C0EF1300EF6
:1026C800303230333031DBF8500084F866E084F87B
:1026D8006BC084F8682084F86A3084F86710FDF7C6
:1026E800D3FE2FA3D3E90023FDF770FD324B002260
:1026F800FDF71EFFFEF7DEF982B2A9FB023CA8FB3C
:10270800021EA5FB02132B49CDF804B0DB08A1FB80
:10271800020198B203EB83034FEA5E1E4FEA9C1C4A
:10272800A2EB43031F46A5FB0C32A5FB0EB3D20850
:10273800DB0802EB820203EB8303AEEB4303ACEB53
:102748004202A5FB00EC4FEADC0C0CEB8C0C30329F
:1027580084F86D20A0EB4C00184A84F86EA0490B51
:1027680007F1300E00F1300C3033303184F871E06D
:1027780084F870C0506D84F86F3084F86C10FDF7E1
:1027880083FE09A3D3E90023FDF720FD0022084BAF
:10279800084FFDF7CDFEFEF78DF982B210E000BFBD
:1027A800FCA9F1D24D62403F7B14AE47E17A743FF9
:1027B800000059405917B7D100408F4038F2012026
:1027C800A5FB0213A9FB021EDB08A8FB02014FEAC6
:1027D8009E1E98B203EB8303A7FB02BCA2EB430245
:1027E800A5FB0EB3DB08490903EB8303AEEB430EED
:1027F800A5FB01B3DB0803EB8303A1EB4301A5FBB6
:1028080000B3DB0803EB8303A0EB43034FEA5C3C14
:10281800019884F875A00CF1300C0EF1300E3032AE
:102828003033303184F872C084F873E084F877204C
:1028380084F87630806E84F87410FDF725FEF4A3D2
:10284800D3E90023FDF7C2FCF34B0022FDF770FE2D
:10285800FEF730F980B2A5FB0032A9FB0039A8FBCE
:102868000038D2082E461FFA82FE4FEA99194FEA1D
:102878005818A5FB0913A5FB0815A6FB0EC1DB0814
:10288800ED08C908A7FB00C705EB850503EB830323
:1028980002EB820201EB8101AEEB4101A9EB43039C
:1028A800A8EB4508DFF87C9384F87AA0A0EB4202F5
:1028B8007F0B30333032303708F13008303184F84C
:1028C800787084F8793084F87B8084F87D20D9F892
:1028D8006C0084F87C10FDF7D7FDCBA3D3E9002367
:1028E800FDF774FC0022CD4BDFF83CA3DFF83C83F6
:1028F800FDF71EFEFEF7DEF8254680B2C84CAAFB9F
:10290800003EA4FB00314FEA9E1BA6FB0B2E4F098D
:10291800A6FB0023A6FB07214FEADE0EA8FB002C2E
:10292800DB080EEB8E02C908ABEB420E01EB81010E
:102938009AB2A7EB4101A6FB02B7FF0807EB87078E
:1029480003EB8303A0EB4303A2EB47024FEA5C3C93
:102958002E270CF1300C0EF1300E3033303230317E
:1029680085F87EC085F87FE0D9F8800085F8822058
:1029780085F8833085F8801085F88170FDF784FD2F
:10298800A3A3D3E90023FDF721FC0022A24BFDF706
:10299800CFFDFEF78FF882B2A6FB0213AAFB021046
:1029A800DB08A4FB021B1FFA83FE810903EB8303E8
:1029B800A8FB020CA2EB4303A6FB0102D2084FEAD4
:1029C8005B1B02EB8202A1EB4200A6FB0B12D208B2
:1029D80002EB8202ABEB4201A6FB0EB2D20802EB7D
:1029E8008202AEEB42024FEA5C3C00F1300E0CF181
:1029F800300C30333032303185F884C085F885E0CA
:102A0800D9F8840085F8893085F8882085F886709B
:102A180085F88710FDF738FD7BA3D3E90023FDF780
:102A2800D5FB00227D4BFDF783FDFEF743F882B20C
:102A3800A6FB0213AAFB0210DB08A4FB021B1FFA69
:102A480083FE810903EB8303A8FB020CA2EB43037B
:102A5800A6FB0102D2084FEA5B1B02EB8202A1EB44
:102A68004200A6FB0B12D20802EB8202ABEB42013A
:102A7800A6FB0EB2D20802EB8202AEEB42024FEA8C
:102A88005C3C00F1300E0CF1300C30333032303118
:102A980085F88AC085F88BE0D9F8100085F88F3062
:102AA80085F88E2085F88D7085F88C10FDF7ECFC84
:102AB80057A3D3E90023FDF789FB0022564BFDF706
:102AC80037FDFDF7F7FF82B2A6FB0213AAFB02103F
:102AD800DB08A4FB021B1FFA83FE810903EB8303B7
:102AE800A8FB020CA2EB4303A6FB0102D2084FEAA3
:102AF8005B1B02EB8202A1EB4200A6FB0B12D20881
:102B080002EB8202ABEB4201A6FB0EB2D20802EB4B
:102B18008202AEEB42024FEA5C3C00F1300E0CF14F
:102B2800300C30333032303185F890C085F891E080
:102B3800D9F8140085F8953085F8942085F89270B6
:102B480085F89310FDF7A0FC31A3D3E90023FDF726
:102B58003DFB0022304BFDF7EBFCFDF7ABFF82B2EB
:102B6800A6FB0213AAFB0210DB08A4FB021B1FFA38
:102B780083FE810903EB8303A8FB020CA2EB43034A
:102B8800A6FB0102D2084FEA5B1B02EB8202A1EB13
:102B98004200A6FB0B12D20802EB8202ABEB420109
:102BA800A6FB0EB2D20802EB8202AEEB42024FEA5B
:102BB8005C3C00F1300E0CF1300C303330323031E7
:102BC80085F896C085F897E0D9F8280085F89B30F5
:102BD80085F89A2085F8987085F89910FDF754FCC7
:102BE8000BA3D3E90023FDF7F1FA00220A4BFDF706
:102BF8009FFCFDF75FFF82B2A6FB0213AAFB02103F
:102C080016E000BFAFF300807B14AE47E17A743F53
:102C1800FCA9F1D24D62403F00408F40000059406E
:102C28001F85EB5138F20120D34D62105917B7D1E7
:102C3800DB08A4FB021B1FFA83FE810903EB830355
:102C4800A8FB020CA2EB4303A6FB0102D2084FEA41
:102C58005B1B02EB8202A1EB4200A6FB0B12D2081F
:102C680002EB8202ABEB4201A6FB0EB2D20802EBEA
:102C78008202AEEB42024FEA5C3C00F1300E0CF1EE
:102C8800300C30333032303185F89CC0D9F82C0004
:102C980085F89E7085F89DE085F8A13085F8A0201C
:102CA80085F89F10FDF7F0FB75A3D3E90023FDF726
:102CB8008DFA0022744BFDF73BFCFDF7FBFE82B258
:102CC800A6FB0213AAFB0210DB08A4FB021B1FFAD7
:102CD80083FE810903EB8303A8FB020CA2EB4303E9
:102CE800A6FB0102D2084FEA5B1B02EB8202A1EBB2
:102CF8004200A6FB0B12D20802EB8202ABEB4201A8
:102D0800A6FB0EB2D20802EB8202AEEB42024FEAF9
:102D18005C3C00F1300E0CF1300C30333032303185
:102D280085F8A2C085F8A3E085F8A73085F8A62025
:102D380085F8A470D9F8400085F8A510FDF7A4FB24
:102D48004FA3D3E90023FDF741FA00224E4BFDF7CC
:102D5800EFFBFDF7AFFE80B2A6FB0023AAFB002E17
:102D6800DB081FFA83FB4FEA9E1E03EB8303A4FBD9
:102D78000021A8FB002CA0EB4303A6FB0E02D208FF
:102D8800490902EB8202AEEB420EA6FB0102D20811
:102D980002EB8202A1EB4201A6FB0B02D20802EB76
:102DA8008202ABEB42024FEA5C3C0CF1300C0EF1B4
:102DB800300E30333032303185F8A8C085F8A9E0BC
:102DC80085F8AD3085F8AC20D9F8440085F8AA70AC
:102DD80085F8AB10FDF758FB29A3D3E90023FDF7CD
:102DE800F5F90022284BFDF7A3FBFDF763FE80B23F
:102DF800A6FB0023AAFB002AA4FB0024DB089AB246
:102E08004FEA9A1A6409A6FB0A1EA6FB04C1A6FB90
:102E180002C64FEADE0EC908F608A8FB00C80EEB8A
:102E28008E0E01EB810103EB830306EB8606AAEB0A
:102E38004E0AA4EB4104A2EB4606A0EB43004FEA7E
:102E4800583808F130080AF1300A3034303630305A
:102E58000A210D22002385F8AE8085F8B07085F828
:102E6800AFA085F8B14085F8B26085F8B30085F861
:102E7800B41085F8B52085F8B63003B0BDE8F08FFA
:102E8800FCA9F1D24D62403F00408F40B721014874
:102E980000F0C6B980F1012038B500F01BFB0A4AE2
:102EA8000A4B12689A4200D0FEE7094B094A0021F2
:102EB80041F6A115F02407205D6082F8234099604F
:102EC800186082F8231038BD10000020007A030A29
:102ED80010E000E000ED00E0094B0A4A002119600B
:102EE80013680133136013F0010F074B0CBF41F651
:102EF800A11241F6A2125A60014B01221A607047D2
:102F0800A40242424CF1012010E000E0014B186895
:102F1800704700BF4CF101201F49204A0B6B43F456
:102F280000130B631368D90706D5136823F0010350
:102F380013601368DB07FCD4184B19491A6822F090
:102F480060621A601A6842F000621A601A6842F4F5
:102F580040321A601A6822F0C0021A601A6842F0F9
:102F680040021A601A6822F4C0421A601A6822F4F1
:102F7800C0521A605A6942F004025A615A6942F012
:102F880003025A611A6842F480621A601A6842F0B1
:102F980010021A609960704700380240A060024031
:102FA800044400402149224A0B6B43F4001310B437
:102FB8000B631368D90706D5136823F00103136060
:102FC8001368DB07FCD41A4B1A481A681A4922F00E
:102FD80060621A601A6842F000621A601A6842F465
:102FE80040321A601A6822F0C0021A601A6822F485
:102FF800C0421A601A6822F4C0521A605A6942F034
:1030080004025A615A6942F003025A611A6842F48A
:1030180080621A601A68142442F010021A609860DC
:10302800D9605C605DF8044B704700BF003802400F
:10303800886002400444004068F1012029492A4A76
:10304800086B38B540F00100284B08631868284C15
:1030580020F0F00018601868002540F0A000186003
:103068002560186A40F4E0601862186A40F4E0408D
:103078001862986820F030009860986840F0100056
:103088009860D86820F0F000D860D868D8600B6CD9
:1030980043F400330B649389C3F30E03938193893C
:1030A8009BB243F480539381138A23F440531B0447
:1030B8001B0C138293899BB243F480639381938999
:1030C8009BB243F400739381938A9BB243F40063E9
:1030D80040F26D1193821181FFF71EFFBDE8384061
:1030E800FFF760BF00380240004400400000024083
:1030F800880040421A4B1B489A891B4992B242F4F5
:10310800005210B49A819A8992B242F008029A81C8
:103118009A8992B242F004029A819A8992B242F054
:1031280020029A819A8992B242F480729A819A898D
:1031380092B242F010029A819A8A92B242F08002C8
:103148009A829A8A92B24FF4746442F040029A8248
:10315800C4600B685DF8044B43F001030B607047D3
:10316800004400400060024088600240104A138812
:10317800D8070FD40E4B1A8892060AD50D489B889B
:103188000D4A0E49037001230B70136823F00103E5
:103198001360704713889906FCD5084B0649928836
:1031A80002221A700B6823F001030B60E2E700BFEC
:1031B8000044004065F10120886002407DF1012053
:1031C800034B5A68920244BF4FF47412DA60704796
:1031D8000060024008B50D4B5B681B0515D50C4A0D
:1031E8000C4B5268C2F11402D2B21A701AB10A49D1
:1031F8000A4800F0CBF9054B054A4FF47461D960D1
:10320800136843F00103136008BD08BD0060024065
:10321800886002407CF1012068F1012050F1012012
:1032280068B1074A1368DB07FCD4064BD0604FF43B
:1032380074105160D860136843F00103136070473D
:10324800A0600240006002400D4A08B5D2F88830FC
:1032580043F47003C2F88830BFF34F8FBFF36F8F0A
:10326800FFF71AFEFEF784FAFEF780F9FEF782FBF5
:10327800FFF7E4FEFEF7B6FB62B6FFF73BFFFEE79B
:1032880000ED00E0DFF838D072B6002103E00D4B06
:103298005B58435004310C480C4B42189A42F6D301
:1032A8000B4A02E0002342F8043B0A4B9A42F9D346
:1032B80000F088F800F046F9FFF7C6FF70470000F5
:1032C80000000220B8480008000000201400002078
:1032D80014000020E0F20120FEE70000704700BF64
:1032E800FEE700BFFEE700BFFEE700BFFEE700BF46
:1032F800704700BF704700BF704700BF08B5FFF7B1
:10330800EBFDBDE80840FFF701BE00BF08B501208E
:10331800FEF710F900B908BD064A13780133DBB28D
:1033280018461370FEF720FB0120BDE80840FEF7A1
:103338000FB900BF7EF1012008B50220FEF7FAF8A8
:1033480000B908BDFEF744FCFFF7A0FD0220BDE868
:103358000840FEF7FDB800BF10B54FF40060FEF757
:10336800E9F804464FF48050FEF7E4F8204310F0E3
:10337800FF0F00D110BDFEF737FB4FF40060FEF7DA
:10338800E7F84FF48050BDE81040FEF7E1B800BF01
:1033980010B5084C23689B0605D401210C20BDE814
:1033A8001040FEF7C5BA00210D20FEF7C1FA202310
:1033B800A36010BD00640240FFF70CBFFFF700BF19
:1033C800FFF7D4BE3C4B3D481A68002142F0010289
:1033D8001A6099601A6822F0847222F480321A60A6
:1033E80058601A6882B022F480221A60D96000916D
:1033F80001911A6842F480321A601A4603E0009B71
:10340800B3F5A06F09D0136803F400330193009B50
:1034180001330093019B002BF1D0274B1B6813F459
:10342800003318BF01230193019B012B14D0224ABA
:103438002349936823F400039360C2F88410136847
:1034480043F08063136013681B01FCD51D4B4FF0DC
:1034580000629A6002B07047174B1B491A6C1B48F0
:1034680042F080521A640A6842F440420A609A683C
:103478009A609A6842F400429A609A6842F4A052AC
:103488009A6058601A6842F080721A601A6892014D
:10349800FCD50F49084A40F205600860996821F098
:1034A80003019960996841F002019960936803F0FB
:1034B8000C03082BFAD1BAE7003802401030002478
:1034C8000030005000ED00E0007000400854400754
:1034D800003C0240164A936803F00C03042B24D0E6
:1034E800082B0AD0134B124A134892681349C2F3A7
:1034F8000312825CD3400B60704750685168526871
:103508004302C2F3881201F03F014CBF0C4B094B38
:10351800B3FBF1F303FB02F3054A5268C2F301421D
:1035280001325200B3FBF2F3DDE7054BDBE700BFE6
:10353800003802400024F4000000002010000020A1
:1035480000127A0070B50D4E0D4CA41BA410002576
:10355800A54209D10B4E0C4C01F0AEF8A41BA410E7
:103568000025A54205D170BD56F82530984701358C
:10357800EEE756F8253098470135F2E7B0480008DD
:10358800B0480008B0480008B448000810B5431E09
:103598000A44914200D110BD11F8014B03F8014FC4
:1035A800F7E70000000000001FB551EC100B1E4AA1
:1035B80021F00043934206DC9FED191B00F074FADA
:1035C80051EC100B07E0194A934209DD10EE102A5E
:1035D8000B46FCF7F9FD41EC100B05B05DF804FB58
:1035E800684600F06DF800F0030001289DED021B0D
:1035F8009DED000B07D002280ED00028DED0012058
:1036080000F08AFEDCE700F087FE53EC102B10EE8A
:10361800100A03F10041DEE700F046FAF5E700BFC3
:103628000000000000000000FB21E93FFFFFEF7FE2
:103638001FB551EC100B204A21F00043934207DCE0
:103648009FED1B1B002000F067FE51EC100B07E0FC
:103658001A4A934209DD10EE102A0B46FCF7B4FD16
:1036680041EC100B05B05DF804FB684600F028F843
:1036780000F0030001289DED021B9DED000B04D016
:10368800022805D070B90120DDE700F00DFADCE76B
:10369800012000F041FE53EC102B10EE100A03F14C
:1036A8000041DDE700F000FAF5E700BFAFF3008066
:1036B8000000000000000000FB21E93FFFFFEF7F52
:1036C8002DE9F04F57EC106BC34B8DB027F0004835
:1036D80098450446049707DC0022002384ED000B7C
:1036E800C0E90223002527E0BC4B984575DC049B04
:1036F800BB4D002B10EE100AA9A3D3E900233946CD
:1037080036DDFCF761FDA84506460F4618D0A6A38E
:10371800D3E90023FCF758FD02460B46C4E9002311
:1037280030463946FCF750FD9FA3D3E90023FCF748
:103738004BFDC4E90201012528460DB0BDE8F08F14
:103748009BA3D3E90023FCF73FFD9BA3D3E9002308
:1037580006460F46FCF738FD02460B46C4E900232F
:1037680030463946FCF730FD93A3D3E90023DEE762
:10377800FCF72CFDA84506460F4616D08AA3D3E9C8
:103788000023FCF723FD02460B46C4E9002330461C
:103798003946FCF719FD84A3D3E90023FCF716FD8D
:1037A8004FF0FF35C4E90201C6E781A3D3E900233E
:1037B800FCF70CFD80A3D3E9002306460F46FCF76F
:1037C80005FD02460B46C4E9002330463946FCF79E
:1037D800FBFC79A3D3E90023E0E7824B984500F38B
:1037E800D08000F053FE57EC106B10EE100A74A353
:1037F800D3E900233946FCF79BFE00227A4BFCF7FD
:10380800E5FCFDF72FF90546FCF72CFE64A3D3E988
:103818000023CDE90201FCF78BFE02460B46304639
:103828003946FCF7D1FC60A3D3E9002382468B46D6
:10383800DDE90201FCF77CFE1F2D06460F462ADC57
:103848006A1E6A4B53F82230984524D032463B46CC
:1038580050465946FCF7B8FCC4E90001D4E9008990
:10386800504642464B465946FCF7AEFC3B4632466C
:10387800FCF7AAFC049B002BC4E90201BFF65CAF6D
:1038880009F100436360C4F80080A06001F10043BF
:10389800E3606D4250E732463B4650465946FCF7D6
:1038A80093FC4FEA2852C1F30A53D31A102BC4E9E8
:1038B80000010592D2DD3EA3D3E90023DDE9020130
:1038C800FCF736FE06460F4602460B46504659465A
:1038D800FCF77AFC02460B46804689465046594614
:1038E800FCF772FC32463B46FCF76EFC32A3D3E988
:1038F800002306460F46DDE90201FCF719FE3246B1
:103908003B46FCF761FC02460B4606460F4640461E
:103918004946FCF759FC059AC1F30A53D31A312BCF
:10392800C4E900012ADD28A3D3E90023DDE9020167
:10393800FCF7FEFD06460F4602460B464046494642
:10394800FCF742FC02460B4682468B4640464946F7
:10395800FCF73AFC32463B46FCF736FC1CA3D3E99D
:10396800002306460F46DDE90201FCF7E1FD324679
:103978003B46FCF729FC06460F4667E7C246CB469E
:103988006CE71B4B984535DD10EE102A3B46304658
:103998003946FCF719FCC4E90201C4E90001A1E6B3
:1039A80000004054FB21F93F3163621A61B4D03DF5
:1039B8000000601A61B4D03D7370032E8A19A33BCE
:1039C80083C8C96D305FE43F0000002E8A19A33B0D
:1039D800C14920259A837B39FB21E93F7BD90240E5
:1039E800FB21F93FFB2139410000E03FD8460008A0
:1039F800FFFFEF7F4FEA2855A5F21645A8EB0551C2
:103A080030460F46FDF72EF8FCF72CFD02460B4614
:103A180030463946CDE90623FCF7D6FB00221F4B7A
:103A2800FCF786FD0F460646FDF71CF8FCF71AFD65
:103A380002460B4630463946CDE90823FCF7C4FB5D
:103A48000022164BFCF774FDCDE90A010DF130098F
:103A58004FF003080026002732463B4679E9020169
:103A680008F1FF3AFCF7CCFFB0B90D4B01930223E4
:103A780000932A464346214606A800F0FDF8049B19
:103A8800002B0546BFF658AE636803F10043636038
:103A9800E36803F10043FBE6D046DDE70000704130
:103AA80058470008000000002DE9F04F59EC108B32
:103AB80029F0004785B0B7F1795F8DED001B07DA73
:103AC80010EE100A4946FCF7CDFF002800F0AA8046
:103AD80042464B4640464946FCF72AFD59A3D3E9DE
:103AE800002304460D46FCF723FD58A3D3E9002321
:103AF800FCF76CFB22462B46FCF71AFD55A3D3E9CD
:103B08000023FCF761FB22462B46FCF711FD53A36B
:103B1800D3E90023FCF75AFB22462B46FCF708FDA5
:103B280050A3D3E90023FCF74FFB22462B46FCF7B2
:103B3800FFFC4EA3D3E90023FCF748FB2B462246A3
:103B4800FCF7F6FC3A4B9F4282468B462CDC00225F
:103B5800384B20462946FCF7EBFC524606460F46F2
:103B68005B4620462946FCF7E3FCDDE900230446D2
:103B78000D4640464946FCF7DBFC02460B4620460C
:103B88002946FCF721FB02460B4630463946FCF72E
:103B98001BFB0B46284902460020FCF715FB41ECAD
:103BA800100B05B0BDE8F08F244B23499F42D7BFC7
:103BB800A7F50013224F00221646D4BF1F46002641
:103BC80032463B460020FCF7FFFA0022CDE902010D
:103BD800184B20462946FCF7ABFC32463B46FCF71F
:103BE800F3FA524606460F465B4620462946FCF73E
:103BF8009FFCDDE9002304460D4640464946FCF794
:103C080097FC02460B4620462946FCF7DDFA024699
:103C18000B4630463946FCF7D7FA02460B46DDE933
:103C28000201BAE700200449B9E700BFAFF30080FA
:103C38003233D33F0000E03F0000F03F0000E93F8F
:103C48000000D23FD43888BEE9FAA8BDC4B1B4BDDB
:103C58009EEE213EAD529C804F7E923E9015CB1930
:103C6800A001FA3E7751C1166CC1563F4C555555C7
:103C78005555A53F000000002DE9F04F2DED028BB2
:103C8800ADF5197DD41E06930291C34BA4990990F2
:103C980053F821300093069B013B0493182394FBAF
:103CA800F3F46FF0170324EAE47404FB033303EB23
:103CB800020A009B049A9FEDB48B03EB0208A59BB4
:103CC800A71A20AE03EB87090025454513DD9FEDB4
:103CD800AE8B0DF5E07B0026009B9E4232DC099BF3
:103CE8000393069B9D1920AB03EBC503089359EC7E
:103CF800188B00271FE0EF4207D459F82500FCF77E
:103D0800B1FBE6E802010135DFE751EC180BF8E7F3
:103D18000899039D71E902230891F5E802010395CA
:103D2800FCF706FC02460B4640464946FCF74EFAAD
:103D3800013780468946049B9F42E9DDEBE802890A
:103D48000136C9E7009B009F0CAA02EB83030B9383
:103D5800A59B03EB84030A9398AB07F1005B03EB85
:103D6800C7030BF1FF3B53E928894FEACB030893BC
:103D7800089A98AB1344A3F1980B0026BB1B002BA1
:103D880077DC49EC108B504600F00EFC55EC104BDC
:103D980000224FF07F5310EE100A2946FCF7C8FBAB
:103DA80041EC100B00F07CFB002251EC100B7B4B1C
:103DB800FCF7BEFB02460B4620462946FCF704FAF0
:103DC8000D460446FCF74EFE0390FCF74BFB0246FB
:103DD8000B4620462946FCF7F7F9BAF1000F804652
:103DE80089466BDD7A1E0CABCAF1180153F8220024
:103DF800039C40FA01F31C448B40C01A0CAB03949B
:103E080043F82200CAF1170340FA03FBBBF1000F85
:103E180062DD039B00220133039314466FF07F4158
:103E2800974200F38980BAF1000F07DDBAF1010F5C
:103E380000F09680BAF1020F00F09C80BBF1020FEF
:103E48004AD142464B4600205549FCF7BDF9804609
:103E58008946002C40D050469FED4D0B00F0A4FB46
:103E68004046494653EC102BFCF7AEF9804689468C
:103E780032E000224B4B40464946FCF759FBFCF721
:103E8800F1FDFCF7EFFA0022474B04460D46FCF71C
:103E98004FFB02460B4640464946FCF795F9FCF7AE
:103EA800E1FD0CAB294643F826007BE902232046B6
:103EB800FCF78CF90136804689465FE706D17B1E00
:103EC8000CAA52F823004FEAE05B9FE70022374B29
:103ED800FCF7B4FD68BB83460022002340464946F0
:103EE800FCF78EFD002800F0C1807C1E23460022CE
:103EF80000998B425CDA002A40F08B8001246FF035
:103F0800030202FB04F30B99CB58002B56D0089BF5
:103F180098AA1344A3F1900B069BDD1920AB03EB81
:103F2800C505E3197E1C0393039B9E4248DD1F468B
:103F380012E74FF0020B6CE70CAB53F822304CB988
:103F48002BB10CA8C3F1807340F822300123013251
:103F58001C4665E70CA8CB1A40F822302346F6E742
:103F68007A1E0CAB53F82230C3F316030CA941F8A0
:103F7800223063E77A1E0CAB53F82230C3F31503E3
:103F8800F4E700BFAFF3008000000000000000006D
:103F9800000000000000F03FA0480008000020409A
:103FA8000000F03F0000703E000070410000E03F5C
:103FB8000CA951F82310013B0A4399E70134A0E703
:103FC8000A9B53F82600FCF74DFAE5E80201099B25
:103FD80008951C4600274FF000084FF00009049B85
:103FE8009F4203DDEBE8028901369DE7089971E9F4
:103FF80002230891F4E80201FCF79AFA02460B46FC
:1040080040464946FCF7E2F8013780468946E6E72C
:10401800013C0CABAAF1180A53F82430002BF7D056
:1040280050469FEDB50B00F0BFFAE50098AB03EBE7
:10403800050957EC106BA9F19809A046B8F1000FD3
:104048004DDA9FEDAF8B0DF5907A00230493574618
:10405800049BB4EB030976D4AB4B1E4670AB03EB61
:10406800C9098DED068B4FF000085EE0CAF100002B
:1040780049EC108B00F098FA55EC104B0022A34B3A
:1040880010EE100A2946FCF7D9FCF8B10022A04B23
:1040980020462946FCF74CFAFCF7E4FC0646FCF7F8
:1040A800E1F90022994BFCF743FA0B4602462946F0
:1040B8002046FCF789F8FCF7D5FC7C1C0CAB0AF110
:1040C800180A43F8270043F82460A9E72046294640
:1040D800FCF7C8FC0CAB3C4643F82700A0E70CAB48
:1040E80053F82800FCF7BEF932463B46FCF720FAA5
:1040F800002269E90201864B30463946FCF718FA76
:1041080008F1FF3806460F4698E7F9E80223F6E873
:104118000201FCF70DFA02460B46DDE90601FCF741
:1041280055F8CDE9060108F10108009B984502DC25
:10413800049B9845E9DD049B9DED067B0133AAECC1
:10414800027B049384E7A49B032B5DD8DFE803F08C
:104158004B26260298AB1D44A5F59C752E46A24613
:10416800BAF1000F6EDC2E46A246BAF1010F00F339
:104178008A8000200021012C00F3A680BBF1000FEB
:1041880040F0A880DDE94823029CC4E90023DDE96A
:104198004A23C4E90401C4E9022335E0083548ABE1
:1041A8001D44264600200021002E3CDABBF1000FFA
:1041B8003FD0024601F10043029DC5E900230246B3
:1041C8000B46DDE94801FBF7FFFF4AAE0125AC428B
:1041D80032DABBF1000F02D001F100431946029B0D
:1041E800C3E9020110E098AB1D44A5F59C750020B9
:1041F8000021002C11DABBF1000F02D001F10043BD
:104208001946029BC3E90001039B03F007000DF563
:10421800197DBDEC028BBDE8F08F75E90223FBF731
:10422800D5FF013CE5E775E90223FBF7CFFF013E27
:10423800BAE702460B46BFE7F6E80223FBF7C6FFDC
:104248000135C4E716ED027B56E9048953EC172BB8
:10425800404649468DED007BFBF7B8FFCDE90401E8
:1042680002460B4640464946FBF7AEFFDDE9002310
:10427800FBF7ACFF9DED047B66E902010AF1FF3A0A
:1042880006ED027B6CE716ED027B56E9048953ECD8
:10429800172B404649468DED007BFBF797FFCDE98C
:1042A800040102460B4640464946FBF78DFFDDE90F
:1042B8000023FBF78BFF9DED047B66E902010AF101
:1042C800FF3A06ED027B50E775E90223FBF77EFF14
:1042D800013C50E7029A3B6813607B68106103F168
:1042E80000435360BB689360FB6803F10043D360ED
:1042F80001F10043536187E7000000000000F03F30
:104308000000000000000000604800080000704144
:104318000000703E000000002DE9F04F55EC104BF6
:1043280085B025F00043B3F1795F8DED001B029055
:1043380006DA10EE100A2946FCF794FB002851D043
:1043480022462B4620462946FCF7F2F882468B4641
:1043580002460B4620462946FCF7EAF841A3D3E972
:1043680000238046894650465946FCF7E1F83FA3AA
:10437800D3E90023FBF728FF52465B46FCF7D8F841
:104388003CA3D3E90023FBF721FF52465B46FCF729
:10439800CFF83AA3D3E90023FBF716FF52465B4652
:1043A800FCF7C6F837A3D3E90023FBF70FFF029BFE
:1043B80006460F46DBB902460B4650465946FCF7FF
:1043C800B7F825A3D3E90023FBF7FEFE42464B4688
:1043D800FCF7AEF802460B4620462946FBF7F6FEE8
:1043E80004460D4645EC104B05B0BDE8F08F0022A1
:1043F8001B4BDDE90001FCF79BF83246CDE90201D1
:104408003B4640464946FCF793F802460B46DDE931
:104418000201FBF7D9FE52465B46FCF789F8DDE955
:104428000023FBF7D1FE0CA3D3E9002306460F4671
:1044380040464946FCF77CF802460B46304639466A
:10444800FBF7C4FE02460B4620462946FBF7BCFE96
:10445800C6E700BFAFF30080495555555555C53FD0
:104468000000E03F7CD5CF5A3AD9E53DEB9C2B8A3A
:10447800E6E55A3E7DFEB157E31DC73ED561C11939
:10448800A0012A3FA6F810111111813F53EC102BFF
:1044980023F0004343EC102B70470000000000009D
:1044A80051EC100B2DE9F041C1F30A57A7F2FF3682
:1044B800132E10EE108A0C4610EE105A35DC002E22
:1044C80017DA35A3D3E90023FBF780FE0022002387
:1044D800FCF7BEFA50B1002C5ADA24F0004353EA34
:1044E80008032F4B4FF0000518BF1C4621462846ED
:1044F80025E02C4F374101EA070303431FD026A3C9
:10450800D3E90023FBF762FE00220023FCF7A0FAA0
:104518000028EBD0002CBEBF4FF4801343FA06F6F8
:10452800A41924EA07040025E0E7332E0BDDB6F5CD
:10453800806F04D110EE102A0B46FBF747FE41ECC2
:10454800100BBDE8F081A7F213474FF0FF3323FAB1
:1045580007F73842F3D010A3D3E90023FBF736FE60
:1045680000220023FCF774FA0028BFD0002C02DADE
:10457800142E03D1013425EA0705B7E70123C6F154
:10458800340603FA06F63544A84588BFE418F2E76E
:1045980000252C46AAE700BF9C7500883CE4377EBE
:1045A8000000F0BFFFFF0F0070B555EC104BC5F3CE
:1045B8000A5206462B46B2B925F0004323433CD0A5
:1045C8000022334B294610EE100AFBF7B1FF314A9F
:1045D800964204460D460B4613DA29A3D3E9002375
:1045E800FBF7A6FF0AE040F2FF718A420CD110EEF9
:1045F800102A2B4620462946FBF7E8FD04460D46BF
:104608001BE0C1F30A52363A324440F2FE718A4244
:104618000BDD45EC114B9FED1C0B00F03FF81AA386
:10462800D3E9002351EC100BDAE7002A08DD23F068
:10463800FF4323F4E00343EA025545EC104B70BDF9
:1046480012F1350F0DDA4CF250339E4245EC114B06
:10465800E1DC9FED0B0B00F021F809A3D3E900235F
:10466800E0E723F0FF43363223F4E00343EA025540
:10467800204629460022084BB2E700BFAFF300806E
:1046880059F3F8C21F6EA5019C7500883CE4377E7B
:1046980000005043B03CFFFF0000903C53EC102B4F
:1046A80011EE900A23F0004100F0004041EA0003B7
:1046B80043EC102B70470000F8B500BFF8BC08BCED
:1046C8009E467047F8B500BFF8BC08BC9E467047C8
:1046D800FB21F93FFB2109407CD91240FB211940FD
:1046E8007A6A1F407CD92240BBFD2540FB21294026
:1046F8003A462C407A6A2F405C4731407CD9324098
:104708009C6B3440BBFD3540DB8F3740FB21394083
:104718001BB43A403A463C405AD83D407A6A3F403A
:104728004C7E40405C4741406C1042407CD942403E
:104738008CA243409C6B4440AC344540BBFD454093
:10474800CBC64640DB8F4740EB584840FB214940E9
:1047580083F9A200444E6E00FC291500D1572700AA
:10476800DD34F50062DBC0003C99950041904300C0
:104778006351FE00BBDEAB00B761C5003A6E240092
:10478800D24D42004906E00009EA2E001C92D100F1
:10479800EB1DFE0029B11C00E83EA700F53582009C
:1047A80044BB2E009CE98400B4267000417E5F0063
:1047B800D6913900538339009CF439008B5F84000B
:1047C80028F9BD00F81F3B00DEFF97000F98050091
:1047D800112FEF000A5A8B006D1F6D00CF7E360037
:1047E80009CB2700464FB7009E663F002DEA5F00C1
:1047F800BA277500E5EBC7003D7BF100F7390700E4
:1048080092528A00FB6BEA001FB15F00085D8D00C1
:10481800300356007BFC4600F0AB6B0020BCCF0099
:1048280036F49A00E3A91D005E619100081BE600BA
:1048380085996500A0145F008D40680080D8FF004E
:1048480027734D0006063100CA561500C9A8730023
:104858007BE260006B8CC00000000040FB21F93F48
:10486800000000002D44743E000000809846F83C8B
:104878000000006051CC783B00000080831BF039B9
:104888000000004020257A38000000802282E336AC
:10489800000000001DF3693502000000030000005D
:0848A8000400000006000000FE
:0448B000AD0100084E
:0448B400890100086E
:1048B80000000000000000000102030406070809C8
:0448C800007A030A65
:040000050800328D30
:00000001FF
