:020000040800F2
:10000000000002207D040008CF040008DD04000881
:10001000E3040008E9040008EF0400080000000001
:10002000000000000000000000000000F5040008CF
:100030000305000800000000110500082105000864
:10004000CD040008CD040008CD040008CD0400084C
:10005000CD040008CD04000845030008CD040008C5
:10006000CD040008CD040008CD04000819090008DB
:10007000CD040008CD040008CD040008CD0400081C
:10008000CD040008CD040008CD040008CD0400080C
:10009000CD040008CD040008CD040008CD040008FC
:1000A000CD040008CD040008CD040008CD040008EC
:1000B000CD040008CD040008CD040008CD040008DC
:1000C000CD040008CD040008CD040008CD040008CC
:1000D000CD040008CD040008CD040008CD040008BC
:1000E000CD040008CD040008CD040008CD040008AC
:1000F000CD040008CD040008CD0400080D09000857
:10010000CD040008CD040008CD040008250900082E
:10011000CD040008CD040008CD040008CD0400087B
:10012000CD040008CD040008CD040008CD0400086B
:10013000CD040008CD040008CD040008CD0400085B
:10014000CD040008CD040008CD040008CD0400084B
:10015000CD040008CD040008CD040008CD0400083B
:10016000CD040008CD040008CD040008CD0400082B
:10017000CD040008CD040008CD040008CD0400081B
:08018000CD040008CD040008C5
:1001880010B5054C237833B9044B13B10448AFF3C9
:1001980000800123237010BD28000020000000000B
:1001A8005C10000808B5034B1BB103490348AFF3C3
:1001B800008008BD000000002C0000205C10000832
:1001C80080B500AF012000F073FA002000F070FA4B
:1001D800022000F06DFA032000F06AFA01210020E5
:1001E80000F0C4FA00BF80BD80B500AF504B1B784B
:1001F80003F00303032B00F2998001A252F823F0C5
:10020800190200084B020008A7020008D9020008DA
:10021800484B1B7803F00303474AD35C184600F0A9
:100228008DFA444B1B780133DAB2424B1A70414BBA
:100238001B7803F00303404AD35C184600F066FAC3
:1002480074E03C4B1B78013BDAB23A4B1A70394BDD
:100258001B7803F00303384AD35C184600F06EFAA3
:10026800344B1B780133DAB2324B1A70314B1B789E
:1002780003F00303304AD35C184600F047FA2D4BCD
:100288001B780133DAB22B4B1A702A4B1B7803F018
:100298000303294AD35C184600F038FA46E0254B98
:1002A8001B7803F00303244AD35C184600F02EFAA7
:1002B800204B1B780133DAB21E4B1A701D4B1B788A
:1002C80003F003031C4AD35C184600F037FA2DE00C
:1002D800184B1B78013BDAB2164B1A70154B1B787A
:1002E80003F00303144AD35C184600F00FFA114BCD
:1002F8001B780133DAB20F4B1A700E4B1B7803F0E0
:1003080003030D4AD35C184600F018FA094B1B7812
:100318000133DAB2074B1A70064B1B7803F003035C
:10032800054AD35C184600F009FA00BF00BF80BD3B
:1003380044000020450000200000002080B500AFE8
:10034800012000F0F3FC0346002B08D0054B1B7876
:100358000133DAB2034B1A70012000F00BFD00BF25
:1003680080BD00BF4400002080B584B000AF786035
:1003780000F0E0F80346FB6000BF00F0DBF803463E
:100388001A46FB68D21A7B689A42F6D300BF103728
:10039800BD4680BD80B483B000AF03463960FB71B1
:1003A80097F90730002B0BDA0D49FB7903F00F039F
:1003B800043B3A68D2B21201D2B20B441A7609E071
:1003C800084997F907303A68D2B21201D2B20B4401
:1003D80083F8002300BF0C37BD465DF8047B7047E7
:1003E80000ED00E000E100E080B582B000AF786089
:1003F8007B68B3F1807F01D3012311E00A4A7B684F
:1004080023F07F43013B53600F214FF0FF30FFF78C
:10041800C1FF054B00229A60034B07221A60002394
:1004280018460837BD4680BD10E000E080B500AF33
:100438000548FFF7D9FFFFF7C3FEC820FFF794FF71
:10044800FFF7D2FEF9E700BF4090020080B483B006
:1004580000AF7860396000BF0C37BD465DF8047B9B
:10046800704780B400AF4FF6FF731846BD465DF87D
:10047800047B7047DFF834D0002103E00C4B5B5855
:10048800435004310B480C4B42189A42F6D30B4A9E
:1004980002E0002342F8043B094B9A42F9D300F0EA
:1004A80055F800F0B3FDFFF7C1FF704700000220C8
:1004B80094100008000000202800002028000020D8
:1004C800C8000020FEE780B400AF00BFBD465DF85D
:1004D800047B704780B400AFFEE780B400AFFEE74E
:1004E80080B400AFFEE780B400AFFEE780B400AF91
:1004F80000BFBD465DF8047B704780B400AF00BF05
:10050800BD465DF8047B704780B400AF00BFBD46B0
:100518005DF8047B7047000080B400AF044B1B6893
:100528000133034A136000BFBD465DF8047B704782
:100538004800002080B400AF034B1B681846BD4636
:100548005DF8047B704700BF4800002080B500AF0D
:10055800164A164BD3F8883043F47003C2F8883033
:10056800134A134B1B6843F001031360104B00221E
:100578009A600F4A0E4B1B6823F0847323F4803370
:1005880013600B4B0B4A5A60094A094B1B6823F44A
:1005980080231360064B0022DA6000F00DF8034B4D
:1005A8004FF000629A6000BF80BD00BF00ED00E020
:1005B800003802401030002480B483B000AF00231C
:1005C8007B6000233B60364A354B1B6843F480331D
:1005D8001360334B1B6803F400333B607B680133C3
:1005E8007B603B68002B03D17B68B3F5A06FF0D12B
:1005F8002B4B1B6803F40033002B02D001233B6014
:1006080001E000233B603B68012B42D1244A244B84
:100618001B6C43F080531364224A224B1B6843F43B
:10062800404313601E4A1E4B9B6893601C4A1C4B38
:100638009B6843F400439360194A194B9B6843F441
:10064800A0539360164B184A5A60154A144B1B68FE
:1006580043F08073136000BF114B1B6803F00073F5
:10066800002BF9D0114B40F205621A600C4A0C4B72
:100678009B6823F003039360094A094B9B6843F086
:100688000203936000BF064B9B6803F00C03082B22
:10069800F9D100BF0C37BD465DF8047B704700BF39
:1006A800003802400070004008544007003C0240F7
:1006B80080B584B000AF0346FB71FB79104A52F84D
:1006C80023300121184600F0F3FBFB790D4A32F87C
:1006D8001330BB6001233B730023BB730123FB73FF
:1006E80002237B73FB79084A52F8233007F108028A
:1006F8001146184600F04EFB00BF1037BD4680BDBE
:100708007C100008741000080400002080B483B036
:1007180000AF0346FB71FB79064A52F82330FA7999
:10072800054931F812201A8300BF0C37BD465DF821
:10073800047B7047040000207410000880B483B064
:1007480000AF0346FB71FB79064A52F82330FA7969
:10075800054931F812205A8300BF0C37BD465DF8B1
:10076800047B7047040000207410000880B588B02E
:1007780000AF03460A46FB711346BB7101230121F2
:10078800184600F095FB01214FF4804000F0B0FBC3
:1007980000233B770023FB770123BB61FB79184AD1
:1007A80052F8233007F118021146184600F0F2FA01
:1007B800BB79012B1FD1002300221146184600F0F7
:1007C800E3FB01233B6100233B7508237B75012371
:1007D800BB7507F11003184600F036FA06233B7381
:1007E8000F237B730F23BB730123FB7307F10C03E8
:1007F800184600F0B5F800BF2037BD4680BD00BFE1
:100808001400002080B500AF384B1A68384B1B68BD
:100818001946104600F0AEF90346002B64D0354B5C
:100828001B68002B4CD000BF304B1B68184600F0EB
:1008380089F90346002BF7D12C4B1A682C4B1B68FF
:100848001946104600F0D2F92B4B1B681A462B4B61
:100858009A60284B1B684FF6FF72934228BF1346D5
:10086800264A1361214B1B682449184600F0F6F804
:100878001E4B1B680121184600F048F91E4B1A68E8
:100888001C4B1B68B3F5803F03D21A4B1B685B00F7
:1008980000E01B4B1344184A1360164B1A68154B9B
:1008A8001B684FF6FF718B4228BF0B46D31A114ABB
:1008B80013600E4B1B680121184600F027F913E05E
:1008C8000A4B1B680021184600F020F9074B1A68EC
:1008D800074B1B681946104600F088F9064B1B6841
:1008E80000211846FFF7B2FD00BF80BD20000020A0
:1008F80024000020180000204C0000208C0000205C
:10090800FEFF010080B500AFFFF77CFF00BF80BD90
:1009180080B500AFFFF776FF00BF80BD80B500AFA0
:1009280002210D4800F013FB0346002B11D00B4B9E
:100938001B68022B06D1FFF794FD034619460420D5
:1009480000F070F8FFF78DFD03461946024800F0E5
:10095800EFFA00BF80BD00BF003C00401C00002033
:1009680080B485B000AF78600023FB730023BB73AD
:100978000F237B737B68DB78002B39D0274BDB6830
:10098800DB431B0ADBB203F00703FB73FB7BC3F1FA
:100998000403BB737A7BFB7B42FA03F37B737B68AC
:1009A8005B781A46BB7B02FA03F3FB737B689A7881
:1009B8007B7B1340DAB2FB7B1343FB73FB7B1B018E
:1009C800FB73174A7B681B781344FA7B83F8002370
:1009D800134A7B681B785B09DBB218467B681B7877
:1009E80003F01F03012101FA03F342F820300FE05E
:1009F8000B497B681B785B09DBB218467B681B7860
:100A080003F01F0301229A4000F1200341F823203C
:100A180000BF1437BD465DF8047B704700ED00E069
:100A280000E100E080B485B000AF78600B467B80C1
:100A38000023FB60084BFB60FA687B6813440833AB
:100A4800FB60FB681A467B88136000BF1437BD46FD
:100A58005DF8047B704700BF0074004080B485B027
:100A680000AF786039600023FB607B681B68FB601F
:100A7800FA68254B1340FB603B681A683B68DB68E3
:100A88001A433B685B691A433B689B691A433B6896
:100A9800DB691A433B681B6A1A433B685B6A1A4363
:100AA8003B689B6A1A433B685B6B1A433B689B6BCA
:100AB8001343FA681343FB607B68FA681A607B6823
:100AC8005B69FB60FB6823F00703FB603B68DA6A3D
:100AD8003B681B6B1343FA681343FB607B68FA6837
:100AE8005A613B681A697B685A603B685A687B6838
:100AF8009A603B689A687B68DA6000BF1437BD4625
:100B08005DF8047B704700BF3F801CF080B483B061
:100B180000AF78600B46FB70FB78002B06D07B6833
:100B28001B6843F001027B681A6005E07B681B685C
:100B380023F001027B681A6000BF0C37BD465DF8E0
:100B4800047B704780B485B000AF78600023FB73E6
:100B58007B681B6803F00103002B02D00123FB73A1
:100B680001E00023FB73FB7B18461437BD465DF894
:100B7800047B704780B487B000AF78603960002389
:100B8800FB750023FB607B68154A934202D8154B1E
:100B98003B6101E0144B3B613B6803F00053002BC1
:100BA80003D03B695B68FB6002E03B691B68FB6044
:100BB800FB6823F0F02323F08213FB60FA683B689C
:100BC8001340002B02D00123FB7501E00023FB75C5
:100BD800FB7D18461C37BD465DF8047B704700BF97
:100BE8000F640240006002400064024080B485B097
:100BF80000AF786039607B68104A934202D8104B86
:100C0800FB6001E00F4BFB603B6803F00053002BD7
:100C180007D03B6823F0F02323F08213FA68D360EF
:100C280006E03B6823F0F02323F08213FA68936010
:100C380000BF1437BD465DF8047B70470F6402405F
:100C4800006002400064024080B485B000AF786064
:100C58000023FB60344BFB607B689B79002B4FD0F3
:100C68003149314B1A687B681B68DB4313400B60C2
:100C78002D492D4B5A687B681B68DB4313404B603A
:100C88007B681B791A46FB681344FB60FB68FA68AB
:100C980011687A6812680A431A602349224B9A68D5
:100CA8007B681B68DB4313408B601F491E4BDA6867
:100CB8007B681B68DB431340CB607B685B79102B38
:100CC8000ED11949184B9A687B681B6813438B60CF
:100CD8001549154BDA687B681B681343CB601DE028
:100CE800114BFB607B685B791A46FB681344FB6019
:100CF800FB68FA6811687A6812680A431A600DE09E
:100D08007B681B791A46FB681344FB60FB68FA682A
:100D180011687A681268D2430A401A6000BF143713
:100D2800BD465DF8047B7047003C014080B485B047
:100D380000AF78600023FB730023BB600C4B1A687C
:100D48007B681340BB600A4B5A697B681340002BD1
:100D580005D0BB68002B02D00123FB7301E0002300
:100D6800FB73FB7B18461437BD465DF8047B704760
:100D7800003C014080B483B000AF7860044A7B68CF
:100D8800536100BF0C37BD465DF8047B704700BF58
:100D9800003C014080B487B000AF78603960002320
:100DA8007B6100233B610023FB6000237B6176E0CD
:100DB80001227B6902FA03F33B613B681A683B69CD
:100DC8001340FB60FA683B699A4265D17B681A68F0
:100DD8007B695B00032101FA03F3DB431A407B685C
:100DE8001A607B681A683B681B7919467B695B0047
:100DF80001FA03F31A437B681A603B681B79012BDD
:100E080003D03B681B79022B2ED17B689A687B69DB
:100E18005B00032101FA03F3DB431A407B689A6005
:100E28007B689A683B685B7919467B695B0001FAC5
:100E380003F31A437B689A607B685A687B699BB2A4
:100E4800194601238B40DB431A407B685A607B6854
:100E58005B683A68927911467A6992B201FA02F2AD
:100E680092B21A437B685A607B68DA687B699BB2E6
:100E78005B00032101FA03F3DB431A407B68DA6065
:100E88007B68DA683B68DB7919467B695B0001FAA5
:100E980003F31A437B68DA607B6901337B617B6902
:100EA8000F2B85D900BF1C37BD465DF8047B704702
:100EB80080B483B000AF78600B46FB70FB78002BE2
:100EC80006D00A49094B1A6B7B6813430B6306E08B
:100ED8000649064B1A6B7B68DB4313400B6300BF64
:100EE8000C37BD465DF8047B704700BF00380240F0
:100EF80080B483B000AF78600B46FB70FB78002BA2
:100F080006D00A49094B5A6C7B6813434B6406E0C8
:100F18000649064B5A6C7B68DB4313404B6400BFA1
:100F28000C37BD465DF8047B704700BF00380240AF
:100F380080B483B000AF78600B467B807B687A888A
:100F48009A8100BF0C37BD465DF8047B704780B4BA
:100F580085B000AF78600B467B800023FB737B680D
:100F68001B899AB27B8813409BB2002B02D00123C5
:100F7800FB7301E00023FB73FB7B18461437BD4667
:100F88005DF8047B7047000090B484B000AF03465E
:100F98000A46FB711346BB710023FB60BB7903F063
:100FA80003039B000F2202FA03F3FB601649BB7987
:100FB8009B08DBB21846144ABB799B08DBB20233A4
:100FC80052F82320FB68DB431A40831C41F8232096
:100FD8000D48BB799B08DBB21C460B4ABB799B08C2
:100FE800DBB2023352F82320F979BB7903F003030B
:100FF8009B0001FA03F31A43A31C40F8232000BF07
:101008001037BD4690BC70470038014070B50D4E92
:101018000D4CA41BA4100025A54209D10B4E0C4C65
:1010280000F018F8A41BA4100025A54205D170BD36
:1010380056F8253098470135EEE756F82530984799
:101048000135F2E78C1000088C1000088C1000089D
:1010580090100008F8B500BFF8BC08BC9E46704761
:0C106800F8B500BFF8BC08BC9E467047FD
:10107400001000200040008008000000080000006C
:08108400080000000800000054
:04108C00AD010008AA
:0410900089010008CA
:1010940001020300000C0240000C0240000C02405C
:1010A400000C024000000240FFFF000001000000AD
:0810B400B860024000000028B2
:040000050800047D6E
:00000001FF
